:100000000C94B7010C94E8010C94E8010C94E801FD
:100010000C94E8010C94E8010C94E8010C94E801BC
:100020000C94E8010C94390A0C94390A0C94390A9E
:100030000C94E8010C94E8010C94E8010C94E8019C
:100040000C94E8010C94E8010C94E8010C94E8018C
:100050000C94E8010C94E8010C94E8010C94120E45
:100060000C94E8010C94FE050C94D4050C94E80162
:100070000C94E8010C94E8010C94E8010C94E8015C
:100080000C94E8010C94E8010C94E8010C94E8014C
:100090000C94E8010C94E8010C94E8010C94E8013C
:1000A0000C94E8010C94E8010C94E8010C94E8012C
:1000B0000C94E8010C94E8010C94E8010C94E8011C
:1000C0000C94E8010C94E8010C94E8010C94AA0546
:1000D0000C9480050C94E8010C9456050C942C05A6
:1000E0000C94E801D517E417F517DF120418461829
:1000F00066187A18AA18C718D6183D19280B2B0BA2
:100100001A0B1E0B240B620B2F0B330B390B3D0B01
:10011000410B470B4B0B4F0B620B550B590B5D0BF8
:100120000C94410B0C94910A0C941A0B0C94370903
:100130000C9433090C942B0B0C94D1090C940E0ADB
:100140000C94C7180C94870A0C9414020C942F0B6F
:100150000C94190A0C9445020C94F8090C946E0A3C
:100160000C944B0B0C9491020C94E4170C94C7095B
:100170000C941E0B0C9423020C948C0A0C947A1889
:100180000C94030A0C9466180C943D0B0C94C61A3C
:100190000C94590B0C94AA180C94820A0C94550BCD
:1001A0000C94EA010C94F5170C9437020C94730A22
:1001B0000C9471090C94B61A0C949B090C94980930
:1001C0000C94390B0C94AC090C9452090C943D1905
:1001D0000C944C070C944F0B0C9446180C94B709D4
:1001E0000C9434090C94240B0C94FF0A0C940418FE
:1001F0000C945D0B0C94280B0C94DF120C947D0A6C
:100200000C94D5170C94BD090C94780A0C94330BFC
:100210000C94470B0C9493090C94DE020C94620B23
:100220000C94ED090C94D61800002100240027003E
:100230002A002D00300033000101000004010701F5
:100240000A0100002200250028002B002E003100AA
:10025000340002010000050108010B01000020002C
:100260002300260029002C002F003200000100008E
:100270000301060109010505050507050808080829
:10028000020202020A0A080804040404010101012E
:100290000101010103030303030303030407070729
:1002A0000C0C0C0C0C0C0C0C0202020206060606CE
:1002B000060606060B0B0B0B0B0B0B0B0A050A0AAB
:1002C000050A0A0404040A0102102020080810206C
:1002D00040102040800201020108040201010204D2
:1002E0000810204080804020100804020180040291
:1002F00001804020100804020108040201010204E8
:1003000008102040800102040810204080084004AA
:10031000808040201020401000000A0B02090C0DC4
:100320000E080703040100000000000000000000A8
:1003300000000000000000000000000000000000BD
:10034000000000001211100000000000000000007A
:10035000000000000000000000000000000000009D
:1003600000000000000000000000C61AB61A1124A8
:100370001FBECFEFD1E2DEBFCDBF00E00CBF2AE051
:10038000A4E3B4E001C01D92AF36B207E1F714E078
:10039000A0E0B2E0E8E3F4E400E00BBF02C00790A5
:1003A0000D92A433B107D9F711E0C6EBD1E000E01C
:1003B00006C021970109802FFE010E94E71FC53B5F
:1003C000D10780E00807A9F70E945C0E0C940A226E
:1003D0000C940000CF92DF92EF92FF920F931F9345
:1003E000CF93DF936C017A018B01C0E0D0E0CE1592
:1003F000DF0581F0D8016D918D01D601ED91FC9161
:100400000190F081E02DC6011995892B11F02196FC
:10041000EECF7E01C701DF91CF911F910F91FF9029
:10042000EF90DF90CF900895FC01538D448D252FE0
:1004300030E0842F90E0821B930B541710F0CF967E
:10044000089501970895FC01918D828D981761F0B0
:10045000828DDF01A80FB11D5D968C91928D9F5FFB
:100460009F73928F90E008958FEF9FEF0895FC01A6
:10047000918D828D981731F0828DE80FF11D858D59
:1004800090E008958FEF9FEF0895FC01918D228DEC
:10049000892F90E0805C9F4F821B91098F73992771
:1004A000089583EB96E00E94450221E0892B09F430
:1004B00020E0822F089580E597E00E94450221E028
:1004C000892B09F420E0822F08958DEE97E00E9499
:1004D000450221E0892B09F420E0822F0895FC01D8
:1004E000848DDF01A80FB11DA35ABF4F2C91848DBD
:1004F00090E001968F739927848FA689B7892C93F2
:10050000A089B1898C91837080648C93938D848D44
:10051000981306C00288F389E02D80818F7D808347
:100520000895EF92FF920F931F93CF93DF93EC0107
:1005300081E0888F9B8D8C8D981305C0E889F9899F
:10054000808185FD26C0F62E0B8D10E00F5F1F4FBA
:100550000F731127E02E8C8DE8120CC00FB607FC2C
:10056000FACFE889F989808185FFF5CFCE010E9415
:100570006F02F1CF8B8DFE01E80FF11DE35AFF4FA3
:10058000F0829FB7F8940B8FEA89FB8980818062A3
:100590000AC09FB7F894EE89FF896083E889F989DA
:1005A00080818370806480839FBF81E090E0DF91D1
:1005B000CF911F910F91FF90EF900895CF93DF930C
:1005C000EC01888D8823C9F0EA89FB89808185FD4B
:1005D00005C0A889B9898C9186FD0FC00FB607FCAC
:1005E000F5CF808185FFF2CFA889B9898C9185FFED
:1005F000EDCFCE010E946F02E7CFDF91CF9108953A
:1006000080E090E0892B21F00E94650281111DC0DD
:1006100080E090E0892B41F080E090E0892B21F090
:100620000E940000811114C080E090E0892B21F02D
:100630000E945B0281110FC080E090E0892B81F065
:100640000E94510281110AC008950E940000E0CF6B
:100650000E940000E9CF0E940000EECF0C94000041
:1006600008950E94F5210F931F93CF93DF93EB0121
:100670000E94060E8B010E94360A8F3F49F00E94AD
:10068000060E601B710B6C177D07A8F380E001C09C
:1006900081E0DF91CF911F910F91089561E0FC01FE
:1006A00084810E94610D8091AD0481111092AD048E
:1006B0000895CF93DF93EC018E81882389F08F8199
:1006C00098859C012F5F3F4F38872F83823092405F
:1006D00018F40E94360AF3CFCE010E944E031E8208
:1006E000DF91CF9108958F929F92AF92BF92FF9228
:1006F0000F931F93CF93DF93EC01F62E49015A011C
:100700000E9459038091AD04811109C081E080935A
:10071000AD0490918A0880918B089CBD8DBD60E0EE
:100720008C810E94610D6CE271E0CE010E94330366
:100730008F2D80640E942F0A08E110E0D501C401CA
:10074000002E04C0B695A795979587950A94D2F781
:100750000E942F0A08501109083F8FEF180771F700
:10076000FF2029F088E0F81204C087E803C085E97B
:1007700001C08FEF0E942F0A10E00E94360A8A877C
:1007800087FF04C01F3F11F01F5FF7CFDF91CF91AC
:100790001F910F91FF90BF90AF909F908F90089501
:1007A000EF92FF920F931F93CF93DF93EC017901A8
:1007B000411551056105710511F482E13CC08B853D
:1007C000833039F089E0440F551F661F771F8A95E3
:1007D000D1F79A01AB0168E1CE010E94730388232F
:1007E00011F084E028C08EEF0E942F0A87018EEF5F
:1007F000F81AF80181918F010E942F0AE016F10684
:10080000C1F78FEF0E942F0A8FEF0E942F0A0E94DC
:10081000360A8A878F71853031F081E18D83CE0170
:100820000E944E0309C068E572E0CE010E943303C6
:10083000811107C085E18D83CE010E944E0380E0C7
:1008400014C020E030E0A9016DE0CE010E947303E6
:10085000811109C00E94360A811105C0CE010E9493
:100860004E0381E002C084E1E6CFDF91CF911F917A
:100870000F91FF90EF9008958091AE04882389F145
:1008800040913002509131026091320270913302F6
:1008900023EB34E080E090E00E94D003811102C09D
:1008A00080E008954091AF045091B0046091B1048C
:1008B0007091B204411551056105710581F023EB7A
:1008C00034E080E090E00E94D003882349F3109246
:1008D000AF041092B0041092B1041092B2041092BE
:1008E000AE0481E00895AF92BF92CF92DF92EF9273
:1008F000FF921F93CF93DF936B017C01142F8091A4
:10090000300290913102A0913202B09133028C15E5
:100910009D05AE05BF0509F48FC00E943C048823E5
:1009200009F490C0809106008823A1F08091000016
:1009300090910100A0910200B0910300C816D90661
:10094000EA06FB0639F48091070090910800892B94
:1009500009F443C0C0920000D0920100E09202006E
:10096000F092030080910B00A7019601833039F0CB
:1009700099E0220F331F441F551F9A95D1F761E16B
:1009800080E090E00E947303882321F083E080934D
:10099000050044C00E94060EEB010E94360A8093B7
:1009A0000A008F3F49F40E94060E6C1B7D0B6D32CE
:1009B000714098F38FE003C08E3F41F08DE080934B
:1009C000050080E090E00E944E0328C010920800CD
:1009D0001092070081E080930600C3EBD4E083EB24
:1009E000A82E86E0B82E0E94360A8993AC16BD0662
:1009F000D1F780910700909108009E5F90930800C6
:100A00008093070020910900222319F0811592405C
:100A100058F080E090E00E94590306C080E090E02A
:100A20000E944E0380E00EC0C0923002D09231028C
:100A3000E0923202F09233024091AE04412B409397
:100A4000AE0481E0DF91CF911F91FF90EF90DF9096
:100A5000CF90BF90AF9008951F920F920FB60F9254
:100A600011240BB60F922F933F934F935F936F9385
:100A70007F938F939F93AF93BF93EF93FF9383EBFA
:100A800096E00E946F02FF91EF91BF91AF919F910D
:100A90008F917F916F915F914F913F912F910F9027
:100AA0000BBE0F900FBE0F901F9018951F920F92C4
:100AB0000FB60F9211240BB60F922F933F934F93C3
:100AC0005F936F937F938F939F93AF93BF93EF93B6
:100AD000FF9383EB96E00E941F0DFF91EF91BF9172
:100AE000AF919F918F917F916F915F914F913F91C6
:100AF0002F910F900BBE0F900FBE0F901F90189567
:100B00001F920F920FB60F9211240BB60F922F93D4
:100B10003F934F935F936F937F938F939F93AF9385
:100B2000BF93EF93FF9380E597E00E946F02FF91E0
:100B3000EF91BF91AF919F918F917F916F915F9155
:100B40004F913F912F910F900BBE0F900FBE0F90C2
:100B50001F9018951F920F920FB60F9211240BB68B
:100B60000F922F933F934F935F936F937F938F9346
:100B70009F93AF93BF93EF93FF9380E597E00E941D
:100B80001F0DFF91EF91BF91AF919F918F917F9139
:100B90006F915F914F913F912F910F900BBE0F90EE
:100BA0000FBE0F901F9018951F920F920FB60F92C5
:100BB00011240BB60F922F933F934F935F936F9334
:100BC0007F938F939F93AF93BF93EF93FF938DEE9C
:100BD00097E00E946F02FF91EF91BF91AF919F91BB
:100BE0008F917F916F915F914F913F912F910F90D6
:100BF0000BBE0F900FBE0F901F9018951F920F9273
:100C00000FB60F9211240BB60F922F933F934F9371
:100C10005F936F937F938F939F93AF93BF93EF9364
:100C2000FF938DEE97E00E941F0DFF91EF91BF9112
:100C3000AF919F918F917F916F915F914F913F9174
:100C40002F910F900BBE0F900FBE0F901F90189515
:100C50004F925F926F927F928F929F92AF92BF92CC
:100C6000CF92DF92EF92FF920F931F93CF93DF9378
:100C7000EC01423051056105710510F480E078C047
:100C800089859A85AB85BC850196A11DB11D841708
:100C90009507A607B70790F3CB88DC88ED88FE8818
:100CA0008F89803129F4BB27A72F962F852F09C064
:100CB000DB01CA01E7E0B695A79597958795EA9578
:100CC000D1F7480159012A013B01C80ED91EEA1E7D
:100CD000FB1E8091300290913102A0913202B091BE
:100CE0003302C816D906EA06FB0681F48F898031E3
:100CF000A9F4B301A201552766277727440F551F92
:100D0000FA01ED54FB4F9182808219C040E0C70187
:100D1000B6010E9473048111E9CFB0CFB301A201E3
:100D20004F77552766277727440F551F440F551FC8
:100D3000FA01ED54FB4F80829182A282B3828091AE
:100D4000AE0481608093AE048A89823080F08D8108
:100D50009E81AF81B885C80ED91EEA1EFB1EC092C7
:100D6000AF04D092B004E092B104F092B20481E0FA
:100D7000DF91CF911F910F91FF90EF90DF90CF9077
:100D8000BF90AF909F908F907F906F905F904F90AB
:100D900008958F929F92AF92BF92CF92DF92EF927F
:100DA000FF920F931F93CF93DF93FC018185928570
:100DB000A385B4850196A11DB11D84179507A607CB
:100DC000B70710F480E05BC083889488A588B68854
:100DD0008789803129F4BB27A72F962F852F09C03B
:100DE000DB01CA01C7E0B695A79597958795CA9587
:100DF000D1F7E9016A017B018F01BC01CD01680DCA
:100E0000791D8A1D9B1D8090300290903102A09028
:100E10003202B0903302681579058A059B0591F47A
:100E2000F80187898031A1F4DD24EE24FF24C60176
:100E3000880F991FFC01ED54FB4F80819181A0E048
:100E4000B0E018C040E00E9473048111E9CFBACF2E
:100E5000E894C7F8DD24EE24FF24C601880F991F0B
:100E6000880F991FFC01ED54FB4F80819181A28175
:100E7000B381BF7088839983AA83BB8381E0DF91AC
:100E8000CF911F910F91FF90EF90DF90CF90BF9087
:100E9000AF909F908F9008954F925F926F927F9244
:100EA000AF92BF92CF92DF92EF92FF920F931F9378
:100EB000CF93DF9300D01F921F92CDB7DEB78C0186
:100EC0006D83DC0115968C911597813009F054C023
:100ED00014968C9181FF50C057C0258530E0275F64
:100EE0003F4F2A013B01B1E04B1A510861087108DC
:100EF000022E04C076946794579447940A94D2F7CC
:100F0000D701C6010197A109B10904C0B695A795FB
:100F1000979587952A95D2F784159505A605B70567
:100F200008F076C0F8014789508D618D728D468337
:100F30005783608771872C013D015801F6E0AF0EA1
:100F4000B11C411451046104710409F46BC0D8014F
:100F500016964D915D916D917C91199795015B96D7
:100F60008D919C915C970E94C906B1E04B1A510883
:100F7000610871088111E5CF81E090E0F801938369
:100F8000828380E090E05BC182FF0EC0F801428561
:100F9000538564857585C388D488E588F6884C15A3
:100FA0005D056E057F05E9F4D8011A964D915D91B6
:100FB0006D917C911D975B96ED91FC915C9794816E
:100FC00091506A017B0189E0F694E794D794C79425
:100FD0008A95D1F79C217A01B1E0FB22911173C06F
:100FE00027C0D801038CF48DE02DC114D104E10495
:100FF000F10409F072CF16961D921D921D921C925B
:1010000019971A961D921D921D921C921D9714C03D
:10101000452B462B472B09F485CF84199509A60942
:10102000B70989CFF801C286D386E486F586BCCF9E
:10103000E114F10409F047C0D80116964D915D9175
:101040006D917C911997411551056105710559F410
:1010500057968D919D910D90BC91A02D0097A10563
:10106000B10549F522C09E012F5F3F4FCF010E947D
:10107000C906882309F485CF89819A81AB81BC8117
:10108000F801238D348DF9012789203129F448EFA7
:101090005FEF60E070E004C048EF5FEF6FEF7FE06C
:1010A00084179507A607B70730F0C8010E941C0CEB
:1010B000811106C061CFF80186839783A087B1872D
:1010C000E12CF12C90E0D8015B96ED91FC915C97BE
:1010D00016964D905D906D907C901997B2E04B1AEA
:1010E000510861087108058404C0440C551C661C35
:1010F000771C0A94D2F74685578560897189440E1A
:10110000551E661E771E490E511C611C711CE11490
:10111000F10409F5F8014285538564857585838955
:101120009489A589B689481759076A077B0798F0FB
:101130000E943C04882309F41FCF40923002509251
:10114000310260923202709233028091AE0481606B
:101150008093AE0408C041E0C301B2010E94730451
:10116000882309F409CFF701ED54FB4F8D8180836B
:10117000F80182859385A485B5850196A11DB11DD1
:1011800082879387A487B58743895489658976893F
:10119000481759076A077B0738F4838B948BA58B14
:1011A000B68B848180688483D80114968C9183FDEA
:1011B00003C081E090E043C0F8019581992309F4D0
:1011C000DBCE87FF37C0668577858089918941E0CE
:1011D0000E947304882309F4CFCED8015296EC9173
:1011E000B0E2EB9FF0011124ED54FB4F309709F46E
:1011F000C3CED80115968C911597823050F4539632
:101200004D915D916D917C915697448F558F668F6E
:10121000778FD80157964D915D916D917C915A973A
:10122000538F428F758B648B14968C9114978F77A4
:1012300014968C930E943C048111BBCF9DCE0F90DD
:101240000F900F900F900F90DF91CF911F910F9102
:10125000FF90EF90DF90CF90BF90AF907F906F9016
:101260005F904F900895089580E090E0089583E0A6
:1012700090E090935404809353041092470410928A
:10128000460410923A0410923B0410923C041092CF
:101290003D0410923E0410923F04109240041092BC
:1012A0004104089582E090E09093540480935304A5
:1012B000109247041092460410923A0410923B0494
:1012C00010923C0410923D0410923E0410923F0490
:1012D000109240041092410410924504109244046C
:1012E000089581E090E09093540480935304109209
:1012F00050048093020210924F0480934E04109287
:101300004D0410924C0410924B0410924A04109217
:10131000490410925204909151048927809301024C
:1013200010924804089510925404109253040895A2
:101330001092390408958091590490915A048C5068
:101340009E4F89352BE1920710F088E59BE1909341
:101350005A048093590408958091590490915A0435
:10136000845F914090935A0480935904089581E0DA
:1013700080930002809303020895809100028B30D5
:1013800028F48F5F8093000210925B04089580918F
:101390000002823028F081508093000210925B049A
:1013A000089580915B0491E0892780935B0481110B
:1013B000909334049091520481E0892780935204E1
:1013C0000895FC01948181E0692F682764838085FA
:1013D0008111692F86810C94610D80E19AE00E9451
:1013E000E1099091480481E0892780934804089599
:1013F00085EF99E00E94E10990914D0481E08927F1
:1014000080934D04089587E09AE00E94E10990914D
:101410004E0481E0892780934E0408958EEF99E071
:101420000E94E10990914F0481E0892780934F0445
:101430000895109255041092560410925704109279
:1014400058040E94060E609335047093360480930E
:1014500037049093380481E08093390408958EBD59
:1014600000000DB407FEFDCF8EB508958FEF0C94EC
:101470002F0A1F920F920FB60F9211240F900FBEDA
:101480000F901F901895CF93DF93EC018885811101
:1014900007C08E810E94380D21E0892B41F406C0DF
:1014A0008E810E94380D21E0892B09F020E02C83E9
:1014B0008C81DF91CF9108951F93CF93DF93EC013F
:1014C000162F8885882311F061E061278E810E94A4
:1014D000610D1C83DF91CF911F91089560E08AED2B
:1014E00099E00C945C0A61E08AED99E00C945C0A46
:1014F00060E081ED99E00C945C0A61E081ED99E097
:101500000C945C0A60E083EE99E00C945C0A61E064
:1015100083EE99E00C945C0A60E08CEE99E00C9408
:101520005C0A61E08CEE99E00C945C0A8F929F92C9
:10153000AF92BF92EF92FF920F931F93CF93DF93DF
:10154000EC017B018A018D81882391F088858111CE
:1015500002C061E001C060E08E810E94610D81E007
:101560008C830E94060E688379838A839B831D8205
:101570000E94060E88809980AA80BB80DC01CB0186
:1015800088199909AA09BB094701A12CB12C881611
:101590009906AA06BB0610F58885811102C060E095
:1015A00001C061E08E810E94610D1C820E94060EC6
:1015B00088809980AA80BB80DC01CB0188199909B9
:1015C000AA09BB09A701400F511F60E070E048174E
:1015D00059076A077B0710F481E08D83DF91CF9173
:1015E0001F910F91FF90EF90BF90AF909F908F90C1
:1015F00008950E94880B0E94880B0C94880B909190
:10160000030281E089278093030262E872E080E5AB
:1016100097E00E949D0B0C94F90A90E0FC01319731
:10162000E231F10508F04EC08827E258FF4F8F4F96
:101630000C94E71F809180008F7703C08091800019
:101640008F7D80938000089580918000877FF9CFFF
:1016500084B58F7702C084B58F7D84BD0895809155
:10166000B0008F7703C08091B0008F7D8093B00071
:101670000895809190008F7707C0809190008F7DB2
:1016800003C080919000877F80939000089580919F
:10169000A0008F7707C08091A0008F7D03C080914C
:1016A000A000877F8093A0000895809120018F770C
:1016B00007C0809120018F7D03C080912001877F2A
:1016C0008093200108953FB7F8948091670A909124
:1016D000680AA091690AB0916A0A26B5A89B05C05C
:1016E0002F3F19F00196A11DB11D3FBFBA2FA92FA1
:1016F000982F8827820F911DA11DB11DBC01CD011E
:1017000042E0660F771F881F991F4A95D1F7089509
:101710006FEF80E597E00C9491026115710551F02F
:10172000FB0101900020E9F73197AF01461B570BF1
:101730000C94EA0180E090E008950C948D0B8F9258
:101740009F92AF92BF92EF92FF920F931F93CF930E
:10175000DF93CDB7DEB7A1970FB6F894DEBF0FBE0B
:10176000CDBF7C01FA01CB0119A2223008F42AE096
:101770008E010F5D1F4F822E912CA12CB12CBF0129
:10178000A50194010E94A61FF901CA010150110987
:101790006A3014F4605D01C0695CD8016C93232B3E
:1017A000242B252B61F7B801C7010E948D0BA19650
:1017B0000FB6F894DEBF0FBECDBFDF91CF911F9162
:1017C0000F91FF90EF90BF90AF909F908F900895F2
:1017D000CF92DF92EF92FF92CF93DF936C01990F3C
:1017E000EE08FF08F7FE1BC06DE280E597E00E945F
:1017F0009102EC0144275527BA014C195D096E0985
:101800007F092AE080E597E00E949F0B8C0F9D1FC7
:10181000DF91CF91FF90EF90DF90CF9008952AE075
:10182000B701A60180E597E0DF91CF91FF90EF909F
:10183000DF90CF900C949F0B3F924F925F926F92EC
:101840007F928F929F92AF92BF92CF92DF92EF9250
:10185000FF920F931F93CF93DF93CDB7DEB72C97F3
:101860000FB6F894DEBF0FBECDBF5C01DC015B9606
:101870008D909C905C971696CD90DD90ED90FC90AD
:101880001997C114D104E104F10439F0BFEFCB1A68
:10189000DB0AEB0AFB0A312C07C0F401C080D180BF
:1018A000E280F38033243394F40181859285A3850B
:1018B000B4859C01AD012F5F3F4F4F4F5F4F29878C
:1018C0003A874B875C87260137011D821E821F8263
:1018D0001886F40181859285A385B4852D813E818A
:1018E0004F815885281739074A075B0708F063C0FE
:1018F00089859A85AB85BC858C159D05AE05BF0590
:1019000050F482E0C82ED12CE12CF12C92E0492E2B
:10191000512C612C712C9E012F5F3F4FB701A60106
:10192000C4010E94C906882309F445C089819A81AF
:10193000AB81BC81892B8A2B8B2B41F0260137018F
:101940009FEF491A590A690A790A05C0C414D504D7
:10195000E604F70491F02D813E814F8158852F5F79
:101960003F4F4F4F5F4F2D833E834F8358873FEF4D
:10197000C31AD30AE30AF30AACCF0FEF1FEF2FEF1E
:101980003FE0B301A201C4010E942806882399F018
:10199000D50116964D915D916D917C9119974115E8
:1019A00051056105710549F093018201C4010E944E
:1019B0002806811102C080E02AC0D50116964D92FA
:1019C0005D926D927C921997332051F0D301C20140
:1019D0000196A11DB11DF40180839183A283B3837D
:1019E000F5018789908DA18DB28D892B8A2B8B2B48
:1019F00069F4D50157964D925D926D927C925A97FB
:101A000014968C911497806814968C9381E02C9690
:101A10000FB6F894DEBF0FBECDBFDF91CF911F91FF
:101A20000F91FF90EF90DF90CF90BF90AF909F907D
:101A30008F907F906F905F904F903F900895FC0142
:101A4000A089B1898C91A689B78982FD0FC09C912C
:101A5000818D8F5F8F73228D821749F0218DDF0179
:101A6000A20FB11D5D969C93818F08958C9108956E
:101A7000CF93DF93282F30E0F901E85EFC4F84918B
:101A8000F901E953FD4FD491F901EA58FD4FC49192
:101A9000CC2391F081110E940D0BEC2FF0E0EE0FA2
:101AA000FF1FE45AFD4FA591B491EC91ED2381E025
:101AB00090E021F480E002C080E090E0DF91CF91DF
:101AC00008951F93CF93DF93282F30E0F901E85E4C
:101AD000FC4F8491F901E953FD4FD491F901EA5883
:101AE000FD4FC491CC23C1F0162F81110E940D0B24
:101AF000EC2FF0E0EE0FFF1FEE5BFD4FA591B491D0
:101B00009FB7F894111104C08C91D095D82302C0CE
:101B1000EC91DE2BDC939FBFDF91CF911F91089555
:101B2000CF93DF9390E0FC01E953FD4F2491FC013A
:101B3000EA58FD4F8491882361F190E0880F991F46
:101B4000FC01E85DFD4FC591D491FC01EE5BFD4FBA
:101B5000A591B491611109C09FB7F894888120952F
:101B600082238883EC912E230BC0623061F49FB7EF
:101B7000F8948881322F309583238883EC912E2B23
:101B80002C939FBF06C08FB7F894E8812E2B288333
:101B90008FBFDF91CF9108958F929F92AF92BF92A6
:101BA000CF92DF92EF92FF926B017C010E94630B58
:101BB0004B015C01C114D104E104F104F1F00E9475
:101BC000630BDC01CB0188199909AA09BB09883E7E
:101BD0009340A105B10570F321E0C21AD108E108D4
:101BE000F10888EE880E83E0981EA11CB11CC11478
:101BF000D104E104F10419F7DDCFFF90EF90DF90FD
:101C0000CF90BF90AF909F908F9008952FB7F8948A
:101C10006091630A7091640A8091650A9091660AE6
:101C20002FBF08951F920F920FB60F9211242F937A
:101C30003F938F939F93AF93BF938091630A90914B
:101C4000640AA091650AB091660A3091620A23E0A5
:101C5000230F2D3720F40196A11DB11D05C026E8E4
:101C6000230F0296A11DB11D2093620A8093630A7F
:101C70009093640AA093650AB093660A8091670AFC
:101C80009091680AA091690AB0916A0A0196A11D13
:101C9000B11D8093670A9093680AA093690AB09374
:101CA0006A0ABF91AF919F918F913F912F910F90B1
:101CB0000FBE0F901F901895CF93DF93CDB7DEB76F
:101CC00028970FB6F894DEBF0FBECDBF789484B5C9
:101CD000826084BD84B5816084BD85B5826085BD28
:101CE00085B5816085BD80916E00816080936E00B6
:101CF00010928100809181008260809381008091A8
:101D00008100816080938100809180008160809358
:101D100080008091B10084608093B1008091B00018
:101D200081608093B00080919100826080939100E7
:101D300080919100816080939100809190008160FA
:101D4000809390008091A10082608093A100809197
:101D5000A10081608093A1008091A00081608093A8
:101D6000A000809121018260809321018091210156
:101D70008160809321018091200181608093200106
:101D800080917A00846080937A0080917A008260EA
:101D900080937A0080917A00816080937A008091AC
:101DA0007A00806880937A001092C100E091FD076C
:101DB000F091FE0722E02083E091F907F091FA0705
:101DC0001082E091FB07F091FC0780E18083109284
:101DD0000508E0910108F091020896E09083E091F7
:101DE000FF07F0910008808180618083E091FF0708
:101DF000F0910008808188608083E091FF07F09176
:101E00000008808180688083E091FF07F0910008DE
:101E100080818F7D8083E0916007F091610720834E
:101E2000E0915C07F0915D071082E0915E07F09110
:101E30005F078FEC808310926807E0916407F09150
:101E400065079083E0916207F0916307808180616C
:101E50008083E0916207F0916307808188608083CE
:101E6000E0916207F0916307808180688083E09150
:101E70006207F091630780818F7D808383E999E019
:101E8000909379098093780910927B0910927A09CE
:101E900081E799E090936D0980936C0910926F0926
:101EA00010926E0982E599E09093C5088093C4086A
:101EB0001092C7081092C60887E399E0909395089E
:101EC00080939408109297081092960887EC99E0F6
:101ED00090936109809360091092630910926209DE
:101EE0008DEB99E09093550980935409109257090E
:101EF0001092560988EF99E090930D0980930C0990
:101F000010920F0910920E0987EB99E090934909FE
:101F10008093480910924B0910924A098CEA99E083
:101F20009093B9088093B8081092BB081092BA0831
:101F30008BE999E09093AD088093AC081092AF08BC
:101F40001092AE088FEF9AE0909331098093300998
:101F5000109233091092320981ED99E090933D0976
:101F600080933C0910923F0910923E098EE09AE05E
:101F7000909325098093240910922709109226092D
:101F800083E09AE0909319098093180910921B0935
:101F900010921A098DEE99E09093D1088093D008A1
:101FA0001092D3081092D20881E99AE09093010927
:101FB0008093000910920309109202098CE89AE0BC
:101FC000909305098093040910920709109206095D
:101FD00087E89AE09093F5088093F4081092F70848
:101FE0001092F60882E89AE09093F9088093F80836
:101FF0001092FB081092FA088DE79AE09093DD08A2
:102000008093DC081092DF081092DE0888E79AE0DF
:102010009093E1088093E0081092E3081092E208A0
:1020200083E79AE09093E9088093E8081092EB0820
:102030001092EA088EE69AE09093ED088093EC08FF
:102040001092EF081092EE0889E19AE09093A108AF
:102050008093A0081092A3081092A20888E999E042
:102060009093A5088093A4081092A7081092A60840
:1020700068EB7BE080E090E00E94CC0D80E597E08B
:102080000E944502892B29F080E597E00E942302F7
:10209000F5CF68E572E080E597E00E949D0B0E9415
:1020A000880B0E94880B0E94880B0E94F90A42E06C
:1020B00050E060E070E08EE292E00E94521E60917B
:1020C0002E0270912F0244E050E08BE994E00E94D0
:1020D000521E60912E0270912F026C5F7F4F42E082
:1020E00050E089E594E00E94521E60912E027091AA
:1020F0002F02685F7F4F44E050E085E594E00E9446
:10210000521E60912E0270912F02635F7F4F44E058
:1021100050E08FE994E00E94521E60E08BE30E9441
:10212000900D60E08CE30E94900D60E086E30E94D9
:10213000900D60E087E30E94900D60E088E30E94CC
:10214000900D60E089E30E94900D60E08DE30E94B5
:10215000900D61E08BE00E94900D61E08AE00E94AA
:10216000900D60ED77E080E090E00E94CC0D61E0A2
:1021700080E19AE00E945C0A6FE572E08DEE97E0E4
:102180000E948D0B6AE672E08DEE97E00E948D0B47
:102190009AE0292E312C24EF422E55245394612CA1
:1021A000712C80910302811105C0EE24E394E0922A
:1021B000340406C080913404811102C010925B0483
:1021C0008CE30E94380D019731F4FF24F394F092D0
:1021D0005B04F09234048BE30E94380D019711F4F4
:1021E00010925B0486E30E94380D019731F487E377
:1021F0000E94380D019709F4BDC61092510451E0B8
:1022000050936E041092340410925B0488E30E9491
:10221000380D21E0892B09F420E02093700489E334
:102220000E94380D21E0892B09F420E020937104ED
:1022300080917B00877F80937B0007E400937C0084
:1022400080917A00806480937A0080917A0086FD84
:10225000FCCF609178008091790070E0782B072E98
:10226000000C880B990B0E94351D28E539E34EEDD3
:1022700051E40E94E71E6B017C0120E030E040E861
:1022800050E46091660470916704809168049091B5
:1022900069040E94941DA70196010E947B1E20E004
:1022A00030E040EA50E40E94E71E609366047093B9
:1022B0006704809368049093690420E030E04AE763
:1022C00054E40E94941D0E94591F6B017C01AB01D4
:1022D000209164043091650426173707C0F580917A
:1022E00062049091630497FD19C001969093630472
:1022F0008093620480915E0490915F04A0916004D9
:10230000B09161048C0D9D1DA11DB11D80935E04D3
:1023100090935F04A0936004B09361048091620481
:102320009091630497FF13C01092630410926204AB
:1023300010925E0410925F04109260041092610487
:102340004217530708F07FC080E090E00AC04217B0
:10235000530798F58091620490916304181619064A
:10236000CCF00197909363048093620480915E04A3
:1023700090915F04A0916004B09161048C0D9D1D4B
:10238000A11DB11D80935E0490935F04A09360042F
:10239000B093610480916204909163041816190649
:1023A00064F4109263041092620410925E0410921E
:1023B0005F04109260041092610480916204909115
:1023C000630497FF03C09195819591090597D9F50D
:1023D00060915E0470915F0480916004909161044B
:1023E00025E030E040E050E00E94C81F80915C048E
:1023F00090915D0479018A01E81AF90A010911092D
:10240000D801C70117FF07C0B095A0959095819599
:102410009F4FAF4FBF4FC397A105B10544F0309315
:1024200065042093640430935D0420935C0410924F
:1024300063041092620410925E0410925F04109282
:10244000600410926104609164047091650480E0FE
:1024500090E00E94331D20E030E04AE754E40E94FF
:10246000E71E6B017C016093890470938A0480935A
:102470008B0490938C0423E333E148EB54E40E94F3
:10248000941D0E94591FCB01B1010E94921F0AE0C6
:10249000069FC001079F900D112490939204809392
:1024A00091049091030280915B04992321F0882389
:1024B00031F080913404882311F061E001C060E0C4
:1024C0008BE00E94610D80916E04882309F458C549
:1024D0000E94060E00916A0410916B0420916C0416
:1024E00030916D046017710782079307D0F08AE07E
:1024F0000E94380D61E0892B09F060E08AE00E94BB
:10250000610D0E94060EDC01CB0184549D4FAF4F3C
:10251000BF4F80936A0490936B04A0936C04B093B4
:102520006D0480915B04882309F465C020917B04CD
:1025300030917C0440917D0450917E0429833A833C
:102540004B835C830E94060E809077049090780401
:10255000A0907904B0907A0409811A812B813C8182
:10256000080D191D2A1D3B1D061B170B280B390BC7
:10257000C901B80128EE33E040E050E00E94A61FF8
:1025800020939304309394044093950450939604BD
:1025900080913404882379F10E94060EDC01CB017E
:1025A00029813A814B815C81821B930BA40BB50B73
:1025B00088169906AA06BB0608F4E7C41CC061E0A9
:1025C00085EF99E00E945C0A0E94060E60937B04EE
:1025D00070937C0480937D0490937E0440927704F2
:1025E000509278046092790470927A0410923404C4
:1025F00085E08093000280E597E00E94450218166E
:1026000019060CF04AC06AE070E080E090E00E9499
:10261000CC0D80E597E00E942302182F853659F7EC
:1026200080E597E00E94450206972CF310937F0403
:1026300000E814E080E597E00E942302D8018D9322
:102640008D01B4E006381B07A9F71092860480912B
:1026500083048F3F81F6809184048F3F61F68091DF
:1026600085048F3F41F680908204912CA12CB12CDF
:102670009091810420918004E4E0F2E0E190F190F7
:10268000E114F10409F4B7CFD7018C912813F6CFE8
:1026900011968C919813F2CF15C6809153049091A6
:1026A0005404019709F0D2C19091520480915B04C7
:1026B000981771F066E772E080E597E00E949D0B45
:1026C0000E94F90A80915204B1E08B278093520452
:1026D0009091030280910202981761F062E872E023
:1026E00080E597E00E949D0B0E94F90A8091030209
:1026F000809302028091510490910102981769F130
:102700006EE872E081110DC080E597E00E949D0B9C
:1027100066E972E080E597E00E949D0B68E972E04F
:102720000CC080E597E00E949D0B66E972E080E5B1
:1027300097E00E949D0B6CE672E080E597E00E94B6
:102740009D0B66E972E080E597E00E949D0B0E9478
:10275000F90A8091510480930102809151048823E9
:1027600009F474C08091930490919404A09195040D
:10277000B091960440919704509198046091990407
:1027800070919A04481759076A077B0709F45EC0DD
:102790000197A109B1096EE872E0873E9340A10557
:1027A000B105E0F580E597E00E949D0B66E972E0D7
:1027B00080E597E00E949D0B63EA72E080E597E078
:1027C0000E949D0B40919304509194046091950454
:1027D000709196042AE080E597E00E949F0B6DE0DF
:1027E00073E080E597E00E949D0B66E972E080E56A
:1027F00097E00E949D0B0E94F90A809193049091AA
:102800009404A0919504B0919604809397049093BA
:102810009804A0939904B0939A0418C080E597E0B7
:102820000E949D0B66E972E080E597E00E949D0B97
:102830006CE672E080E597E00E949D0B66E972E02D
:1028400080E597E00E949D0B0E94F90A9091500448
:1028500080910002981761F16BEA72E080E597E0E1
:102860000E949D0B66E972E080E597E00E949D0B57
:102870008091000290E0019726E0289FF001299FB7
:10288000F00D1124E058F64F44815581608171812B
:1028900080E597E00E94EA0166E972E080E597E052
:1028A0000E949D0B0E94F90A8091000280935004BF
:1028B0008EEF99E00E94430A90914F04891771F0BE
:1028C00063EB72E080E597E00E949D0B0E94F90A9D
:1028D00080914F04F1E08F2780934F0487E09AE0C6
:1028E0000E94430A90914E04891779F06FEB72E0D1
:1028F00080E597E00E949D0B0E94F90A80914E04AA
:10290000EE24E3948E2580934E0485EF99E00E9497
:10291000430A90914D04891779F06BEC72E080E5E1
:1029200097E00E949D0B0E94F90A80914D04FF24BC
:10293000F3948F2580934D048CEE99E00E94430A16
:1029400090914C048917A9F067ED72E080E597E05B
:102950000E949D0B8CEE99E00E94430A90E00E9439
:10296000E80B0E94F90A8CEE99E00E94430A8093DA
:102970004C0483EE99E00E94430A90914B0489171E
:10298000A9F061EE72E080E597E00E949D0B83EE76
:1029900099E00E94430A90E00E94E80B0E94F90A25
:1029A00083EE99E00E94430A80934B048AED99E0FC
:1029B0000E94430A90914A048917A9F06BEE72E0D5
:1029C00080E597E00E949D0B8AED99E00E94430A02
:1029D00090E00E94E80B0E94F90A8AED99E00E94BB
:1029E000430A80934A0481ED99E00E94430A909142
:1029F00049048917A9F065EF72E080E597E00E942D
:102A00009D0B81ED99E00E94430A90E00E94E80B43
:102A10000E94F90A81ED99E00E94430A80934904DB
:102A200080E19AE00E94430A90914804891771F06E
:102A30006FEF72E080E597E00E949D0B0E94F90A1B
:102A400080E19AE00E94430A8093480480915304F5
:102A500090915404029709F08CC120914604309162
:102A600047048091590490915A042817390779F145
:102A70000E94F90A6EE872E080E597E00E949D0BE3
:102A800066E972E080E597E00E949D0B4091590451
:102A900050915A0460E070E02AE080E597E00E94DF
:102AA0009F0B6BE073E080E597E00E949D0B66E969
:102AB00072E080E597E00E949D0B0E94F90A8091E8
:102AC000590490915A0490934704809346042091AE
:102AD0004404309145048091910490919204281708
:102AE000390709F491C00E94060E00918D041091DF
:102AF0008E0420918F043091900406171707280741
:102B0000390708F081C066E373E080E597E00E9432
:102B10009D0B409191045091920460E070E02AE096
:102B200080E597E00E949F0B0E94F90A6EE373E034
:102B300080E597E00E949D0B66E972E080E597E0F2
:102B40000E949D0B409191045091920460E070E0CE
:102B50002AE080E597E00E949F0B66E473E080E541
:102B600097E00E949D0B66E972E080E597E00E9485
:102B70009D0B0E94F90A8091910490919204909388
:102B800045048093440469E473E080E597E00E9483
:102B90009D0B66E972E080E597E00E949D0BC09076
:102BA0008904D0908A04E0908B04F0908C04A701F3
:102BB0009601C701B6010E948D1F882309F4F8C34E
:102BC0006FE073E080E597E00E948D0B6BE173E0AE
:102BD00080E597E00E949D0B66E972E080E597E052
:102BE0000E949D0B0E94F90A0E94060EDC01CB0197
:102BF00088539F4FAF4FBF4F80938D0490938E04A7
:102C0000A0938F04B093900440913E0450913F04F0
:102C1000609140047091410480919F049091A004C0
:102C2000A091A104B091A204481759076A077B0735
:102C300089F160E273E080E597E00E949D0B66E910
:102C400072E080E597E00E949D0B40919F045091B7
:102C5000A0046091A1047091A2042AE080E597E0AD
:102C60000E949F0B66E972E080E597E00E949D0B51
:102C70000E94F90A80919F049091A004A091A10460
:102C8000B091A20480933E0490933F04A09340042B
:102C9000B093410440913A0450913B0460913C044C
:102CA00070913D048091550490915604A091570471
:102CB000B0915804481759076A077B0789F169E200
:102CC00073E080E597E00E949D0B66E972E080E585
:102CD00097E00E949D0B40915504509156046091DD
:102CE0005704709158042AE080E597E00E949F0BFA
:102CF00066E972E080E597E00E949D0B0E94F90A68
:102D00008091550490915604A0915704B0915804B5
:102D100080933A0490933B04A0933C04B0933D0409
:102D200080913904882329F10E94060E0091350410
:102D3000109136042091370430913804DC01CB0126
:102D4000801B910BA20BB30B89389341A105B105F0
:102D500080F010925504109256041092570410926D
:102D6000580410929F041092A0041092A104109293
:102D7000A2042091AB043091AC048091590490914D
:102D80005A0428173907A1F060912E0270912F0282
:102D90006C5F7F4F42E050E089E594E00E94621E44
:102DA0008091590490915A049093AC048093AB04A1
:102DB0004091A7045091A8046091A9047091AA04BD
:102DC0008091550490915604A0915704B0915804F5
:102DD000481759076A077B07E1F060912E0270914E
:102DE0002F02685F7F4F44E050E085E594E00E9449
:102DF000621E8091550490915604A0915704B091A1
:102E000058048093A7049093A804A093A904B093B6
:102E1000AA044091A3045091A4046091A504709168
:102E2000A60480919F049091A004A091A104B09168
:102E3000A204481759076A077B07C9F160912E025F
:102E400070912F02635F7F4F44E050E08FE994E080
:102E50000E94621E80919F049091A004A091A10401
:102E6000B091A2048093A3049093A404A093A5041A
:102E7000B093A60480919B0490919C04A0919D0422
:102E8000B0919E040196A11DB11D80939B04909367
:102E90009C04A0939D04B0939E0460912E027091B7
:102EA0002F0244E050E08BE994E00E94621E809182
:102EB0009B0490919C04A0919D04B0919E04803A43
:102EC0009648A140B1050CF452C080912E02909119
:102ED0002F024096883E23E092072CF490932F0215
:102EE00080932E0206C041E050E050932F024093A1
:102EF0002E0242E050E060E070E08EE292E00E943C
:102F0000621E10929B0410929C0410929D041092D9
:102F10009E0460912E0270912F0244E050E08BE9F4
:102F200094E00E94621E60912E0270912F026C5FED
:102F30007F4F42E050E089E594E00E94621E60917C
:102F40002E0270912F02685F7F4F44E050E085E5CC
:102F500094E00E94621E60912E0270912F02635FC6
:102F60007F4F44E050E08FE994E00E94621E0E948F
:102F7000000317C981E08093510410926E0446C982
:102F800060E08AE00E94610DCCCAE09100028E2FC1
:102F900090E0FC013197EC30F10508F02CCB88274C
:102FA000EE58FF4F8F4F0C94E71F48EE53E06CED47
:102FB00075E08CEE99E00E94960A8091F1098823D1
:102FC00009F419CB82E00EC04CE251E068E57BE1E8
:102FD00083EE99E00E94960A8091E809882309F41B
:102FE0000ACB83E0809300026AC144EF51E06CEDAC
:102FF00075E08AED99E00E94960A8091DF098823A6
:1030000009F4F9CA84E0EECF8091760481110DC0F5
:1030100031E0309376040E94060E60937204709340
:103020007304809374049093750461E08EEF99E0CB
:103030000E945C0A61E087E09AE00E945C0A0E94BC
:10304000060E009172041091730420917404309163
:103050007504AB01BC01401B510B620B730B8091DB
:10306000590490915A04A0E0B0E084179507A60790
:10307000B70708F0C0CA60E08EEF99E00E945C0AD2
:10308000109276041092340486E0B3CA61E083EEB5
:1030900099E00E945C0A80917104882309F4ABCA0C
:1030A0000E94060E60937B0470937C0480937D04E1
:1030B00090937E0440927704509278046092790451
:1030C00070927A041092340487E093CA60E083EE31
:1030D00099E00E945C0A40E050E060E273E081ED1C
:1030E00099E00E94960A8091D609882309F483CA40
:1030F00088E078CF60E08EEF99E00E945C0A60E0A3
:1031000087E09AE00E945C0A2DEC3CEC4CEC5DE31D
:10311000C701B6010E942E1D87FF6DCA49E040938A
:103120000002109234040E94060E60937B04709398
:103130007C0480937D0490937E0480EA9FE0A0E06D
:10314000B0E08093770490937804A0937904B093CF
:103150007A0451CA60E085EF99E00E945C0A9AE027
:1031600090930002109234040E94060E60937B0438
:1031700070937C0480937D0490937E044092770446
:10318000509278046092790470927A0434CA48EEBE
:1031900053E06CED75E08CEE99E00E94960A809108
:1031A000F109882309F427CA8BE01CCF61E08EEF78
:1031B00099E00E945C0A60E087E09AE00E945C0A65
:1031C00080917004882309F416CA60E08EEF99E0BC
:1031D0000E945C0A60E087E09AE00E945C0A2DECA5
:1031E0003CEC4CEC5DE3C701B6010E942E1D87FF4D
:1031F00002CAACE0A0930002109234040E94060EB2
:1032000060937B0470937C0480937D0490937E0490
:1032100010EDE12E17E0F12E00E010E0E0927704CF
:10322000F09278040093790410937A048091550405
:1032300090915604A0915704B09158040196A11D95
:10324000B11D8093550490935604A0935704B093F6
:10325000580480919F049091A004A091A104B09182
:10326000A2040196A11DB11D80939F049093A00418
:10327000A093A104B093A204BEC980916F048F5F94
:1032800080936F048430C1F40E94060E60937B0427
:1032900070937C0480937D0490937E0400EE13E988
:1032A00024E030E0009377041093780420937904AD
:1032B00030937A0410926F0411E010930002109280
:1032C000340499C962E373E08DEE97E00E949D0B90
:1032D0002AE0A7010F2C000C660B770B8DEE97E010
:1032E0000E949F0B64E373E08DEE97E00E949D0BBC
:1032F000D7014C9150E060E070E02AE08DEE97E05D
:103300000E949F0B6DEF72E08DEE97E00E949D0B87
:10331000F701418150E060E070E02AE08DEE97E037
:103320000E949F0B6DEF72E08DEE97E00E949D0B67
:10333000D70112966D917C9113976115710511F467
:103340006DE672E08DEE97E00E949D0B64E772E0FF
:103350008DEE97E00E948D0B6AE672E08DEE97E0AD
:103360000E948D0BB1E08B169104A104B10469F4A5
:10337000D7011496ED91FC911597309709F43BC94C
:1033800016968D919C91179711C089288A288B28B1
:1033900009F031C9D7011896ED91FC911997309732
:1033A00009F429C91A968D919C911B97199523C9E7
:1033B00046015701E894B7F82FEF3FEF4FE75FE77B
:1033C000C501B4010E948D1F81110DC02FEF3FEF89
:1033D0004FE75FE7C501B4010E942E1D18161CF4CB
:1033E00063E173E0EFCB2FEF3FEF4FE75FE4C701FF
:1033F000B6010E94881F18161CF467E173E0E2CB47
:103400002FEF3FEF4FE75FECC701B6010E942E1D83
:1034100087FDF3CF20E030E0A901C701B6010E948B
:103420002E1D87FF09C06DE280E597E00E949102A2
:10343000F7FAF094F7F8F0942DEC3CEC4CE45DE3F3
:10344000C701B6010E947B1E4B015C010E94591FFF
:103450006B017C010E94331D9B01AC01C501B401CD
:103460000E947A1E4B015C012AE0B701A60180E5AB
:1034700097E00E949F0B6EE280E597E00E94910228
:1034800020E030E040E251E4C501B4010E94941D07
:103490000E94591FAB0160E070E02AE080E597E0F0
:1034A0000E949F0B93CBEF92FF920F931F93CF93AA
:1034B000DF93EC01198218821B821A821D821C8202
:1034C00061157105B9F17B01FB0101900020E9F75D
:1034D00031978F01061B170BB8016F5F7F4F80E09C
:1034E00090E00E941021009759F0998388831B83F4
:1034F0000A832C813D81232B81F4FC0110820DC0B5
:1035000088819981009711F00E9487201982188282
:103510001D821C821B821A820DC01D830C83B70181
:1035200088819981DF91CF911F910F91FF90EF904A
:103530000C940322DF91CF911F910F91FF90EF9098
:1035400008950F931F93CF93DF93EC01162F072F4E
:1035500081E08D83188661E0812F0E94900D1E838B
:103560000F83DF91CF911F910F910895CF93DF9338
:10357000C8ECD9E02697888199810E94872089E04C
:10358000C038D807B9F7DF91CF910895CF93DF9373
:10359000E3EBF6E01382128248EE53E060E070E065
:1035A00044835583668377838EE392E0918380839F
:1035B00025E331E03587248724E331E03787268708
:1035C00020E331E0318B208B21E331E0338B228B00
:1035D00022E331E0358B248B26E331E0378B268BD9
:1035E000118E128E138E148EE0E5F7E01382128294
:1035F00044835583668377839183808325ED30E010
:103600003587248724ED30E03787268720ED30E0AA
:10361000318B208B21ED30E0338B228B22ED30E09B
:10362000358B248B26ED30E0378B268B118E128E56
:10363000138E148EEDEEF7E01382128244835583CD
:10364000668377839183808385EC90E09587848778
:1036500084EC90E09787868780EC90E0918B808B5C
:1036600081EC90E0938B828B82EC90E0958B848B45
:1036700086EC90E0978B868B118E128E138E148EB3
:10368000E9E1FAE0158216821186138682E090E065
:10369000A0E0B0E084879587A687B78713A215A618
:1036A00014A680E592E093A782A717A6EAE8F8E0BF
:1036B00080E58083118269E070E080E19AE00E94F9
:1036C000A11A63E070E087E09AE00E94A11A62E02C
:1036D00070E08EEF99E00E94A11A64E070E085EF3F
:1036E00099E00E94A11A67E070E08CEE99E00E94D8
:1036F000A11A65E070E083EE99E00E94A11A68E0EB
:1037000070E08AED99E00E94A11A66E070E081ED18
:1037100099E00E94A11A6DE070E088EC99E00E94A7
:10372000A11A61E573E080E899E00E94531A6DE503
:1037300073E086E899E00E94531A6BE673E08CE828
:1037400099E00E94531A67E773E082E999E00E94CA
:10375000531A65E873E088E999E00E94531A63E917
:1037600073E08EE999E00E94531A6DE973E084EAF0
:1037700099E00E94531A6AEA73E08AEA99E00E948B
:10378000531A66EB73E080EB99E00E94531A63ECE6
:1037900073E086EB99E00E94531A61ED73E08CEBC5
:1037A00099E00E94531A62EE73E082EC99E00E9465
:1037B000531AE4E7F9E0108211828BEE93E09383D1
:1037C00082831582148211861086138612861782D0
:1037D0001682E8E6F9E081E08083118221EF33E090
:1037E00033832283158214821186108613861286F3
:1037F00017821682ECE5F9E08083A6E0A18367EFEB
:1038000073E0738362831582148211861086138697
:10381000128617821682E0E5F9E0808397E09183B3
:103820004AEF53E053834283158214821186108637
:103830001386128617821682E4E4F9E08083B5E0ED
:10384000B1832DEF33E033832283158214821186F6
:1038500010861386128617821682E8E3F9E08083C9
:1038600092E0918320E034E0338322831582148236
:10387000118610861386128617821682ECE2F9E012
:10388000808324E0218324E034E033832283158283
:103890001482118610861386128617821682E0E241
:1038A000F9E080832EE0218328E034E03383228313
:1038B000158214821186108613861286178216824C
:1038C000E4E1F9E080832DE021832CE034E03383D0
:1038D000228315821482118610861386128617821F
:1038E0001682E8E0F9E080832CE0218320E134E0D7
:1038F00033832283158214821186108613861286E2
:1039000017821682ECEFF8E080832BE0218324E11C
:1039100034E0338322831582148211861086138645
:10392000128617821682E0EFF8E080832AE0218376
:1039300027E134E0338322831582148211861086B6
:103940001386128617821682E4EEF8E08083C1E1C6
:10395000C183CAE1D4E0D383C28315821482118665
:1039600010861386128617821682E8EDF8E08083AF
:10397000C8E0C183CDE1D4E0D383C2831582148231
:10398000118610861386128617821682ECECF8E0F8
:103990008083C0E1C183C0E2D4E0D383C2831582B7
:1039A0001482118610861386128617821682E0EC26
:1039B000F8E090831182C4E2D4E0D383C2831582FD
:1039C0001482118610861386128617821682E4EB03
:1039D000F8E09083B1837383628315821482118629
:1039E00010861386128617821682E8EAF8E0908322
:1039F000A183538342831582148211861086138615
:103A0000128617821682ECE9F8E090839FE091839A
:103A100033832283158214821186108613861286C0
:103A200017821682E0E9F8E093E0908311822AE29F
:103A300034E0338322831582148211861086138624
:103A4000128617821682ECE8F8E09083818380E387
:103A500094E093838283DF91CF9108950E94701D3B
:103A600008F481E00895E89409C097FB3EF490952E
:103A70008095709561957F4F8F4F9F4F9923A9F047
:103A8000F92F96E9BB279395F695879577956795D6
:103A9000B795F111F8CFFAF4BB0F11F460FF1BC01A
:103AA0006F5F7F4F8F4F9F4F16C0882311F096E9AD
:103AB00011C0772321F09EE8872F762F05C066235B
:103AC00071F096E8862F70E060E02AF09A95660F14
:103AD000771F881FDAF7880F9695879597F90895CD
:103AE000990F0008550FAA0BE0E8FEEF161617060F
:103AF000E807F907C0F012161306E407F50798F077
:103B0000621B730B840B950B39F40A2661F0232B8F
:103B1000242B252B21F408950A2609F4A140A6950B
:103B20008FEF811D811D08950E94A71D0C94181E02
:103B30000E940A1E38F00E94111E20F0952311F0F9
:103B40000C94011E0C94071E11240C944C1E0E9410
:103B5000291E70F3959FC1F3950F50E0551F629F8A
:103B6000F001729FBB27F00DB11D639FAA27F00DD6
:103B7000B11DAA1F649F6627B00DA11D661F829FFD
:103B80002227B00DA11D621F739FB00DA11D621FE2
:103B9000839FA00D611D221F749F3327A00D611DFF
:103BA000231F849F600D211D822F762F6A2F1124E1
:103BB0009F5750409AF0F1F088234AF0EE0FFF1F14
:103BC000BB1F661F771F881F91505040A9F79E3F6B
:103BD000510580F00C94011E0C944C1E5F3FE4F3E1
:103BE000983ED4F3869577956795B795F795E795C1
:103BF0009F5FC1F7FE2B880F911D9695879597F9CA
:103C0000089597F99F6780E870E060E008959FEF5E
:103C100080EC089500240A94161617061806090663
:103C2000089500240A941216130614060506089532
:103C3000092E0394000C11F4882352F0BB0F40F4BA
:103C4000BF2B11F460FF04C06F5F7F4F8F4F9F4FFA
:103C5000089557FD9058440F551F59F05F3F71F07C
:103C60004795880F97FB991F61F09F3F79F08795E3
:103C70000895121613061406551FF2CF4695F1DF6C
:103C800008C0161617061806991FF1CF86957105FC
:103C9000610508940895E894BB2766277727CB0130
:103CA00097F90895DC01CB01FC01F999FECF06C01C
:103CB000F2BDE1BDF89A319600B40D9241505040EA
:103CC000B8F70895DC01CB0103C02D910E946D1E51
:103CD00041505040D0F70895262FF999FECF1FBAD2
:103CE00092BD81BD20BD0FB6F894FA9AF99A0FBE25
:103CF000019608955058BB27AA270E94921E0C9443
:103D0000181E0E940A1E38F00E94111E20F039F47D
:103D10009F3F19F426F40C94071E0EF4E095E7FB80
:103D20000C94011EE92F0E94291E58F3BA1762074E
:103D300073078407950720F079F4A6F50C944B1EC1
:103D40000EF4E0950B2EBA2FA02D0B01B9019001B6
:103D50000C01CA01A0011124FF27591B99F0593FFA
:103D600050F4503E68F11A16F040A22F232F342F42
:103D70004427585FF3CF469537952795A795F04090
:103D80005395C9F77EF41F16BA0B620B730B840BA5
:103D9000BAF09150A1F0FF0FBB1F661F771F881F5D
:103DA000C2F70EC0BA0F621F731F841F48F48795B5
:103DB00077956795B795F7959E3F08F0B0CF9395A7
:103DC000880F08F09927EE0F9795879508950E9420
:103DD000FB1E0C94181E0E94111E58F00E940A1E11
:103DE00040F029F45F3F29F00C94011E51110C940E
:103DF0004C1E0C94071E0E94291E68F39923B1F3F0
:103E0000552391F3951B550BBB27AA276217730700
:103E1000840738F09F5F5F4F220F331F441FAA1F94
:103E2000A9F335D00E2E3AF0E0E832D09150504050
:103E3000E695001CCAF72BD0FE2F29D0660F771FFE
:103E4000881FBB1F261737074807AB07B0E809F0E4
:103E5000BB0B802DBF01FF2793585F4F3AF09E3F69
:103E6000510578F00C94011E0C944C1E5F3FE4F356
:103E7000983ED4F3869577956795B795F7959F5FAC
:103E8000C9F7880F911D9695879597F90895E1E0F8
:103E9000660F771F881FBB1F621773078407BA0757
:103EA00020F0621B730B840BBA0BEE1F88F7E095B2
:103EB00008950E94311E88F09F5798F0B92F9927D6
:103EC000B751B0F0E1F0660F771F881F991F1AF005
:103ED000BA95C9F714C0B13091F00E944B1EB1E001
:103EE00008950C944B1E672F782F8827B85F39F000
:103EF000B93FCCF3869577956795B395D9F73EF49E
:103F000090958095709561957F4F8F4F9F4F089545
:103F10000E94701D08F48FEF08950E94701D880B99
:103F2000990B0895AA1BBB1B51E107C0AA1FBB1F19
:103F3000A617B70710F0A61BB70B881F991F5A9535
:103F4000A9F780959095BC01CD010895A1E21A2EA4
:103F5000AA1BBB1BFD010DC0AA1FBB1FEE1FFF1F2D
:103F6000A217B307E407F50720F0A21BB30BE40B7D
:103F7000F50B661F771F881F991F1A9469F76095C4
:103F80007095809590959B01AC01BD01CF0108957E
:103F9000052E97FB1EF400940E94DF1F57FD07D0EB
:103FA0000E94A61F07FC03D04EF40C94DF1F50950F
:103FB0004095309521953F4F4F4F5F4F0895909515
:103FC0008095709561957F4F8F4F9F4F0895EE0FAD
:103FD000FF1F881F8BBF0790F691E02D19940F9358
:103FE0001F93CF93DF938230910510F482E090E02D
:103FF000E0916D0AF0916E0A20E030E0A0E0B0E0C0
:10400000309719F140815181028113814817590776
:10401000C8F08417950769F4109731F012960C9345
:10402000129713961C9327C000936D0A10936E0A83
:1040300022C02115310519F04217530718F49A01CF
:10404000BD01EF01DF01F801DBCF21153105F9F0EA
:10405000281B390B2430310580F48A819B8161153E
:10406000710521F0FB019383828304C090936E0A53
:1040700080936D0AFE01329644C0FE01E20FF31FE9
:104080008193919322503109398328833AC020913A
:104090006B0A30916C0A232B41F420913602309147
:1040A000370230936C0A20936B0A209134023091CE
:1040B00035022115310541F42DB73EB74091380244
:1040C00050913902241B350BE0916B0AF0916C0A78
:1040D000E217F307A0F42E1B3F0B2817390778F0DF
:1040E000AC014E5F5F4F2417350748F04E0F5F1F3E
:1040F00050936C0A40936B0A8193919302C0E0E065
:10410000F0E0CF01DF91CF911F910F910895CF93F0
:10411000DF93009709F481C0FC0132971382128269
:10412000A0916D0AB0916E0A109781F420813181BF
:10413000820F931F20916B0A30916C0A2817390760
:1041400051F5F0936C0AE0936B0A67C0ED0120E033
:1041500030E0CE17DF0740F44A815B819E014115B4
:104160005105F1F0EA01F5CFD383C283408151813B
:10417000840F951FC817D90759F488819981840F36
:10418000951F0296918380838A819B81938382838A
:104190002115310529F4F0936E0AE0936D0A3DC0B4
:1041A000E901FB83EA8349915991C40FD51FEC17AC
:1041B000FD0761F480819181840F951F0296E901CA
:1041C00099838883828193819B838A83E0E0F0E0F6
:1041D00012968D919C911397009719F0FD01DC01C7
:1041E000F7CF8D919C9111979D012E5F3F4F820FCC
:1041F000931F20916B0A30916C0A2817390769F4D4
:10420000309729F410926E0A10926D0A02C0138240
:104210001282B0936C0AA0936B0ADF91CF9108953C
:104220006F927F928F929F92AF92BF92CF92DF92C6
:10423000EF92FF920F931F93CF93DF93009789F430
:10424000CB01DF91CF911F910F91FF90EF90DF9005
:10425000CF90BF90AF909F908F907F906F900C9475
:10426000EF1FFC01E60FF71F9C0122503109E217F6
:10427000F30708F4A9C0EC01D9010D911C91119725
:1042800006171707B0F00530110508F49BC0C801E8
:1042900004978617970708F495C002501109061B6A
:1042A000170B019311936D937C93CF010E9487208C
:1042B00089C05B01A01AB10A4C01800E911EA09129
:1042C0006D0AB0916E0A612C712CE12CF12C1097C3
:1042D00009F446C08D919C911197A815B905B1F5C7
:1042E0006C0142E0C40ED11CCA14DB0478F14C010D
:1042F0008A189B08640142E0C40ED11C1296BC903F
:1043000012971396AC91B5E0CB16D10440F0B2826F
:10431000A38391828082D9016D937C9309C00E5F43
:104320001F4F800F911FF90191838083EB2DFA2F8E
:10433000E114F10431F0D7011396FC93EE93129738
:1043400041C0F0936E0AE0936D0A3CC0681679068E
:1043500008F43C017D0112960D90BC91A02DB7CFC1
:1043600080916B0A90916C0A88169906E1F46616A2
:104370007706C8F48091340290913502009741F499
:104380008DB79EB74091380250913902841B950B2E
:10439000E817F907C8F4F0936C0AE0936B0AF90187
:1043A000718360830FC0CB010E94EF1F7C010097D7
:1043B00059F0A801BE010E94FA21CE010E94872077
:1043C000C70104C0CE0102C080E090E0DF91CF9130
:1043D0001F910F91FF90EF90DF90CF90BF90AF9023
:1043E0009F908F907F906F90089581E090E0F89477
:1043F0000C940A22FB01DC0102C001900D92415095
:104400005040D8F70895FB01DC0101900D92002087
:10441000E1F7089511E0C6EBD1E000E006C0802F7F
:10442000FE010E94E71F2196011DC73BD10780E0D6
:084430000807A9F7F894FFCF7B
:104438000101010174096809C00890089C085C0919
:1044480050094409B408A80838092C09E4080809DF
:1044580020091409FC08F008D808CC08000001005D
:10446800FFFFFFFF00006F0A8000000000009102BC
:10447800EA011402DE0245022302370200000000AE
:104488004C07EA013409330970616765203100453A
:10449800584954205345545550000D0A00286E754C
:1044A8006C6C29005D00636C69636B206274302C4E
:1044B8003100636C69636B206274312C3100743491
:1044C8002E7478743D00220042414E44204C4545EC
:1044D80052210050415553453A200074302E7478CB
:1044E800743D00636C69636B206274352C31006322
:1044F8006C69636B206274342C3100636C69636B84
:10450800206274332C3100636C69636B2062352C34
:1045180000636C69636B2062342C00636C69636BA5
:104528002062362C00636C69636B2062332C006355
:104538006C69636B206274362C3100206D73006ED9
:10454800616E00696E66006F7666002062617200B7
:104558007431302E7478743D007431322E7478744E
:104568003D005B003A0068312E76616C3D00743680
:104578002E7478743D00204E0074382E7478743D83
:104588000031204155465745434B454E0032205691
:104598004F52534348494542454E00332053434800
:1045A8004E454944454E003420464553544B4C45EE
:1045B8004D4D454E0035204B5241465441554642DB
:1045C80041550036205350414E4E454E003720533A
:1045D80043485745495353454E00382041424B55AF
:1045E800454C48454E003920454E545350414E4E97
:1045F800454E00313020454E544B4C454D4D454EAF
:10460800003131205A55525545434B464148524591
:104618004E00313220504155534500706167653076
:1046280000706167653100623100623200623000FB
:104638006274300062743100627435006274340050
:1046480062743300623500623400623600623300FF
:1046580062743600706167653200706167653300A7
:0446680073300000AB
:00000001FF
