:100000000C949F010C94D0010C94D0010C94D0015D
:100010000C94D0010C94D0010C94D0010C94D0011C
:100020000C94D0010C94D4030C94D4030C94D403FA
:100030000C94D0010C94D0010C94D0010C94D001FC
:100040000C94D0010C94D0010C94D0010C94D001EC
:100050000C94D0010C94D0010C94D0010C9420107D
:100060000C94D0010C94BC080C9492080C94D00110
:100070000C94D0010C94D0010C94D0010C94D001BC
:100080000C94D0010C94D0010C94D0010C94D001AC
:100090000C94D0010C94D0010C94D0010C94D0019C
:1000A0000C94D0010C94D0010C94D0010C94D0018C
:1000B0000C94D0010C94D0010C94D0010C94D0017C
:1000C0000C94D0010C94D0010C94D0010C946808CD
:1000D0000C943E080C94D0010C9414080C94EA077C
:1000E0000C94D0010C0C0F0CFE0B020C080C460CEF
:1000F000130C170C1D0C210C250C2B0C2F0C330C86
:10010000460C390C3D0C410C0C9465020C942B0CE4
:100110000C941D040C943E020C9466030C94A804E9
:100120000C94170C0C94130C0C94E1040C94220402
:100130000C9442030C94FE0B0C9456020C943D0C50
:100140000C9413040C943B020C94341A0C94390C48
:100150000C9403050C94FE020C942F0C0C94D60105
:100160000C94C2020C94210C0C94921A0C94E2028E
:100170000C94F5010C9414020C9422030C948C0240
:100180000C9409040C9427040C94F5040C941804A2
:100190000C9481020C944F050C940E040C943602BE
:1001A0000C94AA030C940A0A0C940C0C0C942C04C6
:1001B0000C94D3010C949C050C94410C0C94250CCC
:1001C0000C94080C0C94020C0C94330C0C949A04B0
:1001D0000C9447020C94460C0C94AD020C941D0C2C
:1001E0000C94D2040C9497020C9486030C94D201C4
:1001F0000C940F0C0C94A202000021002400270094
:100200002A002D0030003300010100000401070125
:100210000A0100002200250028002B002E003100DA
:10022000340002010000050108010B01000020005C
:100230002300260029002C002F00320000010000BE
:100240000301060109010505050507050808080859
:10025000020202020A0A080804040404010101015E
:100260000101010103030303030303030407070759
:100270000C0C0C0C0C0C0C0C0202020206060606FE
:10028000060606060B0B0B0B0B0B0B0B0A050A0ADB
:10029000050A0A0404040A0102102020080810209C
:1002A0004010204080020102010804020101020402
:1002B00008102040808040201008040201800402C1
:1002C0000180402010080402010804020101020418
:1002D00008102040800102040810204080084004DB
:1002E000808040201020401000000A0B02090C0DF5
:1002F0000E080703040100000000000000000000D9
:1003000000000000000000000000000000000000ED
:1003100000000000121110000000000000000000AA
:1003200000000000000000000000000000000000CD
:1003300000000000000000000000921A341A11248E
:100340001FBECFEFD1E2DEBFCDBF00E00CBF2BE080
:10035000A6EAB4E001C01D92AB31B207E1F714E0A8
:10036000A0E0B2E0E8E2F8E400E00BBF02C00790D2
:100370000D92A63AB107D9F711E0CEE9D1E000E03D
:1003800006C021970109802FFE010E94DF21CD398F
:10039000D10780E00807A9F70E946A100C94022494
:1003A0000C940000089580E090E0089583E090E0D0
:1003B0009093D1048093D0041092AE041092AF04B5
:1003C0001092B0041092B1041092AA041092AB04DF
:1003D0001092AC041092AD041092A6041092A704DF
:1003E0001092A8041092A904089582E090E09093DE
:1003F000D1048093D0041092C4041092C3041092CC
:10040000B7041092B8041092B9041092BA04109272
:10041000BB041092BC041092BD041092BE04109252
:10042000C2041092C104089581E090E09093D10439
:100430008093D0041092CD04809301021092CC04DA
:100440008093CB041092CA041092C9041092C8047D
:100450001092C7041092C6041092CF049091CE045B
:100460008927809300021092C50408951092D10448
:100470001092D00408951092B604089581E090E09F
:1004800090933A02809339028093020208958091FA
:10049000390290913A028B3091053CF40196909389
:1004A0003A02809339021092D30408958091390260
:1004B00090913A02823091053CF0019790933A0274
:1004C000809339021092D30408958091D30491E06F
:1004D00089278093D30481119093D2049091CF0403
:1004E00081E089278093CF040895FC01948181E005
:1004F000692F6827648380858111692F86810C9418
:100500006F0F8CEB9AE00E9475029091C50481E018
:1005100089278093C504089581EA9AE00E947502B4
:100520009091CA0481E089278093CA04089583EBDF
:100530009AE00E9475029091CB0481E08927809314
:10054000CB0408958AEA9AE00E9475029091CC0447
:1005500081E089278093CC04089540E050E0BA01FF
:1005600081E090E00E946C0C0E9414106093B20431
:100570007093B3048093B4049093B50481E08093A6
:10058000B604089580E090E00E94620DAB01BC01CA
:100590004C595F4F6F4F7F4F80E090E00E946C0C92
:1005A00080E090E00E94620D69357B4181059105F4
:1005B00044F048E55BE160E070E080E090E00C949E
:1005C0006C0C089580E090E00E94620DAB01BC01CC
:1005D000445651096109710980E090E00E946C0C59
:1005E00080E090E00E94620D97FF07C040E050E07D
:1005F000BA0180E090E00C946C0C089580E793E0E1
:100600000E94950D85E090E00E94620DAB01BC0157
:100610004F5F5F4F6F4F7F4F85E090E00E946C0C03
:1006200085E090E00E94620D6531710581059105BC
:1006300044F044E150E060E070E085E090E00C942C
:100640006C0C08958EE793E00E94950D85E090E094
:100650000E94620DAB01BC01415051096109710951
:1006600085E090E00E946C0C85E090E00E94620DB5
:1006700097FF07C040E050E0BA0185E090E00C949D
:100680006C0C08958CE893E00E94950D84E090E056
:100690000E94620DAB01BC01465F5F4F6F4F7F4F01
:1006A00084E090E00E946C0C84E090E00E94620D77
:1006B000693572408105910544F048E552E060E0FB
:1006C00070E084E090E00C946C0C08958AE993E06B
:1006D0000E94950D84E090E00E94620DAB01BC0188
:1006E0004A5051096109710984E090E00E946C0C44
:1006F00084E090E00E94620D97FF07C040E050E068
:10070000BA0184E090E00C946C0C089588EA93E0C0
:100710000E94950D83E090E00E94620DAB01BC0148
:100720004F5F5F4F6F4F7F4F83E090E00E946C0CF4
:1007300083E090E00E94620D6B30710581059105A8
:1007400044F04AE050E060E070E083E090E00C9418
:100750006C0C089586EB93E00E94950D83E090E089
:100760000E94620DAB01BC01415051096109710940
:1007700083E090E00E946C0C83E090E00E94620DA8
:1007800097FF07C040E050E0BA0183E090E00C948E
:100790006C0C08958EBD00000DB407FEFDCF8EB524
:1007A00008958FEF0C94CA031F920F920FB60F9209
:1007B00011240F900FBE0F901F901895CF93DF93C9
:1007C000EC018885811107C08E810E94460F21E0CF
:1007D000892B41F406C08E810E94460F21E0892BAF
:1007E00009F020E02C838C81DF91CF9108951F9335
:1007F000CF93DF93EC01162F8885882311F061E0F9
:1008000061278E810E946F0F1C83DF91CF911F9112
:10081000089560E086E89AE00C94F70361E086E8CA
:100820009AE00C94F70360E08DE79AE00C94F703EC
:1008300061E08DE79AE00C94F70360E08FE89AE0BE
:100840000C94F70361E08FE89AE00C94F70360E002
:1008500088E99AE00C94F70361E088E99AE00C9447
:10086000F7038F929F92AF92BF92EF92FF920F93F6
:100870001F93CF93DF93EC017B018A018D81882345
:1008800091F08885811102C061E001C060E08E8135
:100890000E946F0F81E08C830E941410688379831B
:1008A0008A839B831D820E94141088809980AA806D
:1008B000BB80DC01CB0188199909AA09BB09470152
:1008C000A12CB12C88169906AA06BB0610F58885BE
:1008D000811102C060E001C061E08E810E946F0F53
:1008E0001C820E94141088809980AA80BB80DC0141
:1008F000CB0188199909AA09BB09A701400F511F0B
:1009000060E070E0481759076A077B0710F481E040
:100910008D83DF91CF911F910F91FF90EF90BF904A
:10092000AF909F908F9008950E94A80D0E94A80DEF
:100930000C94A80D9091020281E089278093020215
:100940006EE872E082EA97E00E94AD0D0C94940488
:10095000CF92DF92EF92FF920F931F93CF93DF938B
:100960006C017A018B01C0E0D0E0CE15DF0581F08B
:10097000D8016D918D01D601ED91FC910190F0812E
:10098000E02DC6011995892B11F02196EECF7E013D
:10099000C701DF91CF911F910F91FF90EF90DF90F2
:1009A000CF900895FC01538D448D252F30E0842F86
:1009B00090E0821B930B541710F0CF960895019787
:1009C0000895FC01918D828D981761F0828DDF0171
:1009D000A80FB11D5D968C91928D9F5F9F73928F32
:1009E00090E008958FEF9FEF0895FC01918D828D27
:1009F000981731F0828DE80FF11D858D90E00895F4
:100A00008FEF9FEF0895FC01918D228D892F90E04B
:100A1000805C9F4F821B91098F739927089585E011
:100A200097E00E94030521E0892B09F420E0822F42
:100A3000089582EA97E00E94030521E0892B09F4DA
:100A400020E0822F08958FE398E00E94030521E0C3
:100A5000892B09F420E0822F0895FC01848DDF01A9
:100A6000A80FB11DA35ABF4F2C91848D90E0019621
:100A70008F739927848FA689B7892C93A089B18910
:100A80008C91837080648C93938D848D981306C0B1
:100A90000288F389E02D80818F7D80830895EF9215
:100AA000FF920F931F93CF93DF93EC0181E0888F28
:100AB0009B8D8C8D981305C0E889F989808185FD0F
:100AC00026C0F62E0B8D10E00F5F1F4F0F731127FE
:100AD000E02E8C8DE8120CC00FB607FCFACFE88927
:100AE000F989808185FFF5CFCE010E942D05F1CFD8
:100AF0008B8DFE01E80FF11DE35AFF4FF0829FB787
:100B0000F8940B8FEA89FB89808180620AC09FB7C5
:100B1000F894EE89FF896083E889F9898081837080
:100B2000806480839FBF81E090E0DF91CF911F912F
:100B30000F91FF90EF900895CF93DF93EC01888D94
:100B40008823C9F0EA89FB89808185FD05C0A889D1
:100B5000B9898C9186FD0FC00FB607FCF5CF808157
:100B600085FFF2CFA889B9898C9185FFEDCFCE01A1
:100B70000E942D05E7CFDF91CF91089580E090E0AE
:100B8000892B21F00E94230581111DC080E090E097
:100B9000892B41F080E090E0892B21F00E94000039
:100BA000811114C080E090E0892B21F00E9419058A
:100BB00081110FC080E090E0892B81F00E940F0529
:100BC00081110AC008950E940000E0CF0E94000039
:100BD000E9CF0E940000EECF0C94000008950E941F
:100BE000ED230F931F93CF93DF93EB010E9414101B
:100BF0008B010E94D1038F3F49F00E941410601BAB
:100C0000710B6C177D07A8F380E001C081E0DF91D4
:100C1000CF911F910F91089561E0FC0184810E94A2
:100C20006F0F8091FF0481111092FF040895CF93FC
:100C3000DF93EC018E81882389F08F8198859C0158
:100C40002F5F3F4F38872F838230924018F40E94E5
:100C5000D103F3CFCE010E940C061E82DF91CF910B
:100C600008958F929F92AF92BF92FF920F931F931E
:100C7000CF93DF93EC01F62E49015A010E9417062B
:100C80008091FF04811109C081E08093FF0490915D
:100C9000DC088091DD089CBD8DBD60E08C810E94E8
:100CA0006F0F6CE271E0CE010E94F1058F2D806420
:100CB0000E94CA0308E110E0D501C401002E04C05F
:100CC000B695A795979587950A94D2F70E94CA037F
:100CD00008501109083F8FEF180771F7FF2029F01E
:100CE00088E0F81204C087E803C085E901C08FEFEF
:100CF0000E94CA0310E00E94D1038A8787FF04C0C4
:100D00001F3F11F01F5FF7CFDF91CF911F910F9120
:100D1000FF90BF90AF909F908F900895EF92FF92B9
:100D20000F931F93CF93DF93EC0179014115510588
:100D30006105710511F482E13CC08B85833039F087
:100D400089E0440F551F661F771F8A95D1F79A01D6
:100D5000AB0168E1CE010E943106882311F084E0E6
:100D600028C08EEF0E94CA0387018EEFF81AF8019F
:100D700081918F010E94CA03E016F106C1F78FEF3F
:100D80000E94CA038FEF0E94CA030E94D1038A8780
:100D90008F71853031F081E18D83CE010E940C0688
:100DA00009C068E572E0CE010E94F105811107C01B
:100DB00085E18D83CE010E940C0680E014C020E006
:100DC00030E0A9016DE0CE010E943106811109C019
:100DD0000E94D103811105C0CE010E940C0681E062
:100DE00002C084E1E6CFDF91CF911F910F91FF9078
:100DF000EF90089580910005882389F140913B028E
:100E000050913C0260913D0270913E0225E035E038
:100E100080E090E00E948E06811102C080E008957B
:100E20004091010550910205609103057091040500
:100E3000411551056105710581F025E035E080E03F
:100E400090E00E948E06882349F3109201051092CB
:100E5000020510920305109204051092000581E02E
:100E60000895AF92BF92CF92DF92EF92FF921F93BD
:100E7000CF93DF936B017C01142F80913B02909103
:100E80003C02A0913D02B0913E028C159D05AE053D
:100E9000BF0509F48FC00E94FA06882309F490C0A8
:100EA000809106008823A1F08091000090910100BC
:100EB000A0910200B0910300C816D906EA06FB060D
:100EC00039F48091070090910800892B09F443C000
:100ED000C0920000D0920100E0920200F092030064
:100EE00080910B00A7019601833039F099E0220F21
:100EF000331F441F551F9A95D1F761E180E090E0C0
:100F00000E943106882321F083E08093050044C0CD
:100F10000E941410EB010E94D10380930A008F3FBE
:100F200049F40E9414106C1B7D0B6D32714098F3D4
:100F30008FE003C08E3F41F08DE08093050080E09C
:100F400090E00E940C0628C0109208001092070042
:100F500081E080930600C5E0D5E085E0A82E87E01B
:100F6000B82E0E94D1038993AC16BD06D1F78091AB
:100F70000700909108009E5F9093080080930700FF
:100F800020910900222319F08115924058F080E049
:100F900090E00E94170606C080E090E00E940C06D8
:100FA00080E00EC0C0923B02D0923C02E0923D0233
:100FB000F0923E0240910005412B4093000581E0F4
:100FC000DF91CF911F91FF90EF90DF90CF90BF9076
:100FD000AF9008951F920F920FB60F9211240BB687
:100FE0000F922F933F934F935F936F937F938F93C2
:100FF0009F93AF93BF93EF93FF9385E097E00E9499
:101000002D05FF91EF91BF91AF919F918F917F91AE
:101010006F915F914F913F912F910F900BBE0F9069
:101020000FBE0F901F9018951F920F920FB60F9240
:1010300011240BB60F922F933F934F935F936F93AF
:101040007F938F939F93AF93BF93EF93FF9385E02D
:1010500097E00E942D0FFF91EF91BF91AF919F916B
:101060008F917F916F915F914F913F912F910F9051
:101070000BBE0F900FBE0F901F9018951F920F92EE
:101080000FB60F9211240BB60F922F933F934F93ED
:101090005F936F937F938F939F93AF93BF93EF93E0
:1010A000FF9382EA97E00E942D05FF91EF91BF9197
:1010B000AF919F918F917F916F915F914F913F91F0
:1010C0002F910F900BBE0F900FBE0F901F90189591
:1010D0001F920F920FB60F9211240BB60F922F93FF
:1010E0003F934F935F936F937F938F939F93AF93B0
:1010F000BF93EF93FF9382EA97E00E942D0FFF9139
:10110000EF91BF91AF919F918F917F916F915F917F
:101110004F913F912F910F900BBE0F900FBE0F90EC
:101120001F9018951F920F920FB60F9211240BB6B5
:101130000F922F933F934F935F936F937F938F9370
:101140009F93AF93BF93EF93FF938FE398E00E9439
:101150002D05FF91EF91BF91AF919F918F917F915D
:101160006F915F914F913F912F910F900BBE0F9018
:101170000FBE0F901F9018951F920F920FB60F92EF
:1011800011240BB60F922F933F934F935F936F935E
:101190007F938F939F93AF93BF93EF93FF938FE3CF
:1011A00098E00E942D0FFF91EF91BF91AF919F9119
:1011B0008F917F916F915F914F913F912F910F9000
:1011C0000BBE0F900FBE0F901F9018954F925F921D
:1011D0006F927F928F929F92AF92BF92CF92DF9247
:1011E000EF92FF920F931F93CF93DF93EC01423066
:1011F00051056105710510F480E078C089859A85F4
:10120000AB85BC850196A11DB11D84179507A60766
:10121000B70790F3CB88DC88ED88FE888F89803112
:1012200029F4BB27A72F962F852F09C0DB01CA0100
:10123000E7E0B695A79597958795EA95D1F7480188
:1012400059012A013B01C80ED91EEA1EFB1E8091DE
:101250003B0290913C02A0913D02B0913E02C81623
:10126000D906EA06FB0681F48F898031A9F4B3011F
:10127000A201552766277727440F551FFA01EB5F18
:10128000FA4F9182808219C040E0C701B6010E94E6
:1012900031078111E9CFB0CFB301A2014F775527B4
:1012A00066277727440F551F440F551FFA01EB5F40
:1012B000FA4F80829182A282B38280910005816080
:1012C000809300058A89823080F08D819E81AF8174
:1012D000B885C80ED91EEA1EFB1EC0920105D09229
:1012E0000205E0920305F092040581E0DF91CF91C1
:1012F0001F910F91FF90EF90DF90CF90BF90AF9034
:101300009F908F907F906F905F904F9008958F92F5
:101310009F92AF92BF92CF92DF92EF92FF920F9384
:101320001F93CF93DF93FC0181859285A385B485BC
:101330000196A11DB11D84179507A607B70710F4E4
:1013400080E05BC083889488A588B68887898031CF
:1013500029F4BB27A72F962F852F09C0DB01CA01CF
:10136000C7E0B695A79597958795CA95D1F7E901F6
:101370006A017B018F01BC01CD01680D791D8A1DB9
:101380009B1D80903B0290903C02A0903D02B0904B
:101390003E02681579058A059B0591F4F801878955
:1013A0008031A1F4DD24EE24FF24C601880F991FAB
:1013B000FC01EB5FFA4F80819181A0E0B0E018C0A2
:1013C00040E00E9431078111E9CFBACFE894C7F815
:1013D000DD24EE24FF24C601880F991F880F991F72
:1013E000FC01EB5FFA4F80819181A281B381BF70D4
:1013F00088839983AA83BB8381E0DF91CF911F917A
:101400000F91FF90EF90DF90CF90BF90AF909F90A3
:101410008F9008954F925F926F927F92AF92BF929A
:10142000CF92DF92EF92FF920F931F93CF93DF93B0
:1014300000D01F921F92CDB7DEB78C016D83DC0107
:1014400015968C911597813009F054C014968C91A3
:1014500081FF50C057C0258530E0275F3F4F2A01EC
:101460003B01B1E04B1A510861087108022E04C01B
:1014700076946794579447940A94D2F7D701C6019B
:101480000197A109B10904C0B695A79597958795CD
:101490002A95D2F784159505A605B70508F076C0FC
:1014A000F8014789508D618D728D4683578360871F
:1014B00071872C013D015801F6E0AF0EB11C4114BB
:1014C00051046104710409F46BC0D80116964D9162
:1014D0005D916D917C91199795015B968D919C9191
:1014E0005C970E948709B1E04B1A510861087108A6
:1014F0008111E5CF81E090E0F8019383828380E061
:1015000090E05BC182FF0EC0F8014285538564857F
:101510007585C388D488E588F6884C155D056E0509
:101520007F05E9F4D8011A964D915D916D917C91FA
:101530001D975B96ED91FC915C97948191506A01A7
:101540007B0189E0F694E794D794C7948A95D1F704
:101550009C217A01B1E0FB22911173C027C0D80110
:10156000038CF48DE02DC114D104E104F10409F0E1
:1015700072CF16961D921D921D921C9219971A9663
:101580001D921D921D921C921D9714C0452B462B37
:10159000472B09F485CF84199509A609B70989CF86
:1015A000F801C286D386E486F586BCCFE114F10447
:1015B00009F047C0D80116964D915D916D917C91CF
:1015C0001997411551056105710559F457968D918B
:1015D0009D910D90BC91A02D0097A105B10549F5F5
:1015E00022C09E012F5F3F4FCF010E9487098823B1
:1015F00009F485CF89819A81AB81BC81F801238D63
:10160000348DF9012789203129F448EF5FEF60E03C
:1016100070E004C048EF5FEF6FEF7FE0841795073D
:10162000A607B70730F0C8010E942A0E811106C034
:1016300061CFF80186839783A087B187E12CF12CD5
:1016400090E0D8015B96ED91FC915C9716964D90D9
:101650005D906D907C901997B2E04B1A510861082B
:101660007108058404C0440C551C661C771C0A9440
:10167000D2F74685578560897189440E551E661ECE
:10168000771E490E511C611C711CE114F10409F50F
:10169000F801428553856485758583899489A58978
:1016A000B689481759076A077B0798F00E94FA061F
:1016B000882309F41FCF40923B0250923C02609273
:1016C0003D0270923E02809100058160809300058A
:1016D00008C041E0C301B2010E943107882309F428
:1016E00009CFF701EB5FFA4F8D818083F801828586
:1016F0009385A485B5850196A11DB11D8287938729
:10170000A487B5874389548965897689481759071D
:101710006A077B0738F4838B948BA58BB68B848107
:1017200080688483D80114968C9183FD03C081E086
:1017300090E043C0F8019581992309F4DBCE87FF3F
:1017400037C0668577858089918941E00E9431079D
:10175000882309F4CFCED8015296EC91B0E2EB9FEA
:10176000F0011124EB5FFA4F309709F4C3CED80192
:1017700015968C911597823050F453964D915D914A
:101780006D917C915697448F558F668F778FD801D6
:1017900057964D915D916D917C915A97538F428FE1
:1017A000758B648B14968C9114978F7714968C9309
:1017B0000E94FA068111BBCF9DCE0F900F900F9023
:1017C0000F900F90DF91CF911F910F91FF90EF90AD
:1017D000DF90CF90BF90AF907F906F905F904F90D1
:1017E000089590E0FC013197E231F10508F04EC018
:1017F0008827EE58FF4F8F4F0C94DF218091800097
:101800008F7703C0809180008F7D80938000089542
:1018100080918000877FF9CF84B58F7702C084B52F
:101820008F7D84BD08958091B0008F7703C0809133
:10183000B0008F7D8093B0000895809190008F77E5
:1018400007C0809190008F7D03C080919000877FBA
:101850008093900008958091A0008F7707C08091B9
:10186000A0008F7D03C08091A000877F8093A0009F
:101870000895809120018F7707C0809120018F7D8E
:1018800003C080912001877F8093200108953FB796
:10189000F8948091130B9091140BA091150BB091BB
:1018A000160B26B5A89B05C02F3F19F00196A11D68
:1018B000B11D3FBFBA2FA92F982F8827820F911DE6
:1018C000A11DB11DBC01CD0142E0660F771F881F2D
:1018D000991F4A95D1F70895AF92BF92CF92DF92A8
:1018E000EF92FF920F931F93CF93DF93CDB7DEB7A5
:1018F00028970FB6F894DEBF0FBECDBF6A017B01FB
:1019000000915E0A10915F0A0C5F1F4F880F991FAC
:10191000880F991F080F191F44E050E0B801CE014D
:1019200001960E944A2089819A81AB81BC81C816A8
:10193000D906EA06FB0609F4B4C0CD82DE82EF8246
:10194000F88644E050E0B801CE0105960E945A2086
:101950008091660A9091670AA091680AB091690A1D
:101960000196A11DB11D8093660A9093670AA0930A
:10197000680AB093690A81319742A105B1050CF458
:101980006AC00091640A1091650A0F5F1F4F000F33
:10199000111F000F111F80915E0A90915F0A080FBE
:1019A000191F8091600A9091610A8017910714F4C1
:1019B00002E010E05801E12CF12CC12CD12C84E084
:1019C000A80EB11C8091640A9091650AC816D906C8
:1019D000E4F460915E0A70915F0A6C5F7F4F6E0D58
:1019E0007F1D44E050E0CE0101960E944A2044E071
:1019F00050E0B501CE0101960E945A202FEFC21A85
:101A0000D20A84E0E80EF11CDACF10935F0A00934B
:101A10005E0A1A83098342E050E060E070E0CE0184
:101A200001960E945A201092660A1092670A10923C
:101A3000680A1092690A1A82198260915E0A70918E
:101A40005F0A42E050E0CE0101960E945A201092B7
:101A5000630A1092620A8091620A9091630A019669
:101A60009093630A8093620A883E9340D4F08091F9
:101A7000660A9091670AA091680AB091690A898301
:101A80009A83AB83BC8360915E0A70915F0A44E0E5
:101A900050E0CE0101960E945A201092630A1092E3
:101AA000620A28960FB6F894DEBF0FBECDBFDF9155
:101AB000CF911F910F91FF90EF90DF90CF90BF904B
:101AC000AF900895CF93DF9300D01F92CDB7DEB7CC
:101AD00060915E0A70915F0A6C5F7F4F880F991F5B
:101AE000880F991F680F791F44E050E0CE010196DE
:101AF0000E944A2069817A818B819C810F900F908E
:101B00000F900F90DF91CF9108956115710551F0FD
:101B1000FB0101900020E9F73197AF01461B570BFD
:101B20000C94A80480E090E00895CF93DF93BC016B
:101B30008FE398E00E94850DEC0163EA74E08FE387
:101B400098E00E94850D8C0F9D1FDF91CF91089525
:101B50006FEF82EA97E00C944F050C94850D8F92FD
:101B60009F92AF92BF92EF92FF920F931F93CF93EA
:101B7000DF93CDB7DEB7A1970FB6F894DEBF0FBEE7
:101B8000CDBF7C01FA01CB0119A2223008F42AE072
:101B90008E010F5D1F4F822E912CA12CB12CBF0105
:101BA000A50194010E949E21F901CA010150110969
:101BB0006A3014F4605D01C0695CD8016C93232B1A
:101BC000242B252B61F7B801C7010E94850DA19632
:101BD0000FB6F894DEBF0FBECDBFDF91CF911F913E
:101BE0000F91FF90EF90BF90AF909F908F900895CE
:101BF000CF92DF92EF92FF92CF93DF93AB01BC01C4
:101C000077FF1DC06A017B016DE282EA97E00E94C6
:101C10004F05EC0144275527BA014C195D096E099F
:101C20007F092AE082EA97E00E94AF0D8C0F9D1F8A
:101C3000DF91CF91FF90EF90DF90CF9008952AE051
:101C400082EA97E0DF91CF91FF90EF90DF90CF9005
:101C50000C94AF0D3F924F925F926F927F928F9252
:101C60009F92AF92BF92CF92DF92EF92FF920F932B
:101C70001F93CF93DF93CDB7DEB72C970FB6F894B1
:101C8000DEBF0FBECDBF5C01DC015B968D909C90EA
:101C90005C971696CD90DD90ED90FC901997C1144D
:101CA000D104E104F10439F0BFEFCB1ADB0AEB0AEF
:101CB000FB0A312C07C0F401C080D180E280F380A0
:101CC00033243394F40181859285A385B4859C01E6
:101CD000AD012F5F3F4F4F4F5F4F29873A874B87AB
:101CE0005C87260137011D821E821F821886F4013F
:101CF00081859285A385B4852D813E814F8158854C
:101D0000281739074A075B0708F063C089859A8559
:101D1000AB85BC858C159D05AE05BF0550F482E0F2
:101D2000C82ED12CE12CF12C92E0492E512C612CA3
:101D3000712C9E012F5F3F4FB701A601C4010E9485
:101D40008709882309F445C089819A81AB81BC81C8
:101D5000892B8A2B8B2B41F0260137019FEF491AE3
:101D6000590A690A790A05C0C414D504E604F704BF
:101D700091F02D813E814F8158852F5F3F4F4F4F0E
:101D80005F4F2D833E834F8358873FEFC31AD30A9B
:101D9000E30AF30AACCF0FEF1FEF2FEF3FE0B301E1
:101DA000A201C4010E94E608882399F0D501169685
:101DB0004D915D916D917C9119974115510561058A
:101DC000710549F093018201C4010E94E608811166
:101DD00002C080E02AC0D50116964D925D926D92A8
:101DE0007C921997332051F0D301C2010196A11DB5
:101DF000B11DF40180839183A283B383F5018789A8
:101E0000908DA18DB28D892B8A2B8B2B69F4D501F6
:101E100057964D925D926D927C925A9714968C9142
:101E20001497806814968C9381E02C960FB6F894E2
:101E3000DEBF0FBECDBFDF91CF911F910F91FF90FD
:101E4000EF90DF90CF90BF90AF909F908F907F905A
:101E50006F905F904F903F900895FC01A089B189E9
:101E60008C91A689B78982FD0FC09C91818D8F5F6F
:101E70008F73228D821749F0218DDF01A20FB11DD2
:101E80005D969C93818F08958C910895CF93DF93F5
:101E9000282F30E0F901E851FD4F8491F901E9560E
:101EA000FD4FD491F901EA5BFD4FC491CC2391F031
:101EB00081110E94F10BEC2FF0E0EE0FFF1FE45DAB
:101EC000FD4FA591B491EC91ED2381E090E021F4D8
:101ED00080E002C080E090E0DF91CF9108951F93F1
:101EE000CF93DF93282F30E0F901E851FD4F849123
:101EF000F901E956FD4FD491F901EA5BFD4FC49118
:101F0000CC23C1F0162F81110E94F10BEC2FF0E0D1
:101F1000EE0FFF1FEE5EFD4FA591B4919FB7F894B1
:101F2000111104C08C91D095D82302C0EC91DE2B06
:101F3000DC939FBFDF91CF911F910895CF93DF93E3
:101F400090E0FC01E956FD4F2491FC01EA5BFD4F56
:101F50008491882361F190E0880F991FFC01E8507B
:101F6000FE4FC591D491FC01EE5EFD4FA591B49159
:101F7000611109C09FB7F8948881209582238883D6
:101F8000EC912E230BC0623061F49FB7F8948881E6
:101F9000322F309583238883EC912E2B2C939FBF77
:101FA00006C08FB7F894E8812E2B28838FBFDF916E
:101FB000CF9108958F929F92AF92BF92CF92DF926E
:101FC000EF92FF926B017C010E94470C4B015C0178
:101FD000C114D104E104F104F1F00E94470CDC01CA
:101FE000CB0188199909AA09BB09883E9340A1052C
:101FF000B10570F321E0C21AD108E108F10888EEBA
:10200000880E83E0981EA11CB11CC114D104E10408
:10201000F10419F7DDCFFF90EF90DF90CF90BF90E4
:10202000AF909F908F9008952FB7F89460910F0B09
:102030007091100B8091110B9091120B2FBF08958E
:102040001F920F920FB60F9211242F933F938F93ED
:102050009F93AF93BF9380910F0B9091100BA09122
:10206000110BB091120B30910E0B23E0230F2D3783
:1020700020F40196A11DB11D05C026E8230F02968C
:10208000A11DB11D20930E0B80930F0B9093100B8D
:10209000A093110BB093120B8091130B9091140B22
:1020A000A091150BB091160B0196A11DB11D809347
:1020B000130B9093140BA093150BB093160BBF91B9
:1020C000AF919F918F913F912F910F900FBE0F90E5
:1020D0001F901895789484B5826084BD84B5816022
:1020E00084BD85B5826085BD85B5816085BD8091E3
:1020F0006E00816080936E0010928100809181005B
:102100008260809381008091810081608093810052
:10211000809180008160809380008091B100846014
:102120008093B1008091B00081608093B000809175
:1021300091008260809391008091910081608093F2
:102140009100809190008160809390008091A10027
:1021500082608093A1008091A10081608093A100A2
:102160008091A00081608093A00080912101826015
:1021700080932101809121018160809321018091D0
:10218000200181608093200180917A008460809397
:102190007A0080917A00826080937A0080917A0040
:1021A000816080937A0080917A00806880937A00C1
:1021B0001092C100E0914F08F091500822E0208376
:1021C000E0914B08F0914C081082E0914D08F0919D
:1021D0004E0880E1808310925708E0915308F091F7
:1021E000540896E09083E0915108F0915208808164
:1021F00080618083E0915108F0915208808188606D
:102200008083E0915108F09152088081806880833A
:10221000E0915108F091520880818F7D8083E09198
:10222000B207F091B3072083E091AE07F091AF07BA
:102230001082E091B007F091B1078FEC808310928B
:10224000BA07E091B607F091B7079083E091B40721
:10225000F091B507808180618083E091B407F091AF
:10226000B507808188608083E091B407F091B5075D
:10227000808180688083E091B407F091B507808108
:102280008F7D808386E392E090930F0A80930E0AFD
:102290001092110A1092100A84E192E09093030ABE
:1022A0008093020A1092050A1092040A85EF91E0C9
:1022B00090935B0980935A0910925D0910925C0912
:1022C00086ED91E090932B0980932A0910922D09B5
:1022D00010922C0986E592E09093F7098093F60915
:1022E0001092F9091092F80987E492E09093EB09B3
:1022F0008093EA091092ED091092EC098CE892E0C3
:102300009093A3098093A2091092A5091092A409A1
:102310008EE392E09093DF098093DE091092E10949
:102320001092E00982EE92E090934F0980934E095B
:10233000109251091092500982EC92E09093430957
:102340008093420910924509109244098AE994E069
:102350009093C7098093C6091092C9091092C809C1
:1023600085E692E09093D3098093D2091092D50923
:102370001092D40982EA92E09093BB098093BA0943
:102380001092BD091092BC0987E992E09093AF09C1
:102390008093AE091092B1091092B00981E892E0E1
:1023A00090936709809366091092690910926809F1
:1023B0008AEA93E090931F0980931E0910922109E5
:1023C0001092200986E893E09093130980931209F4
:1023D000109215091092140986E693E0909307096C
:1023E00080930609109209091092080982E493E08B
:1023F0009093FB088093FA081092FD081092FC0855
:1024000082E293E09093EF088093EE081092F10837
:102410001092F0088EEF92E09093E3088093E20828
:102420001092E5081092E4088CE294E090939709EA
:1024300080939609109299091092980987E294E086
:1024400090939B0980939A0910929D0910929C0980
:1024500082E294E090938B0980938A0910928D090F
:1024600010928C098DE194E090938F0980938E09EE
:10247000109291091092900988E194E09093730969
:1024800080937209109275091092740983E194E0A7
:1024900090937709809376091092790910927809C0
:1024A0008EE094E090937F0980937E0910928109D9
:1024B0001092800989E094E09093830980938209C7
:1024C00010928509109284098DEA92E09093370961
:1024D0008093360910923909109238098BE392E003
:1024E00090933B0980933A0910923D0910923C0960
:1024F00068EB7BE080E090E00E94DA0F82EA97E0F0
:102500000E940305892B29F082EA97E00E94E104EA
:10251000F5CF67E672E082EA97E00E94AD0D0E9477
:10252000A80D0E94A80D0E94A80D0E94940460E0CE
:102530008BE30E949E0F60E08CE30E949E0F60E0A0
:1025400086E30E949E0F60E087E30E949E0F60E09A
:1025500088E30E949E0F60E089E30E949E0F60E086
:102560008DE30E949E0F61E08BE00E949E0F61E070
:102570008AE00E949E0F60ED77E080E090E00E948C
:10258000DA0F61E08CEB9AE00E94F7038EE692E0AE
:102590000E94950D11E02AE0222E312C06E038EE43
:1025A000832E33E0932EA12CB12C80910202811155
:1025B00003C01093D20406C08091D204811102C0DE
:1025C0001092D3048CE30E94460F019721F41093DC
:1025D000D3041093D2048BE30E94460F019711F4A9
:1025E0001092D30486E30E94460F019731F487E3EB
:1025F0000E94460F019709F429C61092CE04109349
:10260000E2041092D2041092D30488E30E94460F91
:1026100089E30E94460F80917B00877F80937B0037
:1026200097E4C92EC0927C0080917A0080648093E8
:102630007A0080917A0086FDFCCF609178008091CD
:10264000790070E0782B072E000C880B990B0E9404
:102650002D1F28E539E34EED51E40E94DF206B0188
:102660007C0120E030E040E850E46091DE047091AD
:10267000DF048091E0049091E1040E948C1FA70187
:1026800096010E94732020E030E040EA50E40E946E
:10269000DF206093DE047093DF048093E004909366
:1026A000E10420E030E04AE754E40E948C1F0E94DD
:1026B00051216B017C01AB012091DC043091DD04E0
:1026C00026173707C0F58091DA049091DB0497FD57
:1026D00019C001969093DB048093DA048091D604AC
:1026E0009091D704A091D804B091D9048C0D9D1D70
:1026F000A11DB11D8093D6049093D704A093D80454
:10270000B093D9048091DA049091DB0497FF13C051
:102710001092DB041092DA041092D6041092D704BF
:102720001092D8041092D9044217530708F07FC0C2
:1027300080E090E00AC04217530798F58091DA04D0
:102740009091DB0418161906CCF001979093DB04E6
:102750008093DA048091D6049091D704A091D80494
:10276000B091D9048C0D9D1DA11DB11D8093D6047F
:102770009093D704A093D804B093D9048091DA043D
:102780009091DB041816190664F41092DB04109281
:10279000DA041092D6041092D7041092D804109242
:1027A000D9048091DA049091DB0497FF03C09195DE
:1027B000819591090597D9F56091D6047091D70458
:1027C0008091D8049091D90425E030E040E050E0B9
:1027D0000E94C0218091D4049091D50469017A01AE
:1027E000C81AD90AE108F108D701C601F7FE07C0E7
:1027F000B095A095909581959F4FAF4FBF4FC397D0
:10280000A105B10544F03093DD042093DC0430933E
:10281000D5042093D4041092DB041092DA041092B1
:10282000D6041092D7041092D8041092D904609163
:10283000DC047091DD0480E090E00E942B1F20E01A
:1028400030E04AE754E40E94DF206093ED04709387
:10285000EE048093EF049093F00423E333E148EB1C
:1028600054E40E948C1F0E945121CB01B1010E94AF
:102870008A218AE0D82ED69EC001D79E900D1124C1
:102880009093F6048093F504909102028091D30412
:10289000992321F0882331F08091D204882311F00C
:1028A00061E001C060E08BE00E946F0F8091E20464
:1028B000882371F18091730A81110DC00E94141058
:1028C00060936A0A70936B0A80936C0A90936D0A06
:1028D0001093730A21C00E941410C0906A0AD0900D
:1028E0006B0AE0906C0AF0906D0ADC01CB018C1948
:1028F0009D09AE09BF098D3B9240A105B10560F06D
:102900001092730A8AE00E94460F61E0892B09F059
:1029100060E08AE00E946F0F82EA97E00E94030560
:10292000181619060CF045C06AE070E080E090E0EF
:102930000E94DA0F82EA97E00E94E104C82F8536F0
:1029400059F782EA97E00E94030506972CF3C0939B
:10295000E304C4EED4E082EA97E00E94E1048993A4
:1029600084E0CA3ED807B9F71092EA048091E704E0
:102970008F3F91F68091E8048F3F71F68091E904D2
:102980008F3F51F6C090E604D12CE12CF12C9091B0
:10299000E5042091E404E3E0F2E0C191D1912097B5
:1029A00009F4BACF88812813F8CF89819813F5CF1D
:1029B00052C48091D0049091D104019709F0DCC1F8
:1029C0009091CF048091D304981769F062E872E087
:1029D00082EA97E00E94AD0D0E9494048091CF049A
:1029E00081278093CF049091020280910102981771
:1029F00061F06EE872E082EA97E00E94AD0D0E94FD
:102A0000940480910202809301028091CE049091FF
:102A10000002981769F16AE972E081110DC082EA3B
:102A200097E00E94AD0D62EA72E082EA97E00E94B0
:102A3000AD0D64EA72E00CC082EA97E00E94AD0D31
:102A400062EA72E082EA97E00E94AD0D65EA74E006
:102A500082EA97E00E94AD0D62EA72E082EA97E0B6
:102A60000E94AD0D0E9494048091CE0480930002D8
:102A70008091CE04882309F474C08091FB04909166
:102A8000FC04A091FD04B091FE044091F704509124
:102A9000F8046091F9047091FA04481759076A071D
:102AA0007B0709F45EC00197A109B1096AE972E0E8
:102AB000873E9340A105B105E0F582EA97E00E94C8
:102AC000AD0D62EA72E082EA97E00E94AD0D6FEA16
:102AD00072E082EA97E00E94AD0D4091FB045091B4
:102AE000FC046091FD047091FE042AE082EA97E004
:102AF0000E94AF0D67E473E082EA97E00E94AD0D9B
:102B000062EA72E082EA97E00E94AD0D0E949404AE
:102B10008091FB049091FC04A091FD04B091FE040F
:102B20008093F7049093F804A093F904B093FA0407
:102B300018C082EA97E00E94AD0D62EA72E082EA74
:102B400097E00E94AD0D65EA74E082EA97E00E948A
:102B5000AD0D62EA72E082EA97E00E94AD0D0E943C
:102B600094048091CD0490E02091390230913A0292
:102B70008217930761F167EB72E082EA97E00E94A7
:102B8000AD0D62EA72E082EA97E00E94AD0D80919D
:102B9000390290913A020197089FF001099FF00DC8
:102BA0001124EA5EF54F448155816081718182EA8A
:102BB00097E00E94A80462EA72E082EA97E00E942D
:102BC000AD0D0E949404809139028093CD048AEA6D
:102BD0009AE00E94DE039091CC04891769F06FEBB4
:102BE00072E082EA97E00E94AD0D0E949404809109
:102BF000CC0481278093CC0483EB9AE00E94DE030F
:102C00009091CB04891769F06BEC72E082EA97E04F
:102C10000E94AD0D0E9494048091CB048127809383
:102C2000CB0481EA9AE00E94DE039091CA048917DE
:102C300069F067ED72E082EA97E00E94AD0D0E94B4
:102C400094048091CA0481278093CA0488E99AE099
:102C50000E94DE039091C9048917C1F063EE72E00F
:102C600082EA97E00E94AD0D88E99AE00E94DE03B7
:102C7000682F70E080E090E00E94F80D0E949404BC
:102C800088E99AE00E94DE038093C9048FE89AE005
:102C90000E94DE039091C8048917C1F06DEE72E0C6
:102CA00082EA97E00E94AD0D8FE89AE00E94DE0371
:102CB000682F70E080E090E00E94F80D0E9494047C
:102CC0008FE89AE00E94DE038093C80486E89AE0C9
:102CD0000E94DE039091C7048917C1F067EF72E08C
:102CE00082EA97E00E94AD0D86E89AE00E94DE033A
:102CF000682F70E080E090E00E94F80D0E9494043C
:102D000086E89AE00E94DE038093C7048DE79AE08C
:102D10000E94DE039091C6048917C1F061E073E060
:102D200082EA97E00E94AD0D8DE79AE00E94DE03F3
:102D3000682F70E080E090E00E94F80D0E949404FB
:102D40008DE79AE00E94DE038093C6048CEB9AE044
:102D50000E94DE039091C504891771F06BE073E067
:102D600082EA97E00E94AD0D0E9494048CEB9AE0F9
:102D70000E94DE038093C5048091D0049091D10419
:102D8000029709F06BC1C090C304D090C404E12C39
:102D9000F12C80E090E00E94620DC616D706E8068E
:102DA000F90651F10E9494046AE972E082EA97E020
:102DB0000E94AD0D62EA72E082EA97E00E94AD0DDA
:102DC00080E090E00E94620D0E94F80D67E173E0E0
:102DD00082EA97E00E94AD0D62EA72E082EA97E033
:102DE0000E94AD0D0E94940480E090E00E94620D6C
:102DF0007093C4046093C3042091C1043091C20451
:102E00008091F5049091F6042817390709F491C0D0
:102E10000E941410C090F104D090F204E090F304EA
:102E2000F090F404C616D706E806F90608F081C04B
:102E300065E573E082EA97E00E94AD0D4091F504EC
:102E40005091F60460E070E02AE082EA97E00E9488
:102E5000AF0D0E9494046DE573E082EA97E00E9452
:102E6000AD0D62EA72E082EA97E00E94AD0D4091FA
:102E7000F5045091F60460E070E02AE082EA97E001
:102E80000E94AF0D65E673E082EA97E00E94AD0D07
:102E900062EA72E082EA97E00E94AD0D0E9494041B
:102EA0008091F5049091F6049093C2048093C1043C
:102EB00068E673E082EA97E00E94AD0D62EA72E094
:102EC00082EA97E00E94AD0DC090ED04D090EE0430
:102ED000E090EF04F090F004A7019601C701B6015D
:102EE0000E948521882309F415C26BE173E082EA10
:102EF00097E00E94850D67E273E082EA97E00E9406
:102F0000AD0D62EA72E082EA97E00E94AD0D0E9488
:102F100094040E941410DC01CB0188539F4FAF4FE3
:102F2000BF4F8093F1049093F204A093F304B09305
:102F3000F40482E090E00E94620DC090BB04D09047
:102F4000BC04E090BD04F090BE046C157D058E05B8
:102F50009F0531F16CE273E082EA97E00E94AD0DCB
:102F600062EA72E082EA97E00E94AD0D82E090E0B2
:102F70000E94620D0E94F80D62EA72E082EA97E018
:102F80000E94AD0D0E94940482E090E00E94620DC8
:102F90006093BB047093BC048093BD049093BE0403
:102FA00081E090E00E94620DC090B704D090B80418
:102FB000E090B904F090BA046C157D058E059F056C
:102FC00031F165E373E082EA97E00E94AD0D62EAB9
:102FD00072E082EA97E00E94AD0D81E090E00E94ED
:102FE000620D0E94F80D62EA72E082EA97E00E94A8
:102FF000AD0D0E94940481E090E00E94620D609308
:10300000B7047093B8048093B9049093BA04809184
:10301000B604882319F10E941410C090B204D09015
:10302000B304E090B404F090B504DC01CB018C193A
:103030009D09AE09BF0989389341A105B10570F01A
:1030400040E050E0BA0181E090E00E946C0C40E06A
:1030500050E0BA0182E090E00E946C0C8091D004B4
:103060009091D104039709F0AFC083E090E00E94F3
:10307000620DC090AE04D090AF04E090B004F09028
:10308000B1046C157D058E059F0521F10E94940405
:103090006AE972E082EA97E00E94AD0D62EA72E0AE
:1030A00082EA97E00E94AD0D83E090E00E94620DFD
:1030B0000E94F80D62EA72E082EA97E00E94AD0D8C
:1030C0000E94940483E090E00E94620D7093C40417
:1030D0006093C30484E090E00E94620DC090AA0453
:1030E000D090AB04E090AC04F090AD046C157D057D
:1030F0008E059F0561F16EE373E082EA97E00E941E
:10310000AD0D62EA72E082EA97E00E94AD0D84E0C4
:1031100090E00E94620D0E94F80D66E473E082EA7E
:1031200097E00E94AD0D62EA72E082EA97E00E94A9
:10313000AD0D0E94940484E090E00E94620D6093C3
:10314000BB047093BC048093BD049093BE0485E0DF
:1031500090E00E94620DC090A604D090A704E09079
:10316000A804F090A9046C157D058E059F0561F1FA
:1031700069E473E082EA97E00E94AD0D62EA72E0D2
:1031800082EA97E00E94AD0D85E090E00E94620D1A
:103190000E94F80D66E473E082EA97E00E94AD0DAC
:1031A00062EA72E082EA97E00E94AD0D0E94940408
:1031B00085E090E00E94620D6093BB047093BC04B4
:1031C0008093BD049093BE048091D3048823D9F1E9
:1031D0000E94141090958095709561957F4F8F4F48
:1031E0009F4FA50194010E949E212093FB043093E0
:1031F000FC044093FD045093FE048091D204882384
:1032000011F10E941410672B682B692BE1F080915B
:10321000390290913A028130910509F0F6C048EEEA
:1032200053E06CED75E088E99AE00E9431048091EA
:103230009D0A882341F01092D20482E090E090939E
:103240003A02809339020E94BE05AFC91093CE04A2
:103250001092E204DAC961E573E08FE398E00E941E
:10326000AD0D2AE0AE010D2E000C660B770B8FE33F
:1032700098E00E94AF0D63E573E08FE398E00E9451
:10328000AD0D488150E060E070E02AE08FE398E007
:103290000E94AF0D69E073E08FE398E00E94AD0DEE
:1032A000498150E060E070E02AE08FE398E00E94FE
:1032B000AF0D69E073E08FE398E00E94AD0D6A8185
:1032C0007B816115710511F469E772E08FE398E085
:1032D0000E94AD0D80E892E00E94950D21E0C2169B
:1032E000D104E104F10441F4EC81FD81309709F44B
:1032F00013CB8E819F810CC0CD28CE28CF2809F01A
:103300000BCBE885F985309709F406CB8A859B8538
:10331000199502CB26013701E89477F82FEF3FEF9C
:103320004FE75FE7C301B2010E94852181110DC003
:103330002FEF3FEF4FE75FE7C301B2010E94261F67
:1033400018161CF46FE173E0D2CD2FEF3FEF4FE77B
:103350005FE4C701B6010E94802118161CF463E2E5
:1033600073E0C5CD2FEF3FEF4FE75FECC701B6012C
:103370000E94261F87FDF3CF20E030E0A901C7019E
:10338000B6010E94261F87FF09C06DE282EA97E01E
:103390000E944F05F7FAF094F7F8F0942DEC3CEC0E
:1033A0004CE45DE3C701B6010E9473202B013C0190
:1033B0000E9451216B017C010E942B1F9B01AC01DB
:1033C000C301B2010E9472202B013C012AE0B70127
:1033D000A60182EA97E00E94AF0D6EE282EA97E0D2
:1033E0000E944F0520E030E040E251E4C301B20109
:1033F0000E948C1F0E945121AB0160E070E02AE026
:1034000082EA97E00E94AF0D76CD029709F01BCFBC
:1034100085E090E00E94620D4CE251E08FE89AE076
:103420000E9431048091940A882309F40CCF1092F1
:10343000D2048091390290913A02019600CF0F9305
:103440001F93CF93DF93EC01162F072F81E08D831D
:10345000188661E0812F0E949E0F1E830F83DF91EB
:10346000CF911F910F910895CF93DF93CEE5DAE0CE
:103470002697888199810E947F228AE0C631D807E9
:10348000B9F7DF91CF910895EF92FF920F931F93B9
:10349000CF93DF93EC01198218821B821A821D825E
:1034A0001C8261157105B9F17B01FB0101900020BF
:1034B000E9F731978F01061B170BB8016F5F7F4F3C
:1034C00080E090E00E940823009759F09983888358
:1034D0001B830A832C813D81232B81F4FC01108204
:1034E0000DC088819981009711F00E947F22198276
:1034F00018821D821C821B821A820DC01D830C83C0
:10350000B70188819981DF91CF911F910F91FF9031
:10351000EF900C94FB23DF91CF911F910F91FF90BF
:10352000EF9008958F929F92AF92BF92CF92DF92C9
:10353000EF92FF920F931F93CF93DF9300D000D0B1
:10354000CDB7DEB7109208071092070748EE53E098
:1035500060E070E04093090750930A0760930B07FF
:1035600070930C0789E492E0909306078093050717
:1035700025E331E0309312072093110724E331E073
:10358000309314072093130720E331E0309316079C
:103590002093150721E331E0309318072093170794
:1035A00022E331E030931A072093190726E331E034
:1035B00030931C0720931B0710921E0710921F07C1
:1035C00010922007109221071092A5071092A407CD
:1035D0004093A6075093A7076093A8077093A90785
:1035E0009093A3078093A20725ED30E03093AF07B7
:1035F0002093AE0724ED30E03093B1072093B0075D
:1036000020ED30E03093B3072093B20721ED30E096
:103610003093B5072093B40722ED30E03093B7071D
:103620002093B60726ED30E03093B9072093B80712
:103630001092BB071092BC071092BD071092BE07F4
:103640001092420810924108409343085093440856
:1036500060934508709346089093400880933F0814
:1036600085EC90E090934C0880934B0884EC90E0BC
:1036700090934E0880934D0880EC90E09093500812
:1036800080934F0881EC90E090935208809351080A
:1036900082EC90E0909354088093530886EC90E07D
:1036A0009093560880935508109258081092590824
:1036B00010925A0810925B081092CA0A1092CB0A14
:1036C0001092CE0A1092D00A82E090E0A0E0B0E022
:1036D0008093D10A9093D20AA093D30AB093D40ACC
:1036E0001092E80A1092F20A1092F10A8BE592E029
:1036F0009093F00A8093EF0A1092F40A80E5809389
:10370000DC081092DD0869E070E08CEB9AE00E9422
:103710001F1A63E070E083EB9AE00E941F1A62E0D8
:1037200070E08AEA9AE00E941F1A64E070E081EA81
:103730009AE00E941F1A67E070E088E99AE00E9410
:103740001F1A65E070E08FE89AE00E941F1A68E097
:1037500070E086E89AE00E941F1A66E070E08DE74C
:103760009AE00E941F1A6DE070E084E79AE00E94E0
:103770001F1A81E08093720A1092730A88E893E11D
:10378000A0E0B0E080936E0A90936F0AA093700A55
:10379000B093710A0E94141060936A0A70936B0AC6
:1037A00080936C0A90936D0A86E090E09093650A8E
:1037B0008093640A87EE9FE09093610A8093600A89
:1037C00042E050E060E070E0CE0105960E944A20A1
:1037D0008D819E8190935F0A80935E0A2091600A9A
:1037E0003091610A2817390714F0029784F482E0B7
:1037F00090E090935F0A80935E0A9A83898342E007
:1038000050E060E070E0CE0101960E945A20609185
:103810005E0A70915F0A44E050E0CE0101960E947A
:103820004A2089819A81AB81BC818093660A9093FA
:10383000670AA093680AB093690A64EC73E086E1B2
:103840009AE00E94441A60ED73E08CE19AE00E94D5
:10385000441A6EED73E082E29AE00E94441A6AEE26
:1038600073E088E29AE00E94441A68EF73E08EE207
:103870009AE00E94441A66E074E084E39AE00E94B1
:10388000441A60E174E08AE39AE00E94441A6DE110
:1038900074E080E49AE00E94441A69E274E086E4ED
:1038A0009AE00E94441A66E374E08CE49AE00E9475
:1038B000441A64E474E082E59AE00E94441A65E5E3
:1038C00074E088E59AE00E94441A10920A0A109265
:1038D0000B0A8EE594E090930D0A80930C0A1092E7
:1038E0000F0A10920E0A1092130A1092120A1092E6
:1038F000150A1092140A1092110A1092100A81E00F
:103900008093FE091092FF0924E634E03093010A07
:103910002093000A1092030A1092020A1092070ADA
:103920001092060A1092090A1092080A1092050ACB
:103930001092040A8093F20966E06093F309EAE6C4
:10394000F4E0F093F509E093F4091092F70910926E
:10395000F6091092FB091092FA091092FD091092D3
:10396000FC091092F9091092F8098093E60997E092
:103970009093E7094DE654E05093E9094093E80934
:103980001092EB091092EA091092EF091092EE09D9
:103990001092F1091092F0091092ED091092EC09C1
:1039A0008093DA0975E07093DB0990E7E92E94E0E3
:1039B000F92EF092DD09E092DC091092DF091092F5
:1039C000DE091092E3091092E2091092E5091092C3
:1039D000E4091092E1091092E0098093CE0992E087
:1039E0009093CF0923E734E03093D1092093D00995
:1039F0001092D3091092D2091092D7091092D609C9
:103A00001092D9091092D8091092D5091092D409B0
:103A10008093C20924E02093C30927E734E0309360
:103A2000C5092093C4091092C7091092C6091092C3
:103A3000CB091092CA091092CD091092CC091092AC
:103A4000C9091092C8098093B6092EE0D22ED092EF
:103A5000B7092BE734E03093B9092093B8091092E5
:103A6000BB091092BA091092BF091092BE091092B8
:103A7000C1091092C0091092BD091092BC0980932F
:103A8000AA092DE02093AB092FE734E03093AD096C
:103A90002093AC091092AF091092AE091092B309AD
:103AA0001092B2091092B5091092B4091092B1099E
:103AB0001092B00980939E093CE0C32EC0929F09EA
:103AC00023E834E03093A1092093A0091092A309C0
:103AD0001092A2091092A7091092A6091092A909A2
:103AE0001092A8091092A5091092A4098093920936
:103AF0002BE020939309A7E8B4E0B0939509A09335
:103B00009409109297091092960910929B091092AD
:103B10009A0910929D0910929C091092990910928D
:103B20009809809386091AE0912E909287092AE8D5
:103B300034E0309389092093880910928B09109200
:103B40008A0910928F0910928E0910929109109291
:103B5000900910928D0910928C0980937A0911E1D5
:103B600010937B090DE814E010937D0900937C0904
:103B700010927F0910927E09109283091092820997
:103B8000109285091092840910928109109280097F
:103B900080936E0908E0802E80926F0900E914E09E
:103BA00010937109009370091092730910927209B1
:103BB000109277091092760910927909109278097B
:103BC00010927509109274098093620980E18093C4
:103BD000630983E9A82E84E0B82EB0926509A0920B
:103BE0006409109267091092660910926B0910928D
:103BF0006A0910926D0910926C091092690910926D
:103C00006809909356091092570987E9A82E84E015
:103C1000B82EB0925909A092580910925B091092DF
:103C20005A0910925F0910925E0910926109109270
:103C3000600910925D0910925C0990934A09709393
:103C40004B09F0934D09E0934C0910924F091092E3
:103C50004E09109253091092520910925509109270
:103C60005409109251091092500990933E096093A3
:103C70003F09509341094093400910924309109223
:103C80004209109247091092460910924909109270
:103C900048091092450910924409909332098FE027
:103CA00080933309309335092093340910923709F2
:103CB0001092360910923B0910923A0910923D0970
:103CC00010923C09109239091092380983E08093D0
:103CD0002609109227099DE9A92E94E0B92EB092E9
:103CE0002909A092280910922B0910922A091092F2
:103CF0002F0910922E09109231091092300910925A
:103D00002D0910922C0980931A0970931B09F093C6
:103D10001D09E0931C0910921F0910921E091092B0
:103D20002309109222091092250910922409109259
:103D300021091092200980930E0960930F09509376
:103D40001109409310091092130910921209109250
:103D50001709109216091092190910921809109259
:103D60001509109214098093020980920309F092B8
:103D70000509E092040910920709109206091092B1
:103D80000B0910920A0910920D0910920C09109259
:103D90000909109208098093F6089092F708109389
:103DA000F9080093F8081092FB081092FA08109294
:103DB000FF081092FE08109201091092000910925B
:103DC000FD081092FC088093EA08C092EB0830933B
:103DD000ED082093EC081092EF081092EE08109274
:103DE000F3081092F2081092F5081092F40810925D
:103DF000F1081092F0088093DE08D092DF08B093AB
:103E0000E108A093E0081092E3081092E2081092F3
:103E1000E7081092E6081092E9081092E80810925C
:103E2000E5081092E40826960FB6F894DEBF0FBEA0
:103E3000CDBFDF91CF911F910F91FF90EF90DF9059
:103E4000CF90BF90AF909F908F9008950E94681F71
:103E500008F481E00895E89409C097FB3EF490953A
:103E60008095709561957F4F8F4F9F4F9923A9F053
:103E7000F92F96E9BB279395F695879577956795E2
:103E8000B795F111F8CFFAF4BB0F11F460FF1BC026
:103E90006F5F7F4F8F4F9F4F16C0882311F096E9B9
:103EA00011C0772321F09EE8872F762F05C0662367
:103EB00071F096E8862F70E060E02AF09A95660F20
:103EC000771F881FDAF7880F9695879597F90895D9
:103ED000990F0008550FAA0BE0E8FEEF161617061B
:103EE000E807F907C0F012161306E407F50798F083
:103EF000621B730B840B950B39F40A2661F0232B9C
:103F0000242B252B21F408950A2609F4A140A69517
:103F10008FEF811D811D08950E949F1F0C9410201A
:103F20000E94022038F00E94092020F0952311F011
:103F30000C94F91F0C94FF1F11240C9444200E9430
:103F4000212070F3959FC1F3950F50E0551F629F9C
:103F5000F001729FBB27F00DB11D639FAA27F00DE2
:103F6000B11DAA1F649F6627B00DA11D661F829F09
:103F70002227B00DA11D621F739FB00DA11D621FEE
:103F8000839FA00D611D221F749F3327A00D611D0B
:103F9000231F849F600D211D822F762F6A2F1124ED
:103FA0009F5750409AF0F1F088234AF0EE0FFF1F20
:103FB000BB1F661F771F881F91505040A9F79E3F77
:103FC000510580F00C94F91F0C9444205F3FE4F3FA
:103FD000983ED4F3869577956795B795F795E795CD
:103FE0009F5FC1F7FE2B880F911D9695879597F9D6
:103FF000089597F99F6780E870E060E008959FEF6B
:1040000080EC089500240A9416161706180609066F
:10401000089500240A94121613061406050608953E
:10402000092E0394000C11F4882352F0BB0F40F4C6
:10403000BF2B11F460FF04C06F5F7F4F8F4F9F4F06
:10404000089557FD9058440F551F59F05F3F71F088
:104050004795880F97FB991F61F09F3F79F08795EF
:104060000895121613061406551FF2CF4695F1DF78
:1040700008C0161617061806991FF1CF8695710508
:10408000610508940895E894BB2766277727CB013C
:1040900097F90895DC01CB01FC01F999FECF06C028
:1040A000F2BDE1BDF89A319600B40D9241505040F6
:1040B000B8F70895DC01CB0103C02D910E94652063
:1040C00041505040D0F70895262FF999FECF1FBADE
:1040D00092BD81BD20BD0FB6F894FA9AF99A0FBE31
:1040E000019608955058BB27AA270E948A200C9455
:1040F00010200E94022038F00E94092020F039F49C
:104100009F3F19F426F40C94FF1F0EF4E095E7FB93
:104110000C94F91FE92F0E94212058F3BA17620767
:1041200073078407950720F079F4A6F50C944320D3
:104130000EF4E0950B2EBA2FA02D0B01B9019001C2
:104140000C01CA01A0011124FF27591B99F0593F06
:1041500050F4503E68F11A16F040A22F232F342F4E
:104160004427585FF3CF469537952795A795F0409C
:104170005395C9F77EF41F16BA0B620B730B840BB1
:10418000BAF09150A1F0FF0FBB1F661F771F881F69
:10419000C2F70EC0BA0F621F731F841F48F48795C1
:1041A00077956795B795F7959E3F08F0B0CF9395B3
:1041B000880F08F09927EE0F9795879508950E942C
:1041C000F3200C9410200E94092058F00E94022035
:1041D00040F029F45F3F29F00C94F91F51110C9421
:1041E00044200C94FF1F0E94212068F39923B1F30F
:1041F000552391F3951B550BBB27AA27621773070D
:10420000840738F09F5F5F4F220F331F441FAA1FA0
:10421000A9F335D00E2E3AF0E0E832D0915050405C
:10422000E695001CCAF72BD0FE2F29D0660F771F0A
:10423000881FBB1F261737074807AB07B0E809F0F0
:10424000BB0B802DBF01FF2793585F4F3AF09E3F75
:10425000510578F00C94F91F0C9444205F3FE4F36F
:10426000983ED4F3869577956795B795F7959F5FB8
:10427000C9F7880F911D9695879597F90895E1E004
:10428000660F771F881FBB1F621773078407BA0763
:1042900020F0621B730B840BBA0BEE1F88F7E095BE
:1042A00008950E94292088F09F5798F0B92F9927E8
:1042B000B751B0F0E1F0660F771F881F991F1AF011
:1042C000BA95C9F714C0B13091F00E944320B1E013
:1042D00008950C944320672F782F8827B85F39F012
:1042E000B93FCCF3869577956795B395D9F73EF4AA
:1042F00090958095709561957F4F8F4F9F4F089552
:104300000E94681F08F48FEF08950E94681F880BB1
:10431000990B0895AA1BBB1B51E107C0AA1FBB1F25
:10432000A617B70710F0A61BB70B881F991F5A9541
:10433000A9F780959095BC01CD010895A1E21A2EB0
:10434000AA1BBB1BFD010DC0AA1FBB1FEE1FFF1F39
:10435000A217B307E407F50720F0A21BB30BE40B89
:10436000F50B661F771F881F991F1A9469F76095D0
:104370007095809590959B01AC01BD01CF0108958A
:10438000052E97FB1EF400940E94D72157FD07D0FD
:104390000E949E2107FC03D04EF40C94D721509527
:1043A0004095309521953F4F4F4F5F4F0895909521
:1043B0008095709561957F4F8F4F9F4F0895EE0FB9
:1043C000FF1F881F8BBF0790F691E02D19940F9364
:1043D0001F93CF93DF938230910510F482E090E039
:1043E000E091190BF0911A0B20E030E0A0E0B0E072
:1043F000309719F140815181028113814817590783
:10440000C8F08417950769F4109731F012960C9351
:10441000129713961C9327C00093190B10931A0B35
:1044200022C02115310519F04217530718F49A01DB
:10443000BD01EF01DF01F801DBCF21153105F9F0F6
:10444000281B390B2430310580F48A819B8161154A
:10445000710521F0FB019383828304C090931A0BB2
:104460008093190BFE01329644C0FE01E20FF31F48
:104470008193919322503109398328833AC0209146
:10448000170B3091180B232B41F4209141023091EE
:1044900042023093180B2093170B20913F0230916A
:1044A00040022115310541F42DB73EB7409143023A
:1044B00050914402241B350BE091170BF091180B1F
:1044C000E217F307A0F42E1B3F0B2817390778F0EB
:1044D000AC014E5F5F4F2417350748F04E0F5F1F4A
:1044E0005093180B4093170B8193919302C0E0E017
:1044F000F0E0CF01DF91CF911F910F910895CF93FD
:10450000DF93009709F481C0FC0132971382128275
:10451000A091190BB0911A0B109781F42081318171
:10452000820F931F2091170B3091180B2817390712
:1045300051F5F093180BE093170B67C0ED0120E0E5
:1045400030E0CE17DF0740F44A815B819E014115C0
:104550005105F1F0EA01F5CFD383C2834081518147
:10456000840F951FC817D90759F488819981840F42
:10457000951F0296918380838A819B819383828396
:104580002115310529F4F0931A0BE093190B3DC066
:10459000E901FB83EA8349915991C40FD51FEC17B8
:1045A000FD0761F480819181840F951F0296E901D6
:1045B00099838883828193819B838A83E0E0F0E002
:1045C00012968D919C911397009719F0FD01DC01D3
:1045D000F7CF8D919C9111979D012E5F3F4F820FD8
:1045E000931F2091170B3091180B2817390769F486
:1045F000309729F410921A0B1092190B02C01382F3
:104600001282B093180BA093170BDF91CF910895EE
:104610006F927F928F929F92AF92BF92CF92DF92D2
:10462000EF92FF920F931F93CF93DF93009789F43C
:10463000CB01DF91CF911F910F91FF90EF90DF9011
:10464000CF90BF90AF909F908F907F906F900C9481
:10465000E721FC01E60FF71F9C0122503109E21708
:10466000F30708F4A9C0EC01D9010D911C91119731
:1046700006171707B0F00530110508F49BC0C801F4
:1046800004978617970708F495C002501109061B76
:10469000170B019311936D937C93CF010E947F229E
:1046A00089C05B01A01AB10A4C01800E911EA09135
:1046B000190BB0911A0B612C712CE12CF12C109775
:1046C00009F446C08D919C911197A815B905B1F5D3
:1046D0006C0142E0C40ED11CCA14DB0478F14C0119
:1046E0008A189B08640142E0C40ED11C1296BC904B
:1046F00012971396AC91B5E0CB16D10440F0B2827C
:10470000A38391828082D9016D937C9309C00E5F4F
:104710001F4F800F911FF90191838083EB2DFA2F9A
:10472000E114F10431F0D7011396FC93EE93129744
:1047300041C0F0931A0BE093190B3CC06816790640
:1047400008F43C017D0112960D90BC91A02DB7CFCD
:104750008091170B9091180B88169906E1F4661654
:104760007706C8F480913F0290914002009741F48F
:104770008DB79EB74091430250914402841B950B24
:10478000E817F907C8F4F093180BE093170BF90139
:10479000718360830FC0CB010E94E7217C010097E9
:1047A00059F0A801BE010E94F223CE010E947F228F
:1047B000C70104C0CE0102C080E090E0DF91CF913C
:1047C0001F910F91FF90EF90DF90CF90BF90AF902F
:1047D0009F908F907F906F90089581E090E0F89483
:1047E0000C940224FB01DC0102C001900D924150A7
:1047F0005040D8F70895FB01DC0101900D92002094
:10480000E1F7089511E0CEE9D1E000E006C0802F85
:10481000FE010E94DF212196011DCF39D10780E0E2
:084820000807A9F7F894FFCF87
:104828000101010A0AFE09560926093209F209E6B8
:1048380009DA094A093E09CE09C2097A099E09B668
:1048480009AA09920986096E0962091A090E09025C
:1048580009F608EA08DE0800000100FFFFFFFF0074
:10486800001B0B8000000000004F05A804D2049C28
:10487800050305E104F504000000000A0AA804D3B2
:1048880001D20100100600706167652031004558AB
:10489800495420534554555000286E756C6C2900B6
:1048A8005D00636C69636B206274302C3100636C4B
:1048B80069636B206274312C310074342E747874FF
:1048C8003D00220042414E44204C454552210050B3
:1048D800415553453A200074302E7478743D006376
:1048E8006C69636B206274352C3100636C69636B8F
:1048F800206274342C3100636C69636B20627433FA
:104908002C3100636C69636B2062352C00636C6921
:10491800636B2062342C00636C69636B2062362CF5
:1049280000636C69636B2062332C00636C69636B92
:10493800206274362C3100206D73006E616E006940
:104948006E66006F76660020626172007431302EE8
:104958007478743D007431322E7478743D00743567
:104968002E7478743D0020730074372E7478743D6B
:10497800005B003A0068312E76616C3D0074362E7B
:104988007478743D00204E0074382E7478743D009D
:104998004F4B2C20474F54204954726533004F4BDE
:1049A8002C20474F542049546C6533004F4B2C2022
:1049B800474F54204954726532004F4B2C20474FC3
:1049C800542049546C6532004F4B2C20474F5420DB
:1049D8004954317269004F4B2C20474F5420495499
:1049E800316C650031204155465745434B454E00D3
:1049F8003220564F52534348494542454E003320D2
:104A08005343484E454944454E0034204645535487
:104A18004B4C454D4D454E0035204B524146544177
:104A280055464241550036205350414E4E454E00A2
:104A380037205343485745495353454E0038204182
:104A4800424B55454C48454E003920454E5453502D
:104A5800414E4E454E00313020454E544B4C454D4D
:104A68004D454E003131205A55525545434B46412C
:104A78004852454E0031322050415553450070612F
:104A8800676530007061676531006231006232002D
:104A98006230006274300062743100627435006202
:104AA8007434006274330062350062340062360088
:104AB8006233006274360070616765320070616746
:064AC8006533000D0A0039
:00000001FF
