:100000000C9497010C94C8010C94C8010C94C8017D
:100010000C94C8010C94C8010C94C8010C94C8013C
:100020000C94C8010C94CC030C94CC030C94CC031A
:100030000C94C8010C94C8010C94C8010C94C8011C
:100040000C94C8010C94C8010C94C8010C94C8010C
:100050000C94C8010C94C8010C94C8010C9418109D
:100060000C94C8010C94B4080C948A080C94C80130
:100070000C94C8010C94C8010C94C8010C94C801DC
:100080000C94C8010C94C8010C94C8010C94C801CC
:100090000C94C8010C94C8010C94C8010C94C801BC
:1000A0000C94C8010C94C8010C94C8010C94C801AC
:1000B0000C94C8010C94C8010C94C8010C94C8019C
:1000C0000C94C8010C94C8010C94C8010C946008ED
:1000D0000C9436080C94C8010C940C080C94E2079C
:1000E0000C94C801040C070CF60BFA0B000C3E0C28
:1000F0000B0C0F0C150C190C1D0C230C270C2B0CC6
:100100003E0C310C350C390C0C945D020C94230C14
:100110000C9415040C9436020C94A0040C940F0C4F
:100120000C940B0C0C94D9040C941A040C94F60B3C
:100130000C944E020C94350C0C940B040C9433026A
:100140000C94041A0C94310C0C94FB040C94F602DD
:100150000C94270C0C94CE010C94BA020C94190C3C
:100160000C94621A0C94DA020C94ED010C940C02BB
:100170000C941A030C9484020C9401040C941F0434
:100180000C94ED040C9410040C9479020C94470523
:100190000C9406040C942E020C94020A0C94040C89
:1001A0000C9424040C94CB010C9494050C94390CFD
:1001B0000C941D0C0C94000C0C94FA0B0C942B0C4E
:1001C0000C9492040C943F020C943E0C0C94A502E7
:1001D0000C94150C0C94CA040C948F020C94CA0154
:1001E0000C94070C0C949A020000210024002700B4
:1001F0002A002D0030003300010100000401070136
:100200000A0100002200250028002B002E003100EA
:10021000340002010000050108010B01000020006C
:100220002300260029002C002F00320000010000CE
:100230000301060109010505050507050808080869
:10024000020202020A0A080804040404010101016E
:100250000101010103030303030303030407070769
:100260000C0C0C0C0C0C0C0C02020202060606060E
:10027000060606060B0B0B0B0B0B0B0B0A050A0AEB
:10028000050A0A0404040A010210202008081020AC
:100290004010204080020102010804020101020412
:1002A00008102040808040201008040201800402D1
:1002B0000180402010080402010804020101020428
:1002C00008102040800102040810204080084004EB
:1002D000808040201020401000000A0B02090C0D05
:1002E0000E080703040100000000000000000000E9
:1002F00000000000000000000000000000000000FE
:1003000000000000121110000000000000000000BA
:1003100000000000000000000000000000000000DD
:1003200000000000000000000000621A041A1124FE
:100330001FBECFEFD1E2DEBFCDBF00E00CBF2BE090
:10034000ACEAB4E001C01D92A132B207E1F714E0BB
:10035000A0E0B2E0ECECF7E400E00BBF02C00790D5
:100360000D92AC3AB107D9F711E0C6E9D1E000E04F
:1003700006C021970109802FFE010E94B121C539D5
:10038000D10780E00807A9F70E9462100C94D423DB
:100390000C940000089580E090E0089583E090E0E0
:1003A0009093D7048093D6041092B4041092B504AD
:1003B0001092B6041092B7041092B0041092B104D7
:1003C0001092B2041092B3041092AC041092AD04D7
:1003D0001092AE041092AF04089582E090E09093E2
:1003E000D7048093D6041092CA041092C9041092C4
:1003F000BD041092BE041092BF041092C00410926B
:10040000C1041092C2041092C3041092C40410924A
:10041000C8041092C704089581E090E09093D70437
:100420008093D6041092D304809301021092D204D8
:100430008093D1041092D0041092CF041092CE0475
:100440001092CD041092CC041092D5049091D40453
:100450008927809300021092CB0408951092D7044C
:100460001092D60408951092BC04089581E090E0A3
:1004700090933A028093390280930202089580910A
:10048000390290913A028B3091053CF40196909399
:100490003A02809339021092D9040895809139026A
:1004A00090913A02823091053CF0019790933A0284
:1004B000809339021092D90408958091D90491E073
:1004C00089278093D90481119093D8049091D50401
:1004D00081E089278093D5040895FC01948181E00F
:1004E000692F6827648380858111692F86810C9428
:1004F000670F82EC9AE00E946D029091CB0481E03C
:1005000089278093CB04089587EA9AE00E946D02C0
:100510009091D00481E089278093D004089589EBDD
:100520009AE00E946D029091D10481E08927809326
:10053000D104089580EB9AE00E946D029091D2045C
:1005400081E089278093D204089540E050E0BA0109
:1005500081E090E00E94640C0E940C106093B8044B
:100560007093B9048093BA049093BB0481E08093A4
:10057000BC04089580E090E00E945A0DAB01BC01DC
:100580004C595F4F6F4F7F4F80E090E00E94640CAA
:1005900080E090E00E945A0D69357B41810591050C
:1005A00044F048E55BE160E070E080E090E00C94AE
:1005B000640C089580E090E00E945A0DAB01BC01EC
:1005C000445651096109710980E090E00E94640C71
:1005D00080E090E00E945A0D97FF07C040E050E095
:1005E000BA0180E090E00C94640C089580E793E0F9
:1005F0000E948D0D85E090E00E945A0DAB01BC0178
:100600004F5F5F4F6F4F7F4F85E090E00E94640C1B
:1006100085E090E00E945A0D6531710581059105D4
:1006200044F044E150E060E070E085E090E00C943C
:10063000640C08958EE793E00E948D0D85E090E0B4
:100640000E945A0DAB01BC01415051096109710969
:1006500085E090E00E94640C85E090E00E945A0DD5
:1006600097FF07C040E050E0BA0185E090E00C94AD
:10067000640C08958CE893E00E948D0D84E090E076
:100680000E945A0DAB01BC01465F5F4F6F4F7F4F19
:1006900084E090E00E94640C84E090E00E945A0D97
:1006A000693572408105910544F048E552E060E00B
:1006B00070E084E090E00C94640C08958AE993E083
:1006C0000E948D0D84E090E00E945A0DAB01BC01A8
:1006D0004A5051096109710984E090E00E94640C5C
:1006E00084E090E00E945A0D97FF07C040E050E080
:1006F000BA0184E090E00C94640C089588EA93E0D9
:100700000E948D0D83E090E00E945A0DAB01BC0168
:100710004F5F5F4F6F4F7F4F83E090E00E94640C0C
:1007200083E090E00E945A0D6B30710581059105C0
:1007300044F04AE050E060E070E083E090E00C9428
:10074000640C089586EB93E00E948D0D83E090E0A9
:100750000E945A0DAB01BC01415051096109710958
:1007600083E090E00E94640C83E090E00E945A0DC8
:1007700097FF07C040E050E0BA0183E090E00C949E
:10078000640C08958EBD00000DB407FEFDCF8EB53C
:1007900008958FEF0C94C2031F920F920FB60F9221
:1007A00011240F900FBE0F901F901895CF93DF93D9
:1007B000EC018885811107C08E810E943E0F21E0E7
:1007C000892B41F406C08E810E943E0F21E0892BC7
:1007D00009F020E02C838C81DF91CF9108951F9345
:1007E000CF93DF93EC01162F8885882311F061E009
:1007F00061278E810E94670F1C83DF91CF911F912B
:10080000089560E08CE89AE00C94EF0361E08CE8D6
:100810009AE00C94EF0360E083E89AE00C94EF0315
:1008200061E083E89AE00C94EF0360E085E99AE0E8
:100830000C94EF0361E085E99AE00C94EF0360E02B
:100840008EE99AE00C94EF0361E08EE99AE00C9453
:10085000EF038F929F92AF92BF92EF92FF920F930E
:100860001F93CF93DF93EC017B018A018D81882355
:1008700091F08885811102C061E001C060E08E8145
:100880000E94670F81E08C830E940C10688379833B
:100890008A839B831D820E940C1088809980AA8085
:1008A000BB80DC01CB0188199909AA09BB09470162
:1008B000A12CB12C88169906AA06BB0610F58885CE
:1008C000811102C060E001C061E08E810E94670F6B
:1008D0001C820E940C1088809980AA80BB80DC0159
:1008E000CB0188199909AA09BB09A701400F511F1B
:1008F00060E070E0481759076A077B0710F481E051
:100900008D83DF91CF911F910F91FF90EF90BF905A
:10091000AF909F908F9008950E94A00D0E94A00D0F
:100920000C94A00D9091020281E08927809302022D
:100930006EE872E088EA97E00E94A50D0C948C04A2
:10094000CF92DF92EF92FF920F931F93CF93DF939B
:100950006C017A018B01C0E0D0E0CE15DF0581F09B
:10096000D8016D918D01D601ED91FC910190F0813E
:10097000E02DC6011995892B11F02196EECF7E014D
:10098000C701DF91CF911F910F91FF90EF90DF9002
:10099000CF900895FC01538D448D252F30E0842F96
:1009A00090E0821B930B541710F0CF960895019797
:1009B0000895FC01918D828D981761F0828DDF0181
:1009C000A80FB11D5D968C91928D9F5F9F73928F42
:1009D00090E008958FEF9FEF0895FC01918D828D37
:1009E000981731F0828DE80FF11D858D90E0089504
:1009F0008FEF9FEF0895FC01918D228D892F90E05C
:100A0000805C9F4F821B91098F73992708958BE01B
:100A100097E00E94FB0421E0892B09F420E0822F5B
:100A2000089588EA97E00E94FB0421E0892B09F4ED
:100A300020E0822F089585E498E00E94FB0421E0E5
:100A4000892B09F420E0822F0895FC01848DDF01B9
:100A5000A80FB11DA35ABF4F2C91848D90E0019631
:100A60008F739927848FA689B7892C93A089B18920
:100A70008C91837080648C93938D848D981306C0C1
:100A80000288F389E02D80818F7D80830895EF9225
:100A9000FF920F931F93CF93DF93EC0181E0888F38
:100AA0009B8D8C8D981305C0E889F989808185FD1F
:100AB00026C0F62E0B8D10E00F5F1F4F0F7311270E
:100AC000E02E8C8DE8120CC00FB607FCFACFE88937
:100AD000F989808185FFF5CFCE010E942505F1CFF0
:100AE0008B8DFE01E80FF11DE35AFF4FF0829FB797
:100AF000F8940B8FEA89FB89808180620AC09FB7D6
:100B0000F894EE89FF896083E889F9898081837090
:100B1000806480839FBF81E090E0DF91CF911F913F
:100B20000F91FF90EF900895CF93DF93EC01888DA4
:100B30008823C9F0EA89FB89808185FD05C0A889E1
:100B4000B9898C9186FD0FC00FB607FCF5CF808167
:100B500085FFF2CFA889B9898C9185FFEDCFCE01B1
:100B60000E942505E7CFDF91CF91089580E090E0C6
:100B7000892B21F00E941B0581111DC080E090E0AF
:100B8000892B41F080E090E0892B21F00E94000049
:100B9000811114C080E090E0892B21F00E941105A2
:100BA00081110FC080E090E0892B81F00E94070541
:100BB00081110AC008950E940000E0CF0E94000049
:100BC000E9CF0E940000EECF0C94000008950E942F
:100BD000BF230F931F93CF93DF93EB010E940C1061
:100BE0008B010E94C9038F3F49F00E940C10601BCB
:100BF000710B6C177D07A8F380E001C081E0DF91E5
:100C0000CF911F910F91089561E0FC0184810E94B2
:100C1000670F809105058111109205050895CF9306
:100C2000DF93EC018E81882389F08F8198859C0168
:100C30002F5F3F4F38872F838230924018F40E94F5
:100C4000C903F3CFCE010E9404061E82DF91CF912B
:100C500008958F929F92AF92BF92FF920F931F932E
:100C6000CF93DF93EC01F62E49015A010E940F0643
:100C700080910505811109C081E08093050590915F
:100C8000E2088091E3089CBD8DBD60E08C810E94EC
:100C9000670F6CE271E0CE010E94E9058F2D806440
:100CA0000E94C20308E110E0D501C401002E04C077
:100CB000B695A795979587950A94D2F70E94C20397
:100CC00008501109083F8FEF180771F7FF2029F02E
:100CD00088E0F81204C087E803C085E901C08FEFFF
:100CE0000E94C20310E00E94C9038A8787FF04C0E4
:100CF0001F3F11F01F5FF7CFDF91CF911F910F9131
:100D0000FF90BF90AF909F908F900895EF92FF92C9
:100D10000F931F93CF93DF93EC0179014115510598
:100D20006105710511F482E13CC08B85833039F097
:100D300089E0440F551F661F771F8A95D1F79A01E6
:100D4000AB0168E1CE010E942906882311F084E0FE
:100D500028C08EEF0E94C20387018EEFF81AF801B7
:100D600081918F010E94C203E016F106C1F78FEF57
:100D70000E94C2038FEF0E94C2030E94C9038A87A8
:100D80008F71853031F081E18D83CE010E940406A0
:100D900009C068E572E0CE010E94E905811107C033
:100DA00085E18D83CE010E94040680E014C020E01E
:100DB00030E0A9016DE0CE010E942906811109C031
:100DC0000E94C903811105C0CE010E94040681E082
:100DD00002C084E1E6CFDF91CF911F910F91FF9088
:100DE000EF90089580910605882389F140913B0298
:100DF00050913C0260913D0270913E022BE035E043
:100E000080E090E00E948606811102C080E0089593
:100E100040910705509108056091090570910A05F8
:100E2000411551056105710581F02BE035E080E049
:100E300090E00E948606882349F3109207051092DD
:100E400008051092090510920A051092060581E026
:100E50000895AF92BF92CF92DF92EF92FF921F93CD
:100E6000CF93DF936B017C01142F80913B02909113
:100E70003C02A0913D02B0913E028C159D05AE054D
:100E8000BF0509F48FC00E94F206882309F490C0C0
:100E9000809106008823A1F08091000090910100CC
:100EA000A0910200B0910300C816D906EA06FB061D
:100EB00039F48091070090910800892B09F443C010
:100EC000C0920000D0920100E0920200F092030074
:100ED00080910B00A7019601833039F099E0220F31
:100EE000331F441F551F9A95D1F761E180E090E0D0
:100EF0000E942906882321F083E08093050044C0E6
:100F00000E940C10EB010E94C90380930A008F3FDE
:100F100049F40E940C106C1B7D0B6D32714098F3EC
:100F20008FE003C08E3F41F08DE08093050080E0AC
:100F300090E00E94040628C010920800109207005A
:100F400081E080930600CBE0D5E08BE0A82E87E01F
:100F5000B82E0E94C9038993AC16BD06D1F78091C3
:100F60000700909108009E5F90930800809307000F
:100F700020910900222319F08115924058F080E059
:100F800090E00E940F0606C080E090E00E940406F8
:100F900080E00EC0C0923B02D0923C02E0923D0243
:100FA000F0923E0240910605412B4093060581E0F8
:100FB000DF91CF911F91FF90EF90DF90CF90BF9086
:100FC000AF9008951F920F920FB60F9211240BB697
:100FD0000F922F933F934F935F936F937F938F93D2
:100FE0009F93AF93BF93EF93FF938BE097E00E94A3
:100FF0002505FF91EF91BF91AF919F918F917F91C7
:101000006F915F914F913F912F910F900BBE0F9079
:101010000FBE0F901F9018951F920F920FB60F9250
:1010200011240BB60F922F933F934F935F936F93BF
:101030007F938F939F93AF93BF93EF93FF938BE037
:1010400097E00E94250FFF91EF91BF91AF919F9183
:101050008F917F916F915F914F913F912F910F9061
:101060000BBE0F900FBE0F901F9018951F920F92FE
:101070000FB60F9211240BB60F922F933F934F93FD
:101080005F936F937F938F939F93AF93BF93EF93F0
:10109000FF9388EA97E00E942505FF91EF91BF91A9
:1010A000AF919F918F917F916F915F914F913F9100
:1010B0002F910F900BBE0F900FBE0F901F901895A1
:1010C0001F920F920FB60F9211240BB60F922F930F
:1010D0003F934F935F936F937F938F939F93AF93C0
:1010E000BF93EF93FF9388EA97E00E94250FFF914B
:1010F000EF91BF91AF919F918F917F916F915F9190
:101100004F913F912F910F900BBE0F900FBE0F90FC
:101110001F9018951F920F920FB60F9211240BB6C5
:101120000F922F933F934F935F936F937F938F9380
:101130009F93AF93BF93EF93FF9385E498E00E9452
:101140002505FF91EF91BF91AF919F918F917F9175
:101150006F915F914F913F912F910F900BBE0F9028
:101160000FBE0F901F9018951F920F920FB60F92FF
:1011700011240BB60F922F933F934F935F936F936E
:101180007F938F939F93AF93BF93EF93FF9385E4E8
:1011900098E00E94250FFF91EF91BF91AF919F9131
:1011A0008F917F916F915F914F913F912F910F9010
:1011B0000BBE0F900FBE0F901F9018954F925F922D
:1011C0006F927F928F929F92AF92BF92CF92DF9257
:1011D000EF92FF920F931F93CF93DF93EC01423076
:1011E00051056105710510F480E078C089859A8504
:1011F000AB85BC850196A11DB11D84179507A60777
:10120000B70790F3CB88DC88ED88FE888F89803122
:1012100029F4BB27A72F962F852F09C0DB01CA0110
:10122000E7E0B695A79597958795EA95D1F7480198
:1012300059012A013B01C80ED91EEA1EFB1E8091EE
:101240003B0290913C02A0913D02B0913E02C81633
:10125000D906EA06FB0681F48F898031A9F4B3012F
:10126000A201552766277727440F551FFA01E55F2E
:10127000FA4F9182808219C040E0C701B6010E94F6
:1012800029078111E9CFB0CFB301A2014F775527CC
:1012900066277727440F551F440F551FFA01E55F56
:1012A000FA4F80829182A282B3828091060581608A
:1012B000809306058A89823080F08D819E81AF817E
:1012C000B885C80ED91EEA1EFB1EC0920705D09233
:1012D0000805E0920905F0920A0581E0DF91CF91BF
:1012E0001F910F91FF90EF90DF90CF90BF90AF9044
:1012F0009F908F907F906F905F904F9008958F9206
:101300009F92AF92BF92CF92DF92EF92FF920F9394
:101310001F93CF93DF93FC0181859285A385B485CC
:101320000196A11DB11D84179507A607B70710F4F4
:1013300080E05BC083889488A588B68887898031DF
:1013400029F4BB27A72F962F852F09C0DB01CA01DF
:10135000C7E0B695A79597958795CA95D1F7E90106
:101360006A017B018F01BC01CD01680D791D8A1DC9
:101370009B1D80903B0290903C02A0903D02B0905B
:101380003E02681579058A059B0591F4F801878965
:101390008031A1F4DD24EE24FF24C601880F991FBB
:1013A000FC01E55FFA4F80819181A0E0B0E018C0B8
:1013B00040E00E9429078111E9CFBACFE894C7F82D
:1013C000DD24EE24FF24C601880F991F880F991F82
:1013D000FC01E55FFA4F80819181A281B381BF70EA
:1013E00088839983AA83BB8381E0DF91CF911F918A
:1013F0000F91FF90EF90DF90CF90BF90AF909F90B4
:101400008F9008954F925F926F927F92AF92BF92AA
:10141000CF92DF92EF92FF920F931F93CF93DF93C0
:1014200000D01F921F92CDB7DEB78C016D83DC0117
:1014300015968C911597813009F054C014968C91B3
:1014400081FF50C057C0258530E0275F3F4F2A01FC
:101450003B01B1E04B1A510861087108022E04C02B
:1014600076946794579447940A94D2F7D701C601AB
:101470000197A109B10904C0B695A79597958795DD
:101480002A95D2F784159505A605B70508F076C00C
:10149000F8014789508D618D728D4683578360872F
:1014A00071872C013D015801F6E0AF0EB11C4114CB
:1014B00051046104710409F46BC0D80116964D9172
:1014C0005D916D917C91199795015B968D919C91A1
:1014D0005C970E947F09B1E04B1A510861087108BE
:1014E0008111E5CF81E090E0F8019383828380E071
:1014F00090E05BC182FF0EC0F80142855385648590
:101500007585C388D488E588F6884C155D056E0519
:101510007F05E9F4D8011A964D915D916D917C910A
:101520001D975B96ED91FC915C97948191506A01B7
:101530007B0189E0F694E794D794C7948A95D1F714
:101540009C217A01B1E0FB22911173C027C0D80120
:10155000038CF48DE02DC114D104E104F10409F0F1
:1015600072CF16961D921D921D921C9219971A9673
:101570001D921D921D921C921D9714C0452B462B47
:10158000472B09F485CF84199509A609B70989CF96
:10159000F801C286D386E486F586BCCFE114F10457
:1015A00009F047C0D80116964D915D916D917C91DF
:1015B0001997411551056105710559F457968D919B
:1015C0009D910D90BC91A02D0097A105B10549F505
:1015D00022C09E012F5F3F4FCF010E947F098823C9
:1015E00009F485CF89819A81AB81BC81F801238D73
:1015F000348DF9012789203129F448EF5FEF60E04D
:1016000070E004C048EF5FEF6FEF7FE0841795074D
:10161000A607B70730F0C8010E94220E811106C04C
:1016200061CFF80186839783A087B187E12CF12CE5
:1016300090E0D8015B96ED91FC915C9716964D90E9
:101640005D906D907C901997B2E04B1A510861083B
:101650007108058404C0440C551C661C771C0A9450
:10166000D2F74685578560897189440E551E661EDE
:10167000771E490E511C611C711CE114F10409F51F
:10168000F801428553856485758583899489A58988
:10169000B689481759076A077B0798F00E94F20637
:1016A000882309F41FCF40923B0250923C02609283
:1016B0003D0270923E02809106058160809306058E
:1016C00008C041E0C301B2010E942907882309F440
:1016D00009CFF701E55FFA4F8D818083F80182859C
:1016E0009385A485B5850196A11DB11D8287938739
:1016F000A487B5874389548965897689481759072E
:101700006A077B0738F4838B948BA58BB68B848117
:1017100080688483D80114968C9183FD03C081E096
:1017200090E043C0F8019581992309F4DBCE87FF4F
:1017300037C0668577858089918941E00E942907B5
:10174000882309F4CFCED8015296EC91B0E2EB9FFA
:10175000F0011124E55FFA4F309709F4C3CED801A8
:1017600015968C911597823050F453964D915D915A
:101770006D917C915697448F558F668F778FD801E6
:1017800057964D915D916D917C915A97538F428FF1
:10179000758B648B14968C9114978F7714968C9319
:1017A0000E94F2068111BBCF9DCE0F900F900F903B
:1017B0000F900F90DF91CF911F910F91FF90EF90BD
:1017C000DF90CF90BF90AF907F906F905F904F90E1
:1017D000089590E0FC013197E231F10508F04EC028
:1017E0008827EE58FF4F8F4F0C94B12180918000D5
:1017F0008F7703C0809180008F7D80938000089553
:1018000080918000877FF9CF84B58F7702C084B53F
:101810008F7D84BD08958091B0008F7703C0809143
:10182000B0008F7D8093B0000895809190008F77F5
:1018300007C0809190008F7D03C080919000877FCA
:101840008093900008958091A0008F7707C08091C9
:10185000A0008F7D03C08091A000877F8093A000AF
:101860000895809120018F7707C0809120018F7D9E
:1018700003C080912001877F8093200108953FB7A6
:10188000F8948091190B90911A0BA0911B0BB091B9
:101890001C0B26B5A89B05C02F3F19F00196A11D72
:1018A000B11D3FBFBA2FA92F982F8827820F911DF6
:1018B000A11DB11DBC01CD0142E0660F771F881F3D
:1018C000991F4A95D1F70895AF92BF92CF92DF92B8
:1018D000EF92FF920F931F93CF93DF93CDB7DEB7B5
:1018E00028970FB6F894DEBF0FBECDBF6A017B010B
:1018F0000091640A1091650A0C5F1F4F880F991FB1
:10190000880F991F080F191F44E050E0B801CE015D
:1019100001960E941C2089819A81AB81BC81C816E6
:10192000D906EA06FB0609F4B4C0CD82DE82EF8256
:10193000F88644E050E0B801CE0105960E942C20C4
:1019400080916C0A90916D0AA0916E0AB0916F0A15
:101950000196A11DB11D80936C0A90936D0AA0930E
:101960006E0AB0936F0A81319742A105B1050CF45C
:101970006AC000916A0A10916B0A0F5F1F4F000F37
:10198000111F000F111F8091640A9091650A080FC2
:10199000191F8091660A9091670A8017910714F4C5
:1019A00002E010E05801E12CF12CC12CD12C84E094
:1019B000A80EB11C80916A0A90916B0AC816D906CC
:1019C000E4F46091640A7091650A6C5F7F4F6E0D5C
:1019D0007F1D44E050E0CE0101960E941C2044E0AF
:1019E00050E0B501CE0101960E942C202FEFC21AC3
:1019F000D20A84E0E80EF11CDACF1093650A009356
:101A0000640A1A83098342E050E060E070E0CE018E
:101A100001960E942C2010926C0A10926D0A10926E
:101A20006E0A10926F0A1A8219826091640A70918C
:101A3000650A42E050E0CE0101960E942C201092EF
:101A4000690A1092680A8091680A9091690A019661
:101A50009093690A8093680A883E9340D4F08091FD
:101A60006C0A90916D0AA0916E0AB0916F0A8983F9
:101A70009A83AB83BC836091640A7091650A44E0E9
:101A800050E0CE0101960E942C201092690A10921B
:101A9000680A28960FB6F894DEBF0FBECDBFDF915F
:101AA000CF911F910F91FF90EF90DF90CF90BF905B
:101AB000AF900895CF93DF9300D01F92CDB7DEB7DC
:101AC0006091640A7091650A6C5F7F4F880F991F5F
:101AD000880F991F680F791F44E050E0CE010196EE
:101AE0000E941C2069817A818B819C810F900F90CC
:101AF0000F900F90DF91CF9108956115710551F00E
:101B0000FB0101900020E9F73197AF01461B570B0D
:101B10000C94A00480E090E00895CF93DF93BC0183
:101B200085E498E00E947D0DEC0169EA74E085E4AB
:101B300098E00E947D0D8C0F9D1FDF91CF9108953D
:101B40006FEF88EA97E00C9447050C947D0D8F9217
:101B50009F92AF92BF92EF92FF920F931F93CF93FA
:101B6000DF93CDB7DEB7A1970FB6F894DEBF0FBEF7
:101B7000CDBF7C01FA01CB0119A2223008F42AE082
:101B80008E010F5D1F4F822E912CA12CB12CBF0115
:101B9000A50194010E947021F901CA0101501109A7
:101BA0006A3014F4605D01C0695CD8016C93232B2A
:101BB000242B252B61F7B801C7010E947D0DA1964A
:101BC0000FB6F894DEBF0FBECDBFDF91CF911F914E
:101BD0000F91FF90EF90BF90AF909F908F900895DE
:101BE000CF92DF92EF92FF92CF93DF93AB01BC01D4
:101BF00077FF1DC06A017B016DE288EA97E00E94D1
:101C00004705EC0144275527BA014C195D096E09B7
:101C10007F092AE088EA97E00E94A70D8C0F9D1F9C
:101C2000DF91CF91FF90EF90DF90CF9008952AE061
:101C300088EA97E0DF91CF91FF90EF90DF90CF900F
:101C40000C94A70D3F924F925F926F927F928F926A
:101C50009F92AF92BF92CF92DF92EF92FF920F933B
:101C60001F93CF93DF93CDB7DEB72C970FB6F894C1
:101C7000DEBF0FBECDBF5C01DC015B968D909C90FA
:101C80005C971696CD90DD90ED90FC901997C1145D
:101C9000D104E104F10439F0BFEFCB1ADB0AEB0AFF
:101CA000FB0A312C07C0F401C080D180E280F380B0
:101CB00033243394F40181859285A385B4859C01F6
:101CC000AD012F5F3F4F4F4F5F4F29873A874B87BB
:101CD0005C87260137011D821E821F821886F4014F
:101CE00081859285A385B4852D813E814F8158855C
:101CF000281739074A075B0708F063C089859A856A
:101D0000AB85BC858C159D05AE05BF0550F482E002
:101D1000C82ED12CE12CF12C92E0492E512C612CB3
:101D2000712C9E012F5F3F4FB701A601C4010E9495
:101D30007F09882309F445C089819A81AB81BC81E0
:101D4000892B8A2B8B2B41F0260137019FEF491AF3
:101D5000590A690A790A05C0C414D504E604F704CF
:101D600091F02D813E814F8158852F5F3F4F4F4F1E
:101D70005F4F2D833E834F8358873FEFC31AD30AAB
:101D8000E30AF30AACCF0FEF1FEF2FEF3FE0B301F1
:101D9000A201C4010E94DE08882399F0D50116969D
:101DA0004D915D916D917C9119974115510561059A
:101DB000710549F093018201C4010E94DE0881117E
:101DC00002C080E02AC0D50116964D925D926D92B8
:101DD0007C921997332051F0D301C2010196A11DC5
:101DE000B11DF40180839183A283B383F5018789B8
:101DF000908DA18DB28D892B8A2B8B2B69F4D50107
:101E000057964D925D926D927C925A9714968C9152
:101E10001497806814968C9381E02C960FB6F894F2
:101E2000DEBF0FBECDBFDF91CF911F910F91FF900D
:101E3000EF90DF90CF90BF90AF909F908F907F906A
:101E40006F905F904F903F900895FC01A089B189F9
:101E50008C91A689B78982FD0FC09C91818D8F5F7F
:101E60008F73228D821749F0218DDF01A20FB11DE2
:101E70005D969C93818F08958C910895CF93DF9305
:101E8000282F30E0F901E852FD4F8491F901E9571C
:101E9000FD4FD491F901EA5CFD4FC491CC2391F040
:101EA00081110E94E90BEC2FF0E0EE0FFF1FE45EC2
:101EB000FD4FA591B491EC91ED2381E090E021F4E8
:101EC00080E002C080E090E0DF91CF9108951F9301
:101ED000CF93DF93282F30E0F901E852FD4F849132
:101EE000F901E957FD4FD491F901EA5CFD4FC49126
:101EF000CC23C1F0162F81110E94E90BEC2FF0E0EA
:101F0000EE0FFF1FEE5FFD4FA591B4919FB7F894C0
:101F1000111104C08C91D095D82302C0EC91DE2B16
:101F2000DC939FBFDF91CF911F910895CF93DF93F3
:101F300090E0FC01E957FD4F2491FC01EA5CFD4F64
:101F40008491882361F190E0880F991FFC01E8518A
:101F5000FE4FC591D491FC01EE5FFD4FA591B49168
:101F6000611109C09FB7F8948881209582238883E6
:101F7000EC912E230BC0623061F49FB7F8948881F6
:101F8000322F309583238883EC912E2B2C939FBF87
:101F900006C08FB7F894E8812E2B28838FBFDF917E
:101FA000CF9108958F929F92AF92BF92CF92DF927E
:101FB000EF92FF926B017C010E943F0C4B015C0190
:101FC000C114D104E104F104F1F00E943F0CDC01E2
:101FD000CB0188199909AA09BB09883E9340A1053C
:101FE000B10570F321E0C21AD108E108F10888EECA
:101FF000880E83E0981EA11CB11CC114D104E10419
:10200000F10419F7DDCFFF90EF90DF90CF90BF90F4
:10201000AF909F908F9008952FB7F8946091150B13
:102020007091160B8091170B9091180B2FBF08958C
:102030001F920F920FB60F9211242F933F938F93FD
:102040009F93AF93BF938091150B9091160BA09126
:10205000170BB091180B3091140B23E0230F2D3781
:1020600020F40196A11DB11D05C026E8230F02969C
:10207000A11DB11D2093140B8093150B9093160B8B
:10208000A093170BB093180B8091190B90911A0B1A
:10209000A0911B0BB0911C0B0196A11DB11D80934B
:1020A000190B90931A0BA0931B0BB0931C0BBF91B1
:1020B000AF919F918F913F912F910F900FBE0F90F5
:1020C0001F901895789484B5826084BD84B5816032
:1020D00084BD85B5826085BD85B5816085BD8091F3
:1020E0006E00816080936E0010928100809181006B
:1020F0008260809381008091810081608093810063
:10210000809180008160809380008091B100846024
:102110008093B1008091B00081608093B000809185
:102120009100826080939100809191008160809302
:102130009100809190008160809390008091A10037
:1021400082608093A1008091A10081608093A100B2
:102150008091A00081608093A00080912101826025
:1021600080932101809121018160809321018091E0
:10217000200181608093200180917A0084608093A7
:102180007A0080917A00826080937A0080917A0050
:10219000816080937A0080917A00806880937A00D1
:1021A0001092C100E0915508F091560822E020837A
:1021B000E0915108F09152081082E0915308F0919B
:1021C000540880E1808310925D08E0915908F091F5
:1021D0005A0896E09083E0915708F0915808808162
:1021E00080618083E0915708F09158088081886071
:1021F0008083E0915708F09158088081806880833F
:10220000E0915708F091580880818F7D8083E0919C
:10221000B807F091B9072083E091B407F091B507B2
:102220001082E091B607F091B7078FEC808310928F
:10223000C007E091BC07F091BD079083E091BA0719
:10224000F091BB07808180618083E091BA07F091B3
:10225000BB07808188608083E091BA07F091BB075B
:10226000808180688083E091BA07F091BB0780810C
:102270008F7D80838EE292E09093150A8093140AFA
:102280001092170A1092160A8CE092E09093090AB5
:102290008093080A10920B0A10920A0A8DEE91E0C0
:1022A000909361098093600910926309109262090A
:1022B0008EEC91E0909331098093300910923309AC
:1022C000109232098EE492E09093FD098093FC090C
:1022D0001092FF091092FE098FE392E09093F109AA
:1022E0008093F0091092F3091092F20984E892E0C9
:1022F0009093A9098093A8091092AB091092AA099A
:1023000086E392E09093E5098093E4091092E7094F
:102310001092E6098AED92E0909355098093540952
:1023200010925709109256098AEB92E0909349094E
:102330008093480910924B0910924A0982E994E06F
:102340009093CD098093CC091092CF091092CE09B9
:102350008DE592E09093D9098093D8091092DB091A
:102360001092DA098AE992E09093C1098093C0093A
:102370001092C3091092C2098FE892E09093B509B8
:102380008093B4091092B7091092B60989E792E0D8
:1023900090936D0980936C0910926F0910926E09E9
:1023A000109227091092260910921B0910921A09FF
:1023B0008AE193E0909325098093240986EF92E0C7
:1023C000909319098093180984E294E090939D09F1
:1023D00080939C0910929F0910929E098FE194E0CE
:1023E0009093A1098093A0091092A3091092A209C9
:1023F0008AE194E090939109809390091092930957
:102400001092920985E194E0909395098093940944
:10241000109297091092960980E194E090937909BF
:102420008093780910927B0910927A098BE094E0EE
:1024300090937D0980937C0910927F0910927E0908
:1024400086E094E09093850980938409109287092F
:102450001092860981E094E090938909809388091D
:1024600010928B0910928A0985EA92E090933D09B7
:1024700080933C0910923F0910923E0983E392E059
:1024800090934109809340091092430910924209A8
:1024900068EB7BE080E090E00E94D20F88EA97E052
:1024A0000E94FB04892B29F088EA97E00E94D90456
:1024B000F5CF67E672E088EA97E00E94A50D0E94DA
:1024C000A00D0E94A00D0E94A00D0E948C0460E04F
:1024D0008BE30E94960F60E08CE30E94960F60E011
:1024E00086E30E94960F60E087E30E94960F60E00B
:1024F00088E30E94960F60E089E30E94960F60E0F7
:102500008DE30E94960F61E08BE00E94960F61E0E0
:102510008AE00E94960F60ED77E080E090E00E94F4
:10252000D20F61E082EC9AE00E94EF038EE692E027
:102530000E948D0D11E02AE0222E312C06E038EEAB
:10254000832E33E0932EA12CB12C809102028111B5
:1025500003C01093D80406C08091D804811102C032
:102560001092D9048CE30E943E0F019721F410933E
:10257000D9041093D8048BE30E943E0F019711F405
:102580001092D90486E30E943E0F019731F487E34D
:102590000E943E0F019709F429C61092D4041093AB
:1025A000E8041092D8041092D90488E30E943E0FE8
:1025B00089E30E943E0F80917B00877F80937B00A0
:1025C00097E4C92EC0927C0080917A008064809349
:1025D0007A0080917A0086FDFCCF6091780080912E
:1025E000790070E0782B072E000C880B990B0E9465
:1025F000FF1E28E539E34EED51E40E94B1206B0146
:102600007C0120E030E040E850E46091E404709107
:10261000E5048091E6049091E7040E945E1FA70103
:1026200096010E94452020E030E040EA50E40E94FC
:10263000B1206093E4047093E5048093E6049093E2
:10264000E70420E030E04AE754E40E945E1F0E9465
:1026500023216B017C01AB012091E2043091E30462
:1026600026173707C0F58091E0049091E10497FDAB
:1026700019C001969093E1048093E0048091DC04FA
:102680009091DD04A091DE04B091DF048C0D9D1DBE
:10269000A11DB11D8093DC049093DD04A093DE04A2
:1026A000B093DF048091E0049091E10497FF13C0A0
:1026B0001092E1041092E0041092DC041092DD0408
:1026C0001092DE041092DF044217530708F07FC017
:1026D00080E090E00AC04217530798F58091E0042B
:1026E0009091E10418161906CCF001979093E1043B
:1026F0008093E0048091DC049091DD04A091DE04DD
:10270000B091DF048C0D9D1DA11DB11D8093DC04D3
:102710009093DD04A093DE04B093DF048091E00485
:102720009091E1041816190664F41092E1041092D5
:10273000E0041092DC041092DD041092DE0410928A
:10274000DF048091E0049091E10497FF03C091952C
:10275000819591090597D9F56091DC047091DD04AC
:102760008091DE049091DF0425E030E040E050E00D
:102770000E9492218091DA049091DB0469017A0130
:10278000C81AD90AE108F108D701C601F7FE07C047
:10279000B095A095909581959F4FAF4FBF4FC39730
:1027A000A105B10544F03093E3042093E204309393
:1027B000DB042093DA041092E1041092E0041092FA
:1027C000DC041092DD041092DE041092DF046091AC
:1027D000E2047091E30480E090E00E94FD1E20E09E
:1027E00030E04AE754E40E94B1206093F304709310
:1027F000F4048093F5049093F60423E333E148EB6B
:1028000054E40E945E1F0E942321CB01B1010E946B
:102810005C218AE0D82ED69EC001D79E900D11244F
:102820009093FC048093FB04909102028091D90460
:10283000992321F0882331F08091D804882311F066
:1028400061E001C060E08BE00E94670F8091E804C6
:10285000882371F18091790A81110DC00E940C10BA
:102860006093700A7093710A8093720A9093730A4E
:102870001093790A21C00E940C10C090700AD09069
:10288000710AE090720AF090730ADC01CB018C1996
:102890009D09AE09BF098D3B9240A105B10560F0CD
:1028A0001092790A8AE00E943E0F61E0892B09F0BC
:1028B00060E08AE00E94670F88EA97E00E94FB04CC
:1028C000181619060CF045C06AE070E080E090E050
:1028D0000E94D20F88EA97E00E94D904C82F85365B
:1028E00059F788EA97E00E94FB0406972CF3C093FF
:1028F000E904CAEED4E088EA97E00E94D9048993FB
:1029000084E0C03FD807B9F71092F0048091ED043D
:102910008F3F91F68091EE048F3F71F68091EF0426
:102920008F3F51F6C090EC04D12CE12CF12C90910A
:10293000EB042091EA04E3E0F2E0C191D191209709
:1029400009F4BACF88812813F8CF89819813F5CF7D
:1029500052C48091D6049091D704019709F0DCC14C
:102960009091D5048091D904981769F062E872E0DB
:1029700088EA97E00E94A50D0E948C048091D504FE
:1029800081278093D50490910202809101029817CB
:1029900061F06EE872E088EA97E00E94A50D0E945F
:1029A0008C0480910202809301028091D404909162
:1029B0000002981769F16AE972E081110DC088EA96
:1029C00097E00E94A50D62EA72E088EA97E00E9413
:1029D000A50D64EA72E00CC088EA97E00E94A50D9C
:1029E00062EA72E088EA97E00E94A50D6BEA74E063
:1029F00088EA97E00E94A50D62EA72E088EA97E013
:102A00000E94A50D0E948C048091D4048093000242
:102A10008091D404882309F474C0809101059091B9
:102A20000205A0910305B09104054091FD04509169
:102A3000FE046091FF0470910005481759076A076A
:102A40007B0709F45EC00197A109B1096AE972E048
:102A5000873E9340A105B105E0F588EA97E00E9422
:102A6000A50D62EA72E088EA97E00E94A50D6FEA80
:102A700072E088EA97E00E94A50D4091010550910F
:102A8000020560910305709104052AE088EA97E049
:102A90000E94A70D67E473E088EA97E00E94A50D05
:102AA00062EA72E088EA97E00E94A50D0E948C0419
:102AB0008091010590910205A0910305B091040554
:102AC0008093FD049093FE04A093FF04B09300054F
:102AD00018C088EA97E00E94A50D62EA72E088EAD1
:102AE00097E00E94A50D6BEA74E088EA97E00E94E7
:102AF000A50D62EA72E088EA97E00E94A50D0E94A7
:102B00008C048091D30490E02091390230913A02F4
:102B10008217930761F167EB72E088EA97E00E9401
:102B2000A50D62EA72E088EA97E00E94A50D809107
:102B3000390290913A020197089FF001099FF00D28
:102B40001124E45EF54F448155816081718188EAEA
:102B500097E00E94A00462EA72E088EA97E00E948F
:102B6000A50D0E948C04809139028093D30480EBE0
:102B70009AE00E94D6039091D204891769F06FEB16
:102B800072E088EA97E00E94A50D0E948C04809173
:102B9000D20481278093D20489EB9AE00E94D60365
:102BA0009091D104891769F06BEC72E088EA97E0A4
:102BB0000E94A50D0E948C048091D10481278093EE
:102BC000D10487EA9AE00E94D6039091D004891735
:102BD00069F067ED72E088EA97E00E94A50D0E9417
:102BE0008C048091D00481278093D0048EE99AE0F0
:102BF0000E94D6039091CF048917C1F063EE72E072
:102C000088EA97E00E94A50D8EE99AE00E94D6031B
:102C1000682F70E080E090E00E94F00D0E948C042C
:102C20008EE99AE00E94D6038093CF0485E99AE06A
:102C30000E94D6039091CE048917C1F06DEE72E028
:102C400088EA97E00E94A50D85E99AE00E94D603E4
:102C5000682F70E080E090E00E94F00D0E948C04EC
:102C600085E99AE00E94D6038093CE048CE89AE02E
:102C70000E94D6039091CD048917C1F067EF72E0EE
:102C800088EA97E00E94A50D8CE89AE00E94D6039E
:102C9000682F70E080E090E00E94F00D0E948C04AC
:102CA0008CE89AE00E94D6038093CD0483E89AE0F2
:102CB0000E94D6039091CC048917C1F061E073E0C3
:102CC00088EA97E00E94A50D83E89AE00E94D60367
:102CD000682F70E080E090E00E94F00D0E948C046C
:102CE00083E89AE00E94D6038093CC0482EC9AE0B9
:102CF0000E94D6039091CB04891771F06BE073E0CA
:102D000088EA97E00E94A50D0E948C0482EC9AE06C
:102D10000E94D6038093CB048091D6049091D7046F
:102D2000029709F06BC1C090C904D090CA04E12C8D
:102D3000F12C80E090E00E945A0DC616D706E806F6
:102D4000F90651F10E948C046AE972E088EA97E082
:102D50000E94A50D62EA72E088EA97E00E94A50D44
:102D600080E090E00E945A0D0E94F00D67E173E050
:102D700088EA97E00E94A50D62EA72E088EA97E08F
:102D80000E94A50D0E948C0480E090E00E945A0DE4
:102D90007093CA046093C9042091C7043091C80499
:102DA0008091FB049091FC042817390709F491C025
:102DB0000E940C10C090F704D090F804E090F90441
:102DC000F090FA04C616D706E806F90608F081C0A6
:102DD00065E573E088EA97E00E94A50D4091FB0449
:102DE0005091FC0460E070E02AE088EA97E00E94DD
:102DF000A70D0E948C046DE573E088EA97E00E94BD
:102E0000A50D62EA72E088EA97E00E94A50D409164
:102E1000FB045091FC0460E070E02AE088EA97E04F
:102E20000E94A70D65E673E088EA97E00E94A50D71
:102E300062EA72E088EA97E00E94A50D0E948C0485
:102E40008091FB049091FC049093C8048093C70484
:102E500068E673E088EA97E00E94A50D62EA72E0F6
:102E600088EA97E00E94A50DC090F304D090F40486
:102E7000E090F504F090F604A7019601C701B601B1
:102E80000E945721882309F415C26BE173E088EA98
:102E900097E00E947D0D67E273E088EA97E00E9468
:102EA000A50D62EA72E088EA97E00E94A50D0E94F3
:102EB0008C040E940C10DC01CB0188539F4FAF4F54
:102EC000BF4F8093F7049093F804A093F904B09354
:102ED000FA0482E090E00E945A0DC090C104D090A4
:102EE000C204E090C304F090C4046C157D058E0507
:102EF0009F0531F16CE273E088EA97E00E94A50D2E
:102F000062EA72E088EA97E00E94A50D82E090E014
:102F10000E945A0D0E94F00D62EA72E088EA97E082
:102F20000E94A50D0E948C0482E090E00E945A0D40
:102F30006093C1047093C2048093C3049093C4044B
:102F400081E090E00E945A0DC090BD04D090BE0474
:102F5000E090BF04F090C0046C157D058E059F05C0
:102F600031F165E373E088EA97E00E94A50D62EA1B
:102F700072E088EA97E00E94A50D81E090E00E944F
:102F80005A0D0E94F00D62EA72E088EA97E00E9412
:102F9000A50D0E948C0481E090E00E945A0D609380
:102FA000BD047093BE048093BF049093C0048091CD
:102FB000BC04882319F10E940C10C090B804D09072
:102FC000B904E090BA04F090BB04DC01CB018C1989
:102FD0009D09AE09BF0989389341A105B10570F07B
:102FE00040E050E0BA0181E090E00E94640C40E0D3
:102FF00050E0BA0182E090E00E94640C8091D60417
:103000009091D704039709F0AFC083E090E00E944D
:103010005A0DC090B404D090B504E090B604F0907E
:10302000B7046C157D058E059F0521F10E948C0467
:103030006AE972E088EA97E00E94A50D62EA72E010
:1030400088EA97E00E94A50D83E090E00E945A0D67
:103050000E94F00D62EA72E088EA97E00E94A50DF6
:103060000E948C0483E090E00E945A0D7093CA0481
:103070006093C90484E090E00E945A0DC090B004AF
:10308000D090B104E090B204F090B3046C157D05CB
:103090008E059F0561F16EE373E088EA97E00E9478
:1030A000A50D62EA72E088EA97E00E94A50D84E02F
:1030B00090E00E945A0D0E94F00D66E473E088EAE9
:1030C00097E00E94A50D62EA72E088EA97E00E940C
:1030D000A50D0E948C0484E090E00E945A0D60933C
:1030E000C1047093C2048093C3049093C40485E028
:1030F00090E00E945A0DC090AC04D090AD04E090D6
:10310000AE04F090AF046C157D058E059F0561F14E
:1031100069E473E088EA97E00E94A50D62EA72E034
:1031200088EA97E00E94A50D85E090E00E945A0D84
:103130000E94F00D66E473E088EA97E00E94A50D16
:1031400062EA72E088EA97E00E94A50D0E948C0472
:1031500085E090E00E945A0D6093C1047093C20410
:103160008093C3049093C4048091D9048823D9F137
:103170000E940C1090958095709561957F4F8F4FB0
:103180009F4FA50194010E94702120930105309367
:10319000020540930305509304058091D8048823C9
:1031A00011F10E940C10672B682B692BE1F08091C4
:1031B000390290913A028130910509F0F6C048EE4B
:1031C00053E06CED75E08EE99AE00E94290480914D
:1031D000A30A882341F01092D80482E090E09093F3
:1031E0003A02809339020E94B605AFC91093D40405
:1031F0001092E804DAC961E573E085E498E00E9482
:10320000A50D2AE0AE010D2E000C660B770B85E4B0
:1032100098E00E94A70D63E573E085E498E00E94C2
:10322000A50D488150E060E070E02AE085E498E078
:103230000E94A70D69E073E085E498E00E94A50D67
:10324000498150E060E070E02AE085E498E00E9467
:10325000A70D69E073E085E498E00E94A50D6A81FE
:103260007B816115710511F469E772E085E498E0EE
:103270000E94A50D80E892E00E948D0D21E0C2160B
:10328000D104E104F10441F4EC81FD81309709F4AB
:1032900013CB8E819F810CC0CD28CE28CF2809F07A
:1032A0000BCBE885F985309709F406CB8A859B8599
:1032B000199502CB26013701E89477F82FEF3FEFFD
:1032C0004FE75FE7C301B2010E94572181110DC092
:1032D0002FEF3FEF4FE75FE7C301B2010E94F81EF7
:1032E00018161CF46FE173E0D2CD2FEF3FEF4FE7DC
:1032F0005FE4C701B6010E94522118161CF463E274
:1033000073E0C5CD2FEF3FEF4FE75FECC701B6018C
:103310000E94F81E87FDF3CF20E030E0A901C7012D
:10332000B6010E94F81E87FF09C06DE288EA97E0A7
:103330000E944705F7FAF094F7F8F0942DEC3CEC76
:103340004CE45DE3C701B6010E9445202B013C011E
:103350000E9423216B017C010E94FD1E9B01AC0198
:10336000C301B2010E9444202B013C012AE0B701B5
:10337000A60188EA97E00E94A70D6EE288EA97E02E
:103380000E94470520E030E040E251E4C301B20171
:103390000E945E1F0E942321AB0160E070E02AE0E2
:1033A00088EA97E00E94A70D76CD029709F01BCF1F
:1033B00085E090E00E945A0D4CE251E085E99AE0E8
:1033C0000E94290480919A0A882309F40CCF109254
:1033D000D8048091390290913A02019600CF0F9360
:1033E0001F93CF93DF93EC01162F072F81E08D837E
:1033F000188661E0812F0E94960F1E830F83DF9154
:10340000CF911F910F910895CF93DF93C4E6DAE037
:103410002697888199810E9451228AE0CC31D80771
:10342000B9F7DF91CF910895EF92FF920F931F9319
:10343000CF93DF93EC01198218821B821A821D82BE
:103440001C8261157105B9F17B01FB01019000201F
:10345000E9F731978F01061B170BB8016F5F7F4F9C
:1034600080E090E00E94DA22009759F099838883E7
:103470001B830A832C813D81232B81F4FC01108264
:103480000DC088819981009711F00E945122198204
:1034900018821D821C821B821A820DC01D830C8320
:1034A000B70188819981DF91CF911F910F91FF9092
:1034B000EF900C94CD23DF91CF911F910F91FF904E
:1034C000EF900895AF92BF92CF92DF92EF92FF926A
:1034D0000F931F93CF93DF9300D000D0CDB7DEB70B
:1034E00010920E0710920D0748EE53E060E070E076
:1034F00040930F07509310076093110770931207C2
:1035000089E492E090930C0780930B0725E331E068
:10351000309318072093170724E331E030931A07FC
:103520002093190720E331E030931C0720931B07F9
:1035300021E331E030931E0720931D0722E331E0A1
:103540003093200720931F0726E331E030932207B2
:103550002093210710922407109225071092260726
:10356000109227071092AB071092AA074093AC075E
:103570005093AD076093AE077093AF079093A90780
:103580008093A80725ED30E03093B5072093B4076A
:1035900024ED30E03093B7072093B60720ED30E0FC
:1035A0003093B9072093B80721ED30E03093BB0783
:1035B0002093BA0722ED30E03093BD072093BC077B
:1035C00026ED30E03093BF072093BE071092C1076D
:1035D0001092C2071092C3071092C40710924808B5
:1035E000109247084093490850934A0860934B084B
:1035F00070934C08909346088093450885EC90E0C2
:10360000909352088093510884EC90E09093540872
:103610008093530880EC90E090935608809355086F
:1036200081EC90E0909358088093570882EC90E0EA
:1036300090935A088093590886EC90E090935C0828
:1036400080935B0810925E0810925F0810926008E9
:10365000109261081092D00A1092D10A1092D40AE6
:103660001092D60A82E090E0A0E0B0E08093D70A02
:103670009093D80AA093D90AB093DA0A1092EE0A6E
:103680001092F80A1092F70A8BE592E09093F60AEE
:103690008093F50A1092FA0A80E58093E20810926E
:1036A000E30869E070E082EC9AE00E94EF1963E0C1
:1036B00070E089EB9AE00E94EF1962E070E080EB25
:1036C0009AE00E94EF1964E070E087EA9AE00E94B5
:1036D000EF1967E070E08EE99AE00E94EF1965E06B
:1036E00070E085E99AE00E94EF1968E070E08CE8EC
:1036F0009AE00E94EF1966E070E083E89AE00E9489
:10370000EF196DE070E08AE79AE00E94EF1981E01E
:103710008093780A1092790A88E893E1A0E0B0E0FB
:103720008093740A9093750AA093760AB093770AEF
:103730000E940C106093700A7093710A8093720A51
:103740009093730A86E090E090936B0A80936A0AE4
:1037500087EE9FE09093670A8093660A42E050E00C
:1037600060E070E0CE0105960E941C208D819E8154
:103770009093650A8093640A2091660A3091670AE3
:103780002817390714F0029784F482E090E09093B0
:10379000650A8093640A9A83898342E050E060E07E
:1037A00070E0CE0101960E942C206091640A709115
:1037B000650A44E050E0CE0101960E941C208981F8
:1037C0009A81AB81BC8180936C0A90936D0AA0931F
:1037D0006E0AB0936F0A64EC73E08CE19AE00E9489
:1037E000141A60ED73E082E29AE00E94141A6EED02
:1037F00073E088E29AE00E94141A6AEE73E08EE2A7
:103800009AE00E94141A68EF73E084E39AE00E9441
:10381000141A66E074E08AE39AE00E94141A60E1E8
:1038200074E080E49AE00E94141A6DE174E086E48A
:103830009AE00E94141A69E274E08CE49AE00E9413
:10384000141A66E374E082E59AE00E94141A64E4B4
:1038500074E088E59AE00E94141A65E574E08EE54C
:103860009AE00E94141A1092100A1092110A8EE522
:1038700094E09093130A8093120A1092150A109202
:10388000140A1092190A1092180A10921B0A109228
:103890001A0A1092170A1092160A81E08093040AFD
:1038A0001092050A24E634E03093070A2093060AB2
:1038B0001092090A1092080A10920D0A10920C0A2E
:1038C00010920F0A10920E0A10920B0A10920A0A16
:1038D0008093F80996E0F92EF092F9092AE6C22EB3
:1038E00024E0D22ED092FB09C092FA091092FD0971
:1038F0001092FC091092010A1092000A1092030A19
:103900001092020A1092FF091092FE098093EC09AE
:1039100097E09093ED090DE614E01093EF09009302
:10392000EE091092F1091092F0091092F509109227
:10393000F4091092F7091092F6091092F309109207
:10394000F2098093E00935E0E32EE092E109E0E737
:10395000F4E0F093E309E093E2091092E509109294
:10396000E4091092E9091092E8091092EB0910920B
:10397000EA091092E7091092E6098093D40992E0CF
:103980009093D50923E734E03093D7092093D609E3
:103990001092D9091092D8091092DD091092DC0911
:1039A0001092DF091092DE091092DB091092DA09F9
:1039B0008093C80924E02093C90927E734E03093B5
:1039C000CB092093CA091092CD091092CC0910920C
:1039D000D1091092D0091092D3091092D2091092F5
:1039E000CF091092CE098093BC092EE02093BD0927
:1039F0002BE734E03093BF092093BE091092C10930
:103A00001092C0091092C5091092C4091092C709FA
:103A10001092C6091092C3091092C2098093B0098E
:103A20002DE02093B1092FE734E03093B3092093C0
:103A3000B2091092B5091092B4091092B909109206
:103A4000B8091092BB091092BA091092B7091092E6
:103A5000B6098093A4092CE02093A50923E834E05B
:103A60003093A7092093A6091092A9091092A809DA
:103A70001092AD091092AC091092AF091092AE09E4
:103A80001092AB091092AA09809398092BE0209319
:103A9000990947E854E050939B0940939A09109282
:103AA0009D0910929C091092A1091092A0091092F0
:103AB000A3091092A20910929F0910929E09809367
:103AC0008C092AE020938D09AAE8B4E0B0938F090D
:103AD000A0938E0910929109109290091092950965
:103AE00010929409109297091092960910929309D6
:103AF000109292098093800921E1209381092DE899
:103B000034E0309383092093820910928509109242
:103B10008409109289091092880910928B091092D9
:103B20008A0910928709109286098093740968E0C7
:103B30006093750960E974E0709377096093760982
:103B4000109279091092780910927D0910927C09DF
:103B500010927F0910927E0910927B0910927A09C7
:103B60008093680980E18093690983E9A82E84E045
:103B7000B82EB0926B09A0926A0910926D0910924A
:103B80006C091092710910927009109273091092C9
:103B9000720910926F0910926E0990935C0910924D
:103BA0005D0987E9A82E84E0B82EB0925F09A09243
:103BB0005E091092610910926009109265091092D5
:103BC00064091092670910926609109263091092B5
:103BD000620990935009E0925109D0925309C09222
:103BE00052091092550910925409109259091092D5
:103BF000580910925B0910925A09109257091092B5
:103C0000560990934409F09245091093470900938F
:103C10004609109249091092480910924D091092D4
:103C20004C0910924F0910924E0910924B091092B4
:103C30004A09909338098FE080933909B0933B0982
:103C4000A0933A0910923D0910923C091092410943
:103C500010924009109243091092420910923F09B4
:103C600010923E0983E080932C0910922D09ADE952
:103C7000B4E0B0932F09A0932E091092310910924D
:103C800030091092350910923409109237091092B8
:103C9000360910923309109232099093200982E17B
:103CA00080932109F0932309E093220910922509BA
:103CB00010922409109229091092280910922B09B8
:103CC00010922A091092270910922609909314093C
:103CD00084E1809315097093170960931609109277
:103CE00019091092180910921D0910921C091092BE
:103CF0001F0910921E0910921B0910921A09909325
:103D0000080985E18093090950930B0940930A093A
:103D100010920D0910920C091092110910921009BD
:103D2000109213091092120910920F0910920E09A5
:103D30009093FC0887E18093FD083093FF0820935F
:103D4000FE081092010910920009109205091092C4
:103D500004091092070910920609109203091092A3
:103D600002099093F00888E18093F10823EA34E097
:103D70003093F3082093F2081092F5081092F4089B
:103D80001092F9081092F8081092FB081092FA08A5
:103D90001092F7081092F6089093E4088AE1809355
:103DA000E50886EA94E09093E7088093E60810928D
:103DB000E9081092E8081092ED081092EC081092B1
:103DC000EF081092EE081092EB081092EA0826967F
:103DD0000FB6F894DEBF0FBECDBFDF91CF911F911C
:103DE0000F91FF90EF90DF90CF90BF90AF9008952C
:103DF0000E943A1F08F481E00895E89409C097FBF7
:103E00003EF490958095709561957F4F8F4F9F4FB1
:103E10009923A9F0F92F96E9BB279395F6958795F5
:103E200077956795B795F111F8CFFAF4BB0F11F4B8
:103E300060FF1BC06F5F7F4F8F4F9F4F16C088235F
:103E400011F096E911C0772321F09EE8872F762F95
:103E500005C0662371F096E8862F70E060E02AF0D6
:103E60009A95660F771F881FDAF7880F96958795C2
:103E700097F90895990F0008550FAA0BE0E8FEEF97
:103E800016161706E807F907C0F012161306E4071E
:103E9000F50798F0621B730B840B950B39F40A2617
:103EA00061F0232B242B252B21F408950A2609F4F5
:103EB000A140A6958FEF811D811D08950E94711F5D
:103EC0000C94E21F0E94D41F38F00E94DB1F20F0E8
:103ED000952311F00C94CB1F0C94D11F11240C943A
:103EE00016200E94F31F70F3959FC1F3950F50E0C9
:103EF000551F629FF001729FBB27F00DB11D639F9C
:103F0000AA27F00DB11DAA1F649F6627B00DA11D41
:103F1000661F829F2227B00DA11D621F739FB00DE7
:103F2000A11D621F839FA00D611D221F749F332757
:103F3000A00D611D231F849F600D211D822F762FF0
:103F40006A2F11249F5750409AF0F1F088234AF0CD
:103F5000EE0FFF1FBB1F661F771F881F9150504039
:103F6000A9F79E3F510580F00C94CB1F0C941620AE
:103F70005F3FE4F3983ED4F3869577956795B795C0
:103F8000F795E7959F5FC1F7FE2B880F911D9695DA
:103F9000879597F9089597F99F6780E870E060E04A
:103FA00008959FEF80EC089500240A9416161706D2
:103FB00018060906089500240A941216130614061A
:103FC00005060895092E0394000C11F4882352F07D
:103FD000BB0F40F4BF2B11F460FF04C06F5F7F4F35
:103FE0008F4F9F4F089557FD9058440F551F59F01C
:103FF0005F3F71F04795880F97FB991F61F09F3FD6
:1040000079F087950895121613061406551FF2CFFE
:104010004695F1DF08C0161617061806991FF1CF4E
:1040200086957105610508940895E894BB27662775
:104030007727CB0197F90895DC01CB01FC01F999B1
:10404000FECF06C0F2BDE1BDF89A319600B40D92E4
:1040500041505040B8F70895DC01CB0103C02D91C9
:104060000E94372041505040D0F70895262FF999EB
:10407000FECF1FBA92BD81BD20BD0FB6F894FA9A4B
:10408000F99A0FBE019608955058BB27AA270E949F
:104090005C200C94E21F0E94D41F38F00E94DB1FAA
:1040A00020F039F49F3F19F426F40C94D11F0EF43C
:1040B000E095E7FB0C94CB1FE92F0E94F31F58F308
:1040C000BA17620773078407950720F079F4A6F5FD
:1040D0000C9415200EF4E0950B2EBA2FA02D0B0199
:1040E000B90190010C01CA01A0011124FF27591B3D
:1040F00099F0593F50F4503E68F11A16F040A22F43
:10410000232F342F4427585FF3CF469537952795B3
:10411000A795F0405395C9F77EF41F16BA0B620BB2
:10412000730B840BBAF09150A1F0FF0FBB1F661FF9
:10413000771F881FC2F70EC0BA0F621F731F841F3C
:1041400048F4879577956795B795F7959E3F08F062
:10415000B0CF9395880F08F09927EE0F9795879524
:1041600008950E94C5200C94E21F0E94DB1F58F0A6
:104170000E94D41F40F029F45F3F29F00C94CB1F1C
:1041800051110C9416200C94D11F0E94F31F68F358
:104190009923B1F3552391F3951B550BBB27AA2700
:1041A00062177307840738F09F5F5F4F220F331F3A
:1041B000441FAA1FA9F335D00E2E3AF0E0E832D002
:1041C00091505040E695001CCAF72BD0FE2F29D005
:1041D000660F771F881FBB1F261737074807AB07D7
:1041E000B0E809F0BB0B802DBF01FF2793585F4F4C
:1041F0003AF09E3F510578F00C94CB1F0C9416209A
:104200005F3FE4F3983ED4F3869577956795B7952D
:10421000F7959F5FC9F7880F911D9695879597F938
:104220000895E1E0660F771F881FBB1F62177307B1
:104230008407BA0720F0621B730B840BBA0BEE1FC6
:1042400088F7E09508950E94FB1F88F09F5798F02B
:10425000B92F9927B751B0F0E1F0660F771F881F8B
:10426000991F1AF0BA95C9F714C0B13091F00E94A5
:104270001520B1E008950C941520672F782F88271A
:10428000B85F39F0B93FCCF3869577956795B395CC
:10429000D9F73EF490958095709561957F4F8F4F3B
:1042A0009F4F08950E943A1F08F48FEF08950E94CF
:1042B0003A1F880B990B0895AA1BBB1B51E107C03D
:1042C000AA1FBB1FA617B70710F0A61BB70B881FA6
:1042D000991F5A95A9F780959095BC01CD01089535
:1042E000A1E21A2EAA1BBB1BFD010DC0AA1FBB1FFA
:1042F000EE1FFF1FA217B307E407F50720F0A21B6C
:10430000B30BE40BF50B661F771F881F991F1A94D8
:1043100069F760957095809590959B01AC01BD0102
:10432000CF010895052E97FB1EF400940E94A92149
:1043300057FD07D00E94702107FC03D04EF40C9467
:10434000A92150954095309521953F4F4F4F5F4F94
:10435000089590958095709561957F4F8F4F9F4FF1
:104360000895EE0FFF1F881F8BBF0790F691E02D79
:1043700019940F931F93CF93DF938230910510F41C
:1043800082E090E0E0911F0BF091200B20E030E004
:10439000A0E0B0E0309719F1408151810281138192
:1043A00048175907C8F08417950769F4109731F03A
:1043B00012960C93129713961C9327C000931F0B11
:1043C0001093200B22C02115310519F04217530715
:1043D00018F49A01BD01EF01DF01F801DBCF2115CF
:1043E0003105F9F0281B390B2430310580F48A811E
:1043F0009B816115710521F0FB019383828304C0C9
:104400009093200B80931F0BFE01329644C0FE0157
:10441000E20FF31F8193919322503109398328834E
:104420003AC020911D0B30911E0B232B41F420919B
:1044300041023091420230931E0B20931D0B2091BC
:104440003F02309140022115310541F42DB73EB7AE
:104450004091430250914402241B350BE0911D0B07
:10446000F0911E0BE217F307A0F42E1B3F0B281749
:10447000390778F0AC014E5F5F4F2417350748F0DD
:104480004E0F5F1F50931E0B40931D0B8193919312
:1044900002C0E0E0F0E0CF01DF91CF911F910F91DA
:1044A0000895CF93DF93009709F481C0FC01329700
:1044B00013821282A0911F0BB091200B109781F4F0
:1044C00020813181820F931F20911D0B30911E0B93
:1044D0002817390751F5F0931E0BE0931D0B67C0A9
:1044E000ED0120E030E0CE17DF0740F44A815B8128
:1044F0009E0141155105F1F0EA01F5CFD383C28346
:1045000040815181840F951FC817D90759F48881BC
:104510009981840F951F0296918380838A819B8164
:10452000938382832115310529F4F093200BE093C6
:104530001F0B3DC0E901FB83EA8349915991C40FE8
:10454000D51FEC17FD0761F480819181840F951FC1
:104550000296E90199838883828193819B838A8370
:10456000E0E0F0E012968D919C911397009719F07E
:10457000FD01DC01F7CF8D919C9111979D012E5F7C
:104580003F4F820F931F20911D0B30911E0B281758
:10459000390769F4309729F41092200B10921F0B01
:1045A00002C013821282B0931E0BA0931D0BDF91E9
:1045B000CF9108956F927F928F929F92AF92BF9208
:1045C000CF92DF92EF92FF920F931F93CF93DF93DF
:1045D000009789F4CB01DF91CF911F910F91FF904C
:1045E000EF90DF90CF90BF90AF909F908F907F9093
:1045F0006F900C94B921FC01E60FF71F9C0122502B
:104600003109E217F30708F4A9C0EC01D9010D91B3
:104610001C91119706171707B0F00530110508F423
:104620009BC0C80104978617970708F495C00250ED
:104630001109061B170B019311936D937C93CF0106
:104640000E94512289C05B01A01AB10A4C01800E60
:10465000911EA0911F0BB091200B612C712CE12CAD
:10466000F12C109709F446C08D919C911197A815D3
:10467000B905B1F56C0142E0C40ED11CCA14DB04CB
:1046800078F14C018A189B08640142E0C40ED11CE9
:104690001296BC9012971396AC91B5E0CB16D1044C
:1046A00040F0B282A38391828082D9016D937C9382
:1046B00009C00E5F1F4F800F911FF9019183808306
:1046C000EB2DFA2FE114F10431F0D7011396FC938E
:1046D000EE93129741C0F093200BE0931F0B3CC068
:1046E0006816790608F43C017D0112960D90BC9184
:1046F000A02DB7CF80911D0B90911E0B88169906A7
:10470000E1F466167706C8F480913F02909140026A
:10471000009741F48DB79EB74091430250914402F7
:10472000841B950BE817F907C8F4F0931E0BE09370
:104730001D0BF901718360830FC0CB010E94B92169
:104740007C01009759F0A801BE010E94C423CE014C
:104750000E945122C70104C0CE0102C080E090E057
:10476000DF91CF911F910F91FF90EF90DF90CF904D
:10477000BF90AF909F908F907F906F90089581E051
:1047800090E0F8940C94D423FB01DC0102C001906A
:104790000D9241505040D8F70895FB01DC01019083
:1047A0000D920020E1F7089511E0C6E9D1E000E0A4
:1047B00006C0802FFE010E94B1212196011DC7393C
:0C47C000D10780E00807A9F7F894FFCFAC
:1047CC00010101100A040A5C092C093809F809ECEA
:1047DC0009E00950094409D409C8098009A409BC95
:1047EC0009B00998098C0974096809200914090889
:1047FC0009FC08F008E40800000100FFFFFFFF00BF
:10480C0000210B8000000000004705A004CA04949E
:10481C0005FB04D904ED0400000000020AA004CB3F
:10482C0001CA01001006007061676520310045580F
:10483C00495420534554555000286E756C6C290012
:10484C005D00636C69636B206274302C3100636CA7
:10485C0069636B206274312C310074342E7478745B
:10486C003D00220042414E44204C4545522100500F
:10487C00415553453A200074302E7478743D0063D2
:10488C006C69636B206274352C3100636C69636BEB
:10489C00206274342C3100636C69636B2062743356
:1048AC002C3100636C69636B2062352C00636C697E
:1048BC00636B2062342C00636C69636B2062362C52
:1048CC0000636C69636B2062332C00636C69636BEF
:1048DC00206274362C3100206D73006E616E00699D
:1048EC006E66006F76660020626172007431302E45
:1048FC007478743D007431322E7478743D007435C4
:10490C002E7478743D0020730074372E7478743DC7
:10491C00005B003A0068312E76616C3D0074362ED7
:10492C007478743D00204E0074382E7478743D00F9
:10493C004F4B2C20474F54204954726533004F4B3A
:10494C002C20474F542049546C6533004F4B2C207E
:10495C00474F54204954726532004F4B2C20474F1F
:10496C00542049546C6532004F4B2C20474F542037
:10497C004954317269004F4B2C20474F54204954F5
:10498C00316C650031204155465745434B454E002F
:10499C003220564F52534348494542454E0033202E
:1049AC005343484E454944454E00342046455354E4
:1049BC004B4C454D4D454E0035204B5241465441D4
:1049CC0055464241550036205350414E4E454E00FF
:1049DC0037205343485745495353454E00382041DF
:1049EC00424B55454C48454E003920454E5453508A
:1049FC00414E4E454E00313020454E544B4C454DAA
:104A0C004D454E003131205A55525545434B464188
:104A1C004852454E0031322050415553450070618B
:104A2C006765300070616765310062310062320089
:104A3C00623000627430006274310062743500625E
:104A4C0074340062743300623500623400623600E4
:104A5C0062330062743600706167653200706167A2
:0C4A6C006533006237006238000D0A005C
:00000001FF
